{
  "contractName": "PaymentContract",
  "abi": [
    {
      "inputs": [],
      "stateMutability": "nonpayable",
      "type": "constructor"
    },
    {
      "inputs": [],
      "name": "owner",
      "outputs": [
        {
          "internalType": "address",
          "name": "",
          "type": "address"
        }
      ],
      "stateMutability": "view",
      "type": "function"
    },
    {
      "stateMutability": "payable",
      "type": "receive"
    },
    {
      "inputs": [],
      "name": "withdraw",
      "outputs": [],
      "stateMutability": "nonpayable",
      "type": "function"
    },
    {
      "inputs": [],
      "name": "getBalance",
      "outputs": [
        {
          "internalType": "uint256",
          "name": "",
          "type": "uint256"
        }
      ],
      "stateMutability": "view",
      "type": "function"
    }
  ],
  "bytecode": "0x6080604052348015600e575f80fd5b50335f806101000a81548173ffffffffffffffffffffffffffffffffffffffff021916908373ffffffffffffffffffffffffffffffffffffffff1602179055506104198061005b5f395ff3fe608060405260043610610037575f3560e01c806312065fe0146100425780633ccfd60b1461006c5780638da5cb5b146100825761003e565b3661003e57005b5f80fd5b34801561004d575f80fd5b506100566100ac565b604051610063919061022b565b60405180910390f35b348015610077575f80fd5b506100806100b3565b005b34801561008d575f80fd5b506100966101f0565b6040516100a39190610283565b60405180910390f35b5f47905090565b5f8054906101000a900473ffffffffffffffffffffffffffffffffffffffff1673ffffffffffffffffffffffffffffffffffffffff163373ffffffffffffffffffffffffffffffffffffffff1614610140576040517f08c379a00000000000000000000000000000000000000000000000000000000081526004016101379061031c565b60405180910390fd5b5f4790505f3373ffffffffffffffffffffffffffffffffffffffff168260405161016990610367565b5f6040518083038185875af1925050503d805f81146101a3576040519150601f19603f3d011682016040523d82523d5f602084013e6101a8565b606091505b50509050806101ec576040517f08c379a00000000000000000000000000000000000000000000000000000000081526004016101e3906103c5565b60405180910390fd5b5050565b5f8054906101000a900473ffffffffffffffffffffffffffffffffffffffff1681565b5f819050919050565b61022581610213565b82525050565b5f60208201905061023e5f83018461021c565b92915050565b5f73ffffffffffffffffffffffffffffffffffffffff82169050919050565b5f61026d82610244565b9050919050565b61027d81610263565b82525050565b5f6020820190506102965f830184610274565b92915050565b5f82825260208201905092915050565b7f4e6f7420617574686f72697a65643a2063616c6c6572206973206e6f742074685f8201527f65206f776e657200000000000000000000000000000000000000000000000000602082015250565b5f61030660278361029c565b9150610311826102ac565b604082019050919050565b5f6020820190508181035f830152610333816102fa565b9050919050565b5f81905092915050565b50565b5f6103525f8361033a565b915061035d82610344565b5f82019050919050565b5f61037182610347565b9150819050919050565b7f4661696c656420746f2073656e642045746865720000000000000000000000005f82015250565b5f6103af60148361029c565b91506103ba8261037b565b602082019050919050565b5f6020820190508181035f8301526103dc816103a3565b905091905056fea2646970667358221220af68609a84c546b5b59bcb2d488d30e095b5b3db3818db0e4f97cc7e6e3fa2c164736f6c63430008190033",
  "immutableReferences": {},
  "source": "// SPDX-License-Identifier: MIT\r\npragma solidity ^0.8.0;\r\n\r\ncontract PaymentContract {\r\n    address public owner;\r\n\r\n    constructor() {\r\n        owner = msg.sender; // Set the owner to the address that deploys the contract\r\n    }\r\n\r\n    // Modifier to restrict certain functions to only the owner of the contract\r\n    modifier onlyOwner() {\r\n        require(msg.sender == owner, \"Not authorized: caller is not the owner\");\r\n        _;\r\n    }\r\n\r\n    // Function to receive Ether, msg.data must be empty\r\n    receive() external payable {}\r\n\r\n    // Function to withdraw all Ether from this contract, restricted to owner\r\n    function withdraw() public onlyOwner {\r\n        uint amount = address(this).balance;\r\n        (bool success, ) = payable(msg.sender).call{value: amount}(\"\");\r\n        require(success, \"Failed to send Ether\");\r\n    }\r\n\r\n    // Function to get the balance of the contract\r\n    function getBalance() public view returns (uint) {\r\n        return address(this).balance;\r\n    }\r\n}\r\n",
  "sourcePath": "C:\\Users\\Kevin Sorensen\\GitHub\\Aclean\\aclean-dapps\\blockchain\\contracts\\PaymentContract.sol",
  "compiler": {
    "name": "solc",
    "version": "0.8.25+commit.b61c2a91.Emscripten.clang"
  },
  "schemaVersion": "3.4.16",
  "updatedAt": "2024-05-18T10:43:14.334Z",
  "devdoc": {
    "kind": "dev",
    "methods": {},
    "version": 1
  },
  "userdoc": {
    "kind": "user",
    "methods": {},
    "version": 1
  }
}