{
  "_format": "hh-sol-artifact-1",
  "contractName": "ServiceAgreement",
  "sourceName": "contracts/ServiceAgreement.sol",
  "abi": [
    {
      "inputs": [
        {
          "internalType": "address",
          "name": "_client",
          "type": "address"
        },
        {
          "internalType": "address",
          "name": "_provider",
          "type": "address"
        },
        {
          "internalType": "uint256",
          "name": "_termsAmount",
          "type": "uint256"
        }
      ],
      "stateMutability": "nonpayable",
      "type": "constructor"
    },
    {
      "anonymous": false,
      "inputs": [
        {
          "indexed": true,
          "internalType": "address",
          "name": "agreementAddress",
          "type": "address"
        },
        {
          "indexed": false,
          "internalType": "enum ServiceAgreement.Rating",
          "name": "clientRating",
          "type": "uint8"
        },
        {
          "indexed": false,
          "internalType": "enum ServiceAgreement.ClientApprovalStatus",
          "name": "clientApprovalStatus",
          "type": "uint8"
        },
        {
          "indexed": false,
          "internalType": "enum ServiceAgreement.WorkStatus",
          "name": "agreementStatus",
          "type": "uint8"
        }
      ],
      "name": "AgreementFulfilled",
      "type": "event"
    },
    {
      "anonymous": false,
      "inputs": [
        {
          "indexed": true,
          "internalType": "address",
          "name": "agreementAddress",
          "type": "address"
        },
        {
          "indexed": false,
          "internalType": "enum ServiceAgreement.WorkStatus",
          "name": "agreementStatus",
          "type": "uint8"
        }
      ],
      "name": "ServiceStatusUpdate",
      "type": "event"
    },
    {
      "inputs": [],
      "name": "agreementStatus",
      "outputs": [
        {
          "internalType": "enum ServiceAgreement.WorkStatus",
          "name": "",
          "type": "uint8"
        }
      ],
      "stateMutability": "view",
      "type": "function"
    },
    {
      "inputs": [],
      "name": "clientApprovalStatus",
      "outputs": [
        {
          "internalType": "enum ServiceAgreement.ClientApprovalStatus",
          "name": "",
          "type": "uint8"
        }
      ],
      "stateMutability": "view",
      "type": "function"
    },
    {
      "inputs": [],
      "name": "clientRating",
      "outputs": [
        {
          "internalType": "enum ServiceAgreement.Rating",
          "name": "",
          "type": "uint8"
        }
      ],
      "stateMutability": "view",
      "type": "function"
    },
    {
      "inputs": [],
      "name": "deposit",
      "outputs": [],
      "stateMutability": "payable",
      "type": "function"
    },
    {
      "inputs": [],
      "name": "getAgreementDetails",
      "outputs": [
        {
          "internalType": "address",
          "name": "",
          "type": "address"
        },
        {
          "internalType": "address",
          "name": "",
          "type": "address"
        },
        {
          "internalType": "uint256",
          "name": "",
          "type": "uint256"
        },
        {
          "internalType": "enum ServiceAgreement.WorkStatus",
          "name": "",
          "type": "uint8"
        },
        {
          "internalType": "enum ServiceAgreement.ClientApprovalStatus",
          "name": "",
          "type": "uint8"
        },
        {
          "internalType": "enum ServiceAgreement.Rating",
          "name": "",
          "type": "uint8"
        },
        {
          "internalType": "bool",
          "name": "",
          "type": "bool"
        },
        {
          "internalType": "uint256",
          "name": "",
          "type": "uint256"
        }
      ],
      "stateMutability": "view",
      "type": "function"
    },
    {
      "inputs": [
        {
          "internalType": "enum ServiceAgreement.Rating",
          "name": "_rating",
          "type": "uint8"
        }
      ],
      "name": "rateServiceProvider",
      "outputs": [],
      "stateMutability": "nonpayable",
      "type": "function"
    },
    {
      "inputs": [],
      "name": "refund",
      "outputs": [],
      "stateMutability": "nonpayable",
      "type": "function"
    },
    {
      "inputs": [],
      "name": "transferFundsToProvider",
      "outputs": [],
      "stateMutability": "nonpayable",
      "type": "function"
    },
    {
      "inputs": [
        {
          "internalType": "enum ServiceAgreement.ClientApprovalStatus",
          "name": "_approve",
          "type": "uint8"
        }
      ],
      "name": "updateClientApprovalStatus",
      "outputs": [],
      "stateMutability": "nonpayable",
      "type": "function"
    },
    {
      "inputs": [
        {
          "internalType": "enum ServiceAgreement.WorkStatus",
          "name": "_status",
          "type": "uint8"
        }
      ],
      "name": "updateServiceStatus",
      "outputs": [],
      "stateMutability": "nonpayable",
      "type": "function"
    }
  ],
  "bytecode": "0x60806040523480156200001157600080fd5b506040516200189938038062001899833981810160405281019062000037919062000206565b826000806101000a81548173ffffffffffffffffffffffffffffffffffffffff021916908373ffffffffffffffffffffffffffffffffffffffff16021790555081600160006101000a81548173ffffffffffffffffffffffffffffffffffffffff021916908373ffffffffffffffffffffffffffffffffffffffff160217905550806002819055506000600360006101000a81548160ff021916908360038111156200010c577f4e487b7100000000000000000000000000000000000000000000000000000000600052602160045260246000fd5b02179055506000600360016101000a81548160ff021916908360028111156200015e577f4e487b7100000000000000000000000000000000000000000000000000000000600052602160045260246000fd5b02179055506000600360026101000a81548160ff02191690836005811115620001b0577f4e487b7100000000000000000000000000000000000000000000000000000000600052602160045260246000fd5b021790555060006003806101000a81548160ff021916908315150217905550505050620002ce565b600081519050620001e9816200029a565b92915050565b6000815190506200020081620002b4565b92915050565b6000806000606084860312156200021c57600080fd5b60006200022c86828701620001d8565b93505060206200023f86828701620001d8565b92505060406200025286828701620001ef565b9150509250925092565b6000620002698262000270565b9050919050565b600073ffffffffffffffffffffffffffffffffffffffff82169050919050565b6000819050919050565b620002a5816200025c565b8114620002b157600080fd5b50565b620002bf8162000290565b8114620002cb57600080fd5b50565b6115bb80620002de6000396000f3fe6080604052600436106100915760003560e01c80638a4a69a8116100595780638a4a69a8146101555780638c89e6511461016c578063b4bd778414610195578063c00a8bff146101c7578063d0e30db0146101f257610091565b806310ccb04c1461009657806340359b34146100c157806350796022146100ea578063590e1ae3146101155780636c0d19441461012c575b600080fd5b3480156100a257600080fd5b506100ab6101fc565b6040516100b89190610fef565b60405180910390f35b3480156100cd57600080fd5b506100e860048036038101906100e39190610c99565b61020f565b005b3480156100f657600080fd5b506100ff610324565b60405161010c9190610f82565b60405180910390f35b34801561012157600080fd5b5061012a610337565b005b34801561013857600080fd5b50610153600480360381019061014e9190610cc2565b610544565b005b34801561016157600080fd5b5061016a610625565b005b34801561017857600080fd5b50610193600480360381019061018e9190610ceb565b6108c3565b005b3480156101a157600080fd5b506101aa610973565b6040516101be989796959493929190610f04565b60405180910390f35b3480156101d357600080fd5b506101dc610a1f565b6040516101e99190610f9d565b60405180910390f35b6101fa610a32565b005b600360009054906101000a900460ff1681565b60026003811115610249577f4e487b7100000000000000000000000000000000000000000000000000000000600052602160045260246000fd5b600360009054906101000a900460ff166003811115610291577f4e487b7100000000000000000000000000000000000000000000000000000000600052602160045260246000fd5b146102d1576040517f08c379a00000000000000000000000000000000000000000000000000000000081526004016102c89061108a565b60405180910390fd5b80600360016101000a81548160ff0219169083600281111561031c577f4e487b7100000000000000000000000000000000000000000000000000000000600052602160045260246000fd5b021790555050565b600360019054906101000a900460ff1681565b60008054906101000a900473ffffffffffffffffffffffffffffffffffffffff1673ffffffffffffffffffffffffffffffffffffffff163373ffffffffffffffffffffffffffffffffffffffff16146103c5576040517f08c379a00000000000000000000000000000000000000000000000000000000081526004016103bc9061112a565b60405180910390fd5b60038054906101000a900460ff1615610413576040517f08c379a000000000000000000000000000000000000000000000000000000000815260040161040a906110ea565b60405180910390fd5b60038081111561044c577f4e487b7100000000000000000000000000000000000000000000000000000000600052602160045260246000fd5b600360009054906101000a900460ff166003811115610494577f4e487b7100000000000000000000000000000000000000000000000000000000600052602160045260246000fd5b146104d4576040517f08c379a00000000000000000000000000000000000000000000000000000000081526004016104cb906110ca565b60405180910390fd5b6000471015610518576040517f08c379a000000000000000000000000000000000000000000000000000000000815260040161050f9061100a565b60405180910390fd5b61054260008054906101000a900473ffffffffffffffffffffffffffffffffffffffff1647610b10565b565b60008054906101000a900473ffffffffffffffffffffffffffffffffffffffff1673ffffffffffffffffffffffffffffffffffffffff163373ffffffffffffffffffffffffffffffffffffffff16146105d2576040517f08c379a00000000000000000000000000000000000000000000000000000000081526004016105c99061112a565b60405180910390fd5b80600360026101000a81548160ff0219169083600581111561061d577f4e487b7100000000000000000000000000000000000000000000000000000000600052602160045260246000fd5b021790555050565b600160009054906101000a900473ffffffffffffffffffffffffffffffffffffffff1673ffffffffffffffffffffffffffffffffffffffff163373ffffffffffffffffffffffffffffffffffffffff16146106b5576040517f08c379a00000000000000000000000000000000000000000000000000000000081526004016106ac9061102a565b60405180910390fd5b60038054906101000a900460ff1615610703576040517f08c379a00000000000000000000000000000000000000000000000000000000081526004016106fa906110ea565b60405180910390fd5b600254471015610748576040517f08c379a000000000000000000000000000000000000000000000000000000000815260040161073f9061104a565b60405180910390fd5b60026003811115610782577f4e487b7100000000000000000000000000000000000000000000000000000000600052602160045260246000fd5b600360009054906101000a900460ff1660038111156107ca577f4e487b7100000000000000000000000000000000000000000000000000000000600052602160045260246000fd5b14801561085657506001600281111561080c577f4e487b7100000000000000000000000000000000000000000000000000000000600052602160045260246000fd5b600360019054906101000a900460ff166002811115610854577f4e487b7100000000000000000000000000000000000000000000000000000000600052602160045260246000fd5b145b610895576040517f08c379a000000000000000000000000000000000000000000000000000000000815260040161088c906110aa565b60405180910390fd5b6108c1600160009054906101000a900473ffffffffffffffffffffffffffffffffffffffff1647610b10565b565b80600360006101000a81548160ff0219169083600381111561090e577f4e487b7100000000000000000000000000000000000000000000000000000000600052602160045260246000fd5b02179055503073ffffffffffffffffffffffffffffffffffffffff167f42e61e3c4e439fdecc3d22a276d1291d711d1d2f97418fcf47e4b08222e28cc4600360009054906101000a900460ff166040516109689190610fef565b60405180910390a250565b60008060008060008060008060008054906101000a900473ffffffffffffffffffffffffffffffffffffffff16600160009054906101000a900473ffffffffffffffffffffffffffffffffffffffff1647600360009054906101000a900460ff16600360019054906101000a900460ff16600360029054906101000a900460ff1660038054906101000a900460ff16600254975097509750975097509750975097509091929394959697565b600360029054906101000a900460ff1681565b60008054906101000a900473ffffffffffffffffffffffffffffffffffffffff1673ffffffffffffffffffffffffffffffffffffffff163373ffffffffffffffffffffffffffffffffffffffff1614610ac0576040517f08c379a0000000000000000000000000000000000000000000000000000000008152600401610ab79061112a565b60405180910390fd5b60038054906101000a900460ff1615610b0e576040517f08c379a0000000000000000000000000000000000000000000000000000000008152600401610b059061110a565b60405180910390fd5b565b60016003806101000a81548160ff0219169083151502179055503073ffffffffffffffffffffffffffffffffffffffff167fe4cba55b7670d81288cb513047c736b2465ad19fc9806a75a88ecb6e383e6022600360029054906101000a900460ff16600360019054906101000a900460ff16600360009054906101000a900460ff16604051610ba193929190610fb8565b60405180910390a260008273ffffffffffffffffffffffffffffffffffffffff1682604051610bcf90610eef565b60006040518083038185875af1925050503d8060008114610c0c576040519150601f19603f3d011682016040523d82523d6000602084013e610c11565b606091505b5050905080610c55576040517f08c379a0000000000000000000000000000000000000000000000000000000008152600401610c4c9061106a565b60405180910390fd5b505050565b600081359050610c6981611555565b92915050565b600081359050610c7e81611565565b92915050565b600081359050610c9381611575565b92915050565b600060208284031215610cab57600080fd5b6000610cb984828501610c5a565b91505092915050565b600060208284031215610cd457600080fd5b6000610ce284828501610c6f565b91505092915050565b600060208284031215610cfd57600080fd5b6000610d0b84828501610c84565b91505092915050565b610d1d81611166565b82525050565b610d2c81611178565b82525050565b610d3b816111e7565b82525050565b610d4a816111f9565b82525050565b610d598161120b565b82525050565b6000610d6c601b83611155565b9150610d778261124c565b602082019050919050565b6000610d8f602783611155565b9150610d9a82611275565b604082019050919050565b6000610db2602d83611155565b9150610dbd826112c4565b604082019050919050565b6000610dd5601583611155565b9150610de082611313565b602082019050919050565b6000610df8604183611155565b9150610e038261133c565b606082019050919050565b6000610e1b602483611155565b9150610e26826113b1565b604082019050919050565b6000610e3e603683611155565b9150610e4982611400565b604082019050919050565b6000610e6160008361114a565b9150610e6c8261144f565b600082019050919050565b6000610e84603683611155565b9150610e8f82611452565b604082019050919050565b6000610ea7602483611155565b9150610eb2826114a1565b604082019050919050565b6000610eca601d83611155565b9150610ed5826114f0565b602082019050919050565b610ee9816111dd565b82525050565b6000610efa82610e54565b9150819050919050565b600061010082019050610f1a600083018b610d14565b610f27602083018a610d14565b610f346040830189610ee0565b610f416060830188610d50565b610f4e6080830187610d32565b610f5b60a0830186610d41565b610f6860c0830185610d23565b610f7560e0830184610ee0565b9998505050505050505050565b6000602082019050610f976000830184610d32565b92915050565b6000602082019050610fb26000830184610d41565b92915050565b6000606082019050610fcd6000830186610d41565b610fda6020830185610d32565b610fe76040830184610d50565b949350505050565b60006020820190506110046000830184610d50565b92915050565b6000602082019050818103600083015261102381610d5f565b9050919050565b6000602082019050818103600083015261104381610d82565b9050919050565b6000602082019050818103600083015261106381610da5565b9050919050565b6000602082019050818103600083015261108381610dc8565b9050919050565b600060208201905081810360008301526110a381610deb565b9050919050565b600060208201905081810360008301526110c381610e0e565b9050919050565b600060208201905081810360008301526110e381610e31565b9050919050565b6000602082019050818103600083015261110381610e77565b9050919050565b6000602082019050818103600083015261112381610e9a565b9050919050565b6000602082019050818103600083015261114381610ebd565b9050919050565b600081905092915050565b600082825260208201905092915050565b6000611171826111bd565b9050919050565b60008115159050919050565b600081905061119282611519565b919050565b60008190506111a58261152d565b919050565b60008190506111b882611541565b919050565b600073ffffffffffffffffffffffffffffffffffffffff82169050919050565b6000819050919050565b60006111f282611184565b9050919050565b600061120482611197565b9050919050565b6000611216826111aa565b9050919050565b7f4e487b7100000000000000000000000000000000000000000000000000000000600052602160045260246000fd5b7f5468657265206973206e6f2066756e647320746f20726566756e640000000000600082015250565b7f4f6e6c792074686520736572766963652050726f76696465722063616e20636160008201527f6c6c207468697300000000000000000000000000000000000000000000000000602082015250565b7f436f6e74726163742062616c616e636520726571756972656d656e742068617360008201527f206e6f74206265656e206d657400000000000000000000000000000000000000602082015250565b7f5472616e7366657220756e7375636365737366756c0000000000000000000000600082015250565b7f54686520636f6e7472616374206e6f74206265656e206d61726b65642061732060008201527f636f6d706c657465642062792074686520736572766963652070726f7669646560208201527f7200000000000000000000000000000000000000000000000000000000000000604082015250565b7f5365727669636520776173206e6f7420636f6d706c657465206f72206170707260008201527f6f76656400000000000000000000000000000000000000000000000000000000602082015250565b7f5468652061677265656d656e7420686173206e6f74206265656e206d61726b6560008201527f642061732057696c6c204e6f7420436f6d706c65746500000000000000000000602082015250565b50565b7f746869732061677265656d656e742068617320616c7265616479206265656e2060008201527f66756c66696c6c6564206f72206e756c6c696669656400000000000000000000602082015250565b7f41677265656d656e742068617320616c7265616479206265656e2066756c666960008201527f6c6c656400000000000000000000000000000000000000000000000000000000602082015250565b7f4f6e6c792074686520636c69656e742063616e2063616c6c2074686973000000600082015250565b6003811061152a5761152961121d565b5b50565b6006811061153e5761153d61121d565b5b50565b600481106115525761155161121d565b5b50565b6003811061156257600080fd5b50565b6006811061157257600080fd5b50565b6004811061158257600080fd5b5056fea2646970667358221220246dbc5cd6b61d2dbd20f51535b0ba06b22de0a0bceb58216a236d850d43100564736f6c63430008040033",
  "linkReferences": {},
  "deployedLinkReferences": {}
}