{
  "_format": "hh-sol-artifact-1",
  "contractName": "ServiceAgreement",
  "sourceName": "contracts/ServiceAgreement.sol",
  "abi": [
    {
      "inputs": [
        {
          "internalType": "address",
          "name": "_client",
          "type": "address"
        },
        {
          "internalType": "address",
          "name": "_provider",
          "type": "address"
        },
        {
          "internalType": "uint256",
          "name": "_termsAmount",
          "type": "uint256"
        }
      ],
      "stateMutability": "nonpayable",
      "type": "constructor"
    },
    {
      "anonymous": false,
      "inputs": [
        {
          "indexed": true,
          "internalType": "address",
          "name": "agreementAddress",
          "type": "address"
        },
        {
          "indexed": false,
          "internalType": "enum ServiceAgreement.WorkStatus",
          "name": "agreementStatus",
          "type": "uint8"
        }
      ],
      "name": "ServiceStatusUpdate",
      "type": "event"
    },
    {
      "inputs": [],
      "name": "agreementStatus",
      "outputs": [
        {
          "internalType": "enum ServiceAgreement.WorkStatus",
          "name": "",
          "type": "uint8"
        }
      ],
      "stateMutability": "view",
      "type": "function"
    },
    {
      "inputs": [],
      "name": "clientApprovalStatus",
      "outputs": [
        {
          "internalType": "enum ServiceAgreement.ClientApprovalStatus",
          "name": "",
          "type": "uint8"
        }
      ],
      "stateMutability": "view",
      "type": "function"
    },
    {
      "inputs": [],
      "name": "clientRating",
      "outputs": [
        {
          "internalType": "enum ServiceAgreement.Rating",
          "name": "",
          "type": "uint8"
        }
      ],
      "stateMutability": "view",
      "type": "function"
    },
    {
      "inputs": [],
      "name": "deposit",
      "outputs": [],
      "stateMutability": "payable",
      "type": "function"
    },
    {
      "inputs": [
        {
          "internalType": "enum ServiceAgreement.Rating",
          "name": "_rating",
          "type": "uint8"
        }
      ],
      "name": "rateServiceProvider",
      "outputs": [],
      "stateMutability": "nonpayable",
      "type": "function"
    },
    {
      "inputs": [
        {
          "internalType": "enum ServiceAgreement.ClientApprovalStatus",
          "name": "_approve",
          "type": "uint8"
        }
      ],
      "name": "updateClientApprovalStatus",
      "outputs": [],
      "stateMutability": "nonpayable",
      "type": "function"
    },
    {
      "inputs": [
        {
          "internalType": "enum ServiceAgreement.WorkStatus",
          "name": "_status",
          "type": "uint8"
        }
      ],
      "name": "updateServiceStatus",
      "outputs": [],
      "stateMutability": "nonpayable",
      "type": "function"
    }
  ],
  "bytecode": "0x608060405234801561001057600080fd5b5060405162000c3b38038062000c3b833981810160405281019061003491906101fb565b826000806101000a81548173ffffffffffffffffffffffffffffffffffffffff021916908373ffffffffffffffffffffffffffffffffffffffff16021790555081600160006101000a81548173ffffffffffffffffffffffffffffffffffffffff021916908373ffffffffffffffffffffffffffffffffffffffff160217905550806002819055506000600360006101000a81548160ff02191690836003811115610108577f4e487b7100000000000000000000000000000000000000000000000000000000600052602160045260246000fd5b02179055506000600360016101000a81548160ff02191690836002811115610159577f4e487b7100000000000000000000000000000000000000000000000000000000600052602160045260246000fd5b02179055506000600360026101000a81548160ff021916908360058111156101aa577f4e487b7100000000000000000000000000000000000000000000000000000000600052602160045260246000fd5b021790555060006003806101000a81548160ff0219169083151502179055505050506102b4565b6000815190506101e081610286565b92915050565b6000815190506101f58161029d565b92915050565b60008060006060848603121561021057600080fd5b600061021e868287016101d1565b935050602061022f868287016101d1565b9250506040610240868287016101e6565b9150509250925092565b60006102558261025c565b9050919050565b600073ffffffffffffffffffffffffffffffffffffffff82169050919050565b6000819050919050565b61028f8161024a565b811461029a57600080fd5b50565b6102a68161027c565b81146102b157600080fd5b50565b61097780620002c46000396000f3fe6080604052600436106100705760003560e01c80636c0d19441161004e5780636c0d1944146100f45780638c89e6511461011d578063c00a8bff14610146578063d0e30db01461017157610070565b806310ccb04c1461007557806340359b34146100a057806350796022146100c9575b600080fd5b34801561008157600080fd5b5061008a61017b565b60405161009791906106be565b60405180910390f35b3480156100ac57600080fd5b506100c760048036038101906100c29190610577565b61018e565b005b3480156100d557600080fd5b506100de6102a3565b6040516100eb9190610688565b60405180910390f35b34801561010057600080fd5b5061011b600480360381019061011691906105a0565b6102b6565b005b34801561012957600080fd5b50610144600480360381019061013f91906105c9565b610397565b005b34801561015257600080fd5b5061015b610447565b60405161016891906106a3565b60405180910390f35b61017961045a565b005b600360009054906101000a900460ff1681565b600260038111156101c8577f4e487b7100000000000000000000000000000000000000000000000000000000600052602160045260246000fd5b600360009054906101000a900460ff166003811115610210577f4e487b7100000000000000000000000000000000000000000000000000000000600052602160045260246000fd5b14610250576040517f08c379a0000000000000000000000000000000000000000000000000000000008152600401610247906106f9565b60405180910390fd5b80600360016101000a81548160ff0219169083600281111561029b577f4e487b7100000000000000000000000000000000000000000000000000000000600052602160045260246000fd5b021790555050565b600360019054906101000a900460ff1681565b60008054906101000a900473ffffffffffffffffffffffffffffffffffffffff1673ffffffffffffffffffffffffffffffffffffffff163373ffffffffffffffffffffffffffffffffffffffff1614610344576040517f08c379a000000000000000000000000000000000000000000000000000000000815260040161033b906106d9565b60405180910390fd5b80600360026101000a81548160ff0219169083600581111561038f577f4e487b7100000000000000000000000000000000000000000000000000000000600052602160045260246000fd5b021790555050565b80600360006101000a81548160ff021916908360038111156103e2577f4e487b7100000000000000000000000000000000000000000000000000000000600052602160045260246000fd5b02179055503073ffffffffffffffffffffffffffffffffffffffff167f42e61e3c4e439fdecc3d22a276d1291d711d1d2f97418fcf47e4b08222e28cc4600360009054906101000a900460ff1660405161043c91906106be565b60405180910390a250565b600360029054906101000a900460ff1681565b60008054906101000a900473ffffffffffffffffffffffffffffffffffffffff1673ffffffffffffffffffffffffffffffffffffffff163373ffffffffffffffffffffffffffffffffffffffff16146104e8576040517f08c379a00000000000000000000000000000000000000000000000000000000081526004016104df906106d9565b60405180910390fd5b60038054906101000a900460ff1615610536576040517f08c379a000000000000000000000000000000000000000000000000000000000815260040161052d90610719565b60405180910390fd5b565b60008135905061054781610911565b92915050565b60008135905061055c81610921565b92915050565b60008135905061057181610931565b92915050565b60006020828403121561058957600080fd5b600061059784828501610538565b91505092915050565b6000602082840312156105b257600080fd5b60006105c08482850161054d565b91505092915050565b6000602082840312156105db57600080fd5b60006105e984828501610562565b91505092915050565b6105fb81610783565b82525050565b61060a81610795565b82525050565b610619816107a7565b82525050565b600061062c601e83610739565b9150610637826107e8565b602082019050919050565b600061064f604183610739565b915061065a82610811565b606082019050919050565b6000610672602483610739565b915061067d82610886565b604082019050919050565b600060208201905061069d60008301846105f2565b92915050565b60006020820190506106b86000830184610601565b92915050565b60006020820190506106d36000830184610610565b92915050565b600060208201905081810360008301526106f28161061f565b9050919050565b6000602082019050818103600083015261071281610642565b9050919050565b6000602082019050818103600083015261073281610665565b9050919050565b600082825260208201905092915050565b6000819050610758826108d5565b919050565b600081905061076b826108e9565b919050565b600081905061077e826108fd565b919050565b600061078e8261074a565b9050919050565b60006107a08261075d565b9050919050565b60006107b282610770565b9050919050565b7f4e487b7100000000000000000000000000000000000000000000000000000000600052602160045260246000fd5b7f4f6e6c792074686520636c69656e742063616e2063616c6c20746869732e0000600082015250565b7f54686520636f6e7472616374206e6f74206265656e206d61726b65642061732060008201527f636f6d706c657465642062792074686520736572766963652070726f7669646560208201527f7200000000000000000000000000000000000000000000000000000000000000604082015250565b7f41677265656d656e742068617320616c7265616479206265656e2066756c666960008201527f6c6c656400000000000000000000000000000000000000000000000000000000602082015250565b600381106108e6576108e56107b9565b5b50565b600681106108fa576108f96107b9565b5b50565b6004811061090e5761090d6107b9565b5b50565b6003811061091e57600080fd5b50565b6006811061092e57600080fd5b50565b6004811061093e57600080fd5b5056fea2646970667358221220bec2696dbf238d862ada6765ad81faa54a41ec2fee5610be8bd5115321e27e1c64736f6c63430008040033",
  "linkReferences": {},
  "deployedLinkReferences": {}
}