{
  "_format": "hh-sol-artifact-1",
  "contractName": "ServiceManager",
  "sourceName": "contracts/ServiceManager.sol",
  "abi": [
    {
      "anonymous": false,
      "inputs": [
        {
          "indexed": false,
          "internalType": "string",
          "name": "message",
          "type": "string"
        }
      ],
      "name": "ErrorNotice",
      "type": "event"
    },
    {
      "anonymous": false,
      "inputs": [
        {
          "indexed": false,
          "internalType": "bytes",
          "name": "data",
          "type": "bytes"
        }
      ],
      "name": "ErrorNoticeBytes",
      "type": "event"
    },
    {
      "anonymous": false,
      "inputs": [
        {
          "indexed": true,
          "internalType": "address",
          "name": "client",
          "type": "address"
        },
        {
          "indexed": true,
          "internalType": "address",
          "name": "provider",
          "type": "address"
        },
        {
          "indexed": false,
          "internalType": "address",
          "name": "agreementAddress",
          "type": "address"
        }
      ],
      "name": "NewAgreement",
      "type": "event"
    },
    {
      "anonymous": false,
      "inputs": [
        {
          "indexed": true,
          "internalType": "address",
          "name": "owner",
          "type": "address"
        }
      ],
      "name": "RegisteredServiceProvider",
      "type": "event"
    },
    {
      "inputs": [
        {
          "internalType": "string",
          "name": "_companyName",
          "type": "string"
        },
        {
          "internalType": "string",
          "name": "_email",
          "type": "string"
        },
        {
          "internalType": "string",
          "name": "_phone",
          "type": "string"
        },
        {
          "internalType": "uint256",
          "name": "_serviceAmount",
          "type": "uint256"
        },
        {
          "internalType": "enum ServiceManager.ServiceCategory",
          "name": "_serviceCategory",
          "type": "uint8"
        }
      ],
      "name": "createNewServiceProvider",
      "outputs": [],
      "stateMutability": "nonpayable",
      "type": "function"
    },
    {
      "inputs": [
        {
          "internalType": "address",
          "name": "_provider",
          "type": "address"
        }
      ],
      "name": "createServiceAgreement",
      "outputs": [],
      "stateMutability": "nonpayable",
      "type": "function"
    },
    {
      "inputs": [
        {
          "internalType": "address",
          "name": "_clientAddress",
          "type": "address"
        }
      ],
      "name": "getClientServiceAgreements",
      "outputs": [
        {
          "internalType": "address[]",
          "name": "",
          "type": "address[]"
        }
      ],
      "stateMutability": "view",
      "type": "function"
    },
    {
      "inputs": [
        {
          "internalType": "address",
          "name": "_providerAddress",
          "type": "address"
        }
      ],
      "name": "getProviderServiceAgreements",
      "outputs": [
        {
          "internalType": "address[]",
          "name": "",
          "type": "address[]"
        }
      ],
      "stateMutability": "view",
      "type": "function"
    },
    {
      "inputs": [
        {
          "internalType": "address",
          "name": "_address",
          "type": "address"
        }
      ],
      "name": "getServiceProviders",
      "outputs": [
        {
          "components": [
            {
              "internalType": "address",
              "name": "owner",
              "type": "address"
            },
            {
              "internalType": "string",
              "name": "companyName",
              "type": "string"
            },
            {
              "internalType": "string",
              "name": "email",
              "type": "string"
            },
            {
              "internalType": "string",
              "name": "phone",
              "type": "string"
            },
            {
              "internalType": "uint256",
              "name": "serviceAmount",
              "type": "uint256"
            },
            {
              "internalType": "enum ServiceManager.ServiceCategory",
              "name": "serviceCategory",
              "type": "uint8"
            },
            {
              "internalType": "uint256",
              "name": "index",
              "type": "uint256"
            }
          ],
          "internalType": "struct ServiceManager.ServiceProvider",
          "name": "",
          "type": "tuple"
        }
      ],
      "stateMutability": "view",
      "type": "function"
    },
    {
      "inputs": [],
      "name": "getServiceProviders",
      "outputs": [
        {
          "components": [
            {
              "internalType": "address",
              "name": "owner",
              "type": "address"
            },
            {
              "internalType": "string",
              "name": "companyName",
              "type": "string"
            },
            {
              "internalType": "string",
              "name": "email",
              "type": "string"
            },
            {
              "internalType": "string",
              "name": "phone",
              "type": "string"
            },
            {
              "internalType": "uint256",
              "name": "serviceAmount",
              "type": "uint256"
            },
            {
              "internalType": "enum ServiceManager.ServiceCategory",
              "name": "serviceCategory",
              "type": "uint8"
            },
            {
              "internalType": "uint256",
              "name": "index",
              "type": "uint256"
            }
          ],
          "internalType": "struct ServiceManager.ServiceProvider[]",
          "name": "",
          "type": "tuple[]"
        }
      ],
      "stateMutability": "view",
      "type": "function"
    },
    {
      "inputs": [
        {
          "internalType": "address",
          "name": "",
          "type": "address"
        }
      ],
      "name": "serviceProviders",
      "outputs": [
        {
          "internalType": "address",
          "name": "owner",
          "type": "address"
        },
        {
          "internalType": "string",
          "name": "companyName",
          "type": "string"
        },
        {
          "internalType": "string",
          "name": "email",
          "type": "string"
        },
        {
          "internalType": "string",
          "name": "phone",
          "type": "string"
        },
        {
          "internalType": "uint256",
          "name": "serviceAmount",
          "type": "uint256"
        },
        {
          "internalType": "enum ServiceManager.ServiceCategory",
          "name": "serviceCategory",
          "type": "uint8"
        },
        {
          "internalType": "uint256",
          "name": "index",
          "type": "uint256"
        }
      ],
      "stateMutability": "view",
      "type": "function"
    }
  ],
  "bytecode": "0x608060405234801561001057600080fd5b50613e73806100206000396000f3fe60806040523480156200001157600080fd5b5060043610620000885760003560e01c80636a0f4dd011620000635780636a0f4dd0146200011b5780639f92333d1462000157578063b0edda561462000177578063c35eb8da14620001ad5762000088565b8063224681f2146200008d57806341caa43e14620000c3578063589b695e14620000e5575b600080fd5b620000ab6004803603810190620000a59190620018b1565b620001cd565b604051620000ba919062001ffe565b60405180910390f35b620000cd6200064d565b604051620000dc919062001f0a565b60405180910390f35b620001036004803603810190620000fd9190620018b1565b62000b0b565b60405162000112919062001ee6565b60405180910390f35b620001396004803603810190620001339190620018b1565b62000bda565b6040516200014e979695949392919062001e54565b60405180910390f35b6200017560048036038101906200016f9190620018b1565b62000df9565b005b6200019560048036038101906200018f9190620018b1565b62001350565b604051620001a4919062001ee6565b60405180910390f35b620001cb6004803603810190620001c59190620018dd565b6200141f565b005b620001d7620016b0565b816000600180549050141562000224576040517f08c379a00000000000000000000000000000000000000000000000000000000081526004016200021b9062001fdc565b60405180910390fd5b8073ffffffffffffffffffffffffffffffffffffffff1660016000808473ffffffffffffffffffffffffffffffffffffffff1673ffffffffffffffffffffffffffffffffffffffff1681526020019081526020016000206006015481548110620002b7577f4e487b7100000000000000000000000000000000000000000000000000000000600052603260045260246000fd5b9060005260206000200160009054906101000a900473ffffffffffffffffffffffffffffffffffffffff1673ffffffffffffffffffffffffffffffffffffffff16146200033b576040517f08c379a0000000000000000000000000000000000000000000000000000000008152600401620003329062001f98565b60405180910390fd5b6000808473ffffffffffffffffffffffffffffffffffffffff1673ffffffffffffffffffffffffffffffffffffffff1681526020019081526020016000206040518060e00160405290816000820160009054906101000a900473ffffffffffffffffffffffffffffffffffffffff1673ffffffffffffffffffffffffffffffffffffffff1673ffffffffffffffffffffffffffffffffffffffff168152602001600182018054620003ec9062002223565b80601f01602080910402602001604051908101604052809291908181526020018280546200041a9062002223565b80156200046b5780601f106200043f576101008083540402835291602001916200046b565b820191906000526020600020905b8154815290600101906020018083116200044d57829003601f168201915b50505050508152602001600282018054620004869062002223565b80601f0160208091040260200160405190810160405280929190818152602001828054620004b49062002223565b8015620005055780601f10620004d95761010080835404028352916020019162000505565b820191906000526020600020905b815481529060010190602001808311620004e757829003601f168201915b50505050508152602001600382018054620005209062002223565b80601f01602080910402602001604051908101604052809291908181526020018280546200054e9062002223565b80156200059f5780601f1062000573576101008083540402835291602001916200059f565b820191906000526020600020905b8154815290600101906020018083116200058157829003601f168201915b50505050508152602001600482015481526020016005820160009054906101000a900460ff166004811115620005fe577f4e487b7100000000000000000000000000000000000000000000000000000000600052602160045260246000fd5b600481111562000637577f4e487b7100000000000000000000000000000000000000000000000000000000600052602160045260246000fd5b8152602001600682015481525050915050919050565b6060600060018054905067ffffffffffffffff81111562000697577f4e487b7100000000000000000000000000000000000000000000000000000000600052604160045260246000fd5b604051908082528060200260200182016040528015620006d457816020015b620006c0620016b0565b815260200190600190039081620006b65790505b50905060005b60018054905081101562000b035760006001828154811062000725577f4e487b7100000000000000000000000000000000000000000000000000000000600052603260045260246000fd5b9060005260206000200160009054906101000a900473ffffffffffffffffffffffffffffffffffffffff1690506000808273ffffffffffffffffffffffffffffffffffffffff1673ffffffffffffffffffffffffffffffffffffffff1681526020019081526020016000206006015482141562000aec576000808273ffffffffffffffffffffffffffffffffffffffff1673ffffffffffffffffffffffffffffffffffffffff1681526020019081526020016000206040518060e00160405290816000820160009054906101000a900473ffffffffffffffffffffffffffffffffffffffff1673ffffffffffffffffffffffffffffffffffffffff1673ffffffffffffffffffffffffffffffffffffffff1681526020016001820180546200084d9062002223565b80601f01602080910402602001604051908101604052809291908181526020018280546200087b9062002223565b8015620008cc5780601f10620008a057610100808354040283529160200191620008cc565b820191906000526020600020905b815481529060010190602001808311620008ae57829003601f168201915b50505050508152602001600282018054620008e79062002223565b80601f0160208091040260200160405190810160405280929190818152602001828054620009159062002223565b8015620009665780601f106200093a5761010080835404028352916020019162000966565b820191906000526020600020905b8154815290600101906020018083116200094857829003601f168201915b50505050508152602001600382018054620009819062002223565b80601f0160208091040260200160405190810160405280929190818152602001828054620009af9062002223565b801562000a005780601f10620009d45761010080835404028352916020019162000a00565b820191906000526020600020905b815481529060010190602001808311620009e257829003601f168201915b50505050508152602001600482015481526020016005820160009054906101000a900460ff16600481111562000a5f577f4e487b7100000000000000000000000000000000000000000000000000000000600052602160045260246000fd5b600481111562000a98577f4e487b7100000000000000000000000000000000000000000000000000000000600052602160045260246000fd5b815260200160068201548152505083838151811062000ae0577f4e487b7100000000000000000000000000000000000000000000000000000000600052603260045260246000fd5b60200260200101819052505b50808062000afa906200228f565b915050620006da565b508091505090565b6060600360008373ffffffffffffffffffffffffffffffffffffffff1673ffffffffffffffffffffffffffffffffffffffff16815260200190815260200160002080548060200260200160405190810160405280929190818152602001828054801562000bce57602002820191906000526020600020905b8160009054906101000a900473ffffffffffffffffffffffffffffffffffffffff1673ffffffffffffffffffffffffffffffffffffffff168152602001906001019080831162000b83575b50505050509050919050565b60006020528060005260406000206000915090508060000160009054906101000a900473ffffffffffffffffffffffffffffffffffffffff169080600101805462000c259062002223565b80601f016020809104026020016040519081016040528092919081815260200182805462000c539062002223565b801562000ca45780601f1062000c785761010080835404028352916020019162000ca4565b820191906000526020600020905b81548152906001019060200180831162000c8657829003601f168201915b50505050509080600201805462000cbb9062002223565b80601f016020809104026020016040519081016040528092919081815260200182805462000ce99062002223565b801562000d3a5780601f1062000d0e5761010080835404028352916020019162000d3a565b820191906000526020600020905b81548152906001019060200180831162000d1c57829003601f168201915b50505050509080600301805462000d519062002223565b80601f016020809104026020016040519081016040528092919081815260200182805462000d7f9062002223565b801562000dd05780601f1062000da45761010080835404028352916020019162000dd0565b820191906000526020600020905b81548152906001019060200180831162000db257829003601f168201915b5050505050908060040154908060050160009054906101000a900460ff16908060060154905087565b806000600180549050141562000e46576040517f08c379a000000000000000000000000000000000000000000000000000000000815260040162000e3d9062001fdc565b60405180910390fd5b8073ffffffffffffffffffffffffffffffffffffffff1660016000808473ffffffffffffffffffffffffffffffffffffffff1673ffffffffffffffffffffffffffffffffffffffff168152602001908152602001600020600601548154811062000ed9577f4e487b7100000000000000000000000000000000000000000000000000000000600052603260045260246000fd5b9060005260206000200160009054906101000a900473ffffffffffffffffffffffffffffffffffffffff1673ffffffffffffffffffffffffffffffffffffffff161462000f5d576040517f08c379a000000000000000000000000000000000000000000000000000000000815260040162000f549062001f98565b60405180910390fd5b3373ffffffffffffffffffffffffffffffffffffffff168273ffffffffffffffffffffffffffffffffffffffff16141562000fcf576040517f08c379a000000000000000000000000000000000000000000000000000000000815260040162000fc69062001fba565b60405180910390fd5b60008060008473ffffffffffffffffffffffffffffffffffffffff1673ffffffffffffffffffffffffffffffffffffffff168152602001908152602001600020600401549050803373ffffffffffffffffffffffffffffffffffffffff1631101562001072576040517f08c379a0000000000000000000000000000000000000000000000000000000008152600401620010699062001f76565b60405180910390fd5b33838260405162001083906200173c565b620010919392919062001e17565b604051809103906000f08015620010a55760015b6200119057620010b462002399565b806308c379a01415620011195750620010cc620024a6565b80620010d957506200111b565b7fe5307846deb3ee14462a061cebc519cf970b90c5ef543f6a1c5de0511d3aecc5816040516200110a919062001f52565b60405180910390a1506200118a565b505b3d806000811462001149576040519150601f19603f3d011682016040523d82523d6000602084013e6200114e565b606091505b507f1528223f78b06a05b19325bfb9796bc977e6fdd9bf004652ec38c31c5daf36fd8160405162001180919062001f2e565b60405180910390a1505b6200134b565b60008190506000600260003373ffffffffffffffffffffffffffffffffffffffff1673ffffffffffffffffffffffffffffffffffffffff168152602001908152602001600020905080829080600181540180825580915050600190039060005260206000200160009091909190916101000a81548173ffffffffffffffffffffffffffffffffffffffff021916908373ffffffffffffffffffffffffffffffffffffffff1602179055506000600360008873ffffffffffffffffffffffffffffffffffffffff1673ffffffffffffffffffffffffffffffffffffffff168152602001908152602001600020905080839080600181540180825580915050600190039060005260206000200160009091909190916101000a81548173ffffffffffffffffffffffffffffffffffffffff021916908373ffffffffffffffffffffffffffffffffffffffff1602179055508673ffffffffffffffffffffffffffffffffffffffff163373ffffffffffffffffffffffffffffffffffffffff167f5f080cc5e67992497ccc441e5f4a10e233f647c8af9713f56a96217ee648b395856040516200133e919062001dfa565b60405180910390a3505050505b505050565b6060600260008373ffffffffffffffffffffffffffffffffffffffff1673ffffffffffffffffffffffffffffffffffffffff1681526020019081526020016000208054806020026020016040519081016040528092919081815260200182805480156200141357602002820191906000526020600020905b8160009054906101000a900473ffffffffffffffffffffffffffffffffffffffff1673ffffffffffffffffffffffffffffffffffffffff1681526020019060010190808311620013c8575b50505050509050919050565b6001339080600181540180825580915050600190039060005260206000200160009091909190916101000a81548173ffffffffffffffffffffffffffffffffffffffff021916908373ffffffffffffffffffffffffffffffffffffffff1602179055506040518060e001604052803373ffffffffffffffffffffffffffffffffffffffff168152602001868152602001858152602001848152602001838152602001826004811115620014fb577f4e487b7100000000000000000000000000000000000000000000000000000000600052602160045260246000fd5b8152602001600180805490506200151391906200213c565b8152506000803373ffffffffffffffffffffffffffffffffffffffff1673ffffffffffffffffffffffffffffffffffffffff16815260200190815260200160002060008201518160000160006101000a81548173ffffffffffffffffffffffffffffffffffffffff021916908373ffffffffffffffffffffffffffffffffffffffff1602179055506020820151816001019080519060200190620015b99291906200174a565b506040820151816002019080519060200190620015d89291906200174a565b506060820151816003019080519060200190620015f79291906200174a565b506080820151816004015560a08201518160050160006101000a81548160ff0219169083600481111562001654577f4e487b7100000000000000000000000000000000000000000000000000000000600052602160045260246000fd5b021790555060c082015181600601559050503373ffffffffffffffffffffffffffffffffffffffff167ffa4762bb004b0d40b9a4a49be5647a0a6657f46f59e3827d2c0b3d3c4c5eab2a60405160405180910390a25050505050565b6040518060e00160405280600073ffffffffffffffffffffffffffffffffffffffff16815260200160608152602001606081526020016060815260200160008152602001600060048111156200172f577f4e487b7100000000000000000000000000000000000000000000000000000000600052602160045260246000fd5b8152602001600081525090565b61189980620025a583390190565b828054620017589062002223565b90600052602060002090601f0160209004810192826200177c5760008555620017c8565b82601f106200179757805160ff1916838001178555620017c8565b82800160010185558215620017c8579182015b82811115620017c7578251825591602001919060010190620017aa565b5b509050620017d79190620017db565b5090565b5b80821115620017f6576000816000905550600101620017dc565b5090565b6000620018116200180b846200204b565b62002022565b9050828152602081018484840111156200182a57600080fd5b62001837848285620021de565b509392505050565b60008135905062001850816200255f565b92915050565b600081359050620018678162002579565b92915050565b600082601f8301126200187f57600080fd5b813562001891848260208601620017fa565b91505092915050565b600081359050620018ab816200258a565b92915050565b600060208284031215620018c457600080fd5b6000620018d4848285016200183f565b91505092915050565b600080600080600060a08688031215620018f657600080fd5b600086013567ffffffffffffffff8111156200191157600080fd5b6200191f888289016200186d565b955050602086013567ffffffffffffffff8111156200193d57600080fd5b6200194b888289016200186d565b945050604086013567ffffffffffffffff8111156200196957600080fd5b62001977888289016200186d565b93505060606200198a888289016200189a565b92505060806200199d8882890162001856565b9150509295509295909350565b6000620019b88383620019da565b60208301905092915050565b6000620019d2838362001c68565b905092915050565b620019e58162002177565b82525050565b620019f68162002177565b82525050565b600062001a0982620020a1565b62001a158185620020e7565b935062001a228362002081565b8060005b8381101562001a5957815162001a3d8882620019aa565b975062001a4a83620020cd565b92505060018101905062001a26565b5085935050505092915050565b600062001a7382620020ac565b62001a7f8185620020f8565b93508360208202850162001a938562002091565b8060005b8581101562001ad5578484038952815162001ab38582620019c4565b945062001ac083620020da565b925060208a0199505060018101905062001a97565b50829750879550505050505092915050565b600062001af482620020b7565b62001b00818562002109565b935062001b12818560208601620021ed565b62001b1d81620023be565b840191505092915050565b62001b3381620021ca565b82525050565b62001b4481620021ca565b82525050565b600062001b5782620020c2565b62001b6381856200211a565b935062001b75818560208601620021ed565b62001b8081620023be565b840191505092915050565b600062001b9882620020c2565b62001ba481856200212b565b935062001bb6818560208601620021ed565b62001bc181620023be565b840191505092915050565b600062001bdb6012836200212b565b915062001be882620023dc565b602082019050919050565b600062001c02601f836200212b565b915062001c0f8262002405565b602082019050919050565b600062001c296038836200212b565b915062001c36826200242e565b604082019050919050565b600062001c506014836200212b565b915062001c5d826200247d565b602082019050919050565b600060e08301600083015162001c826000860182620019da565b506020830151848203602086015262001c9c828262001b4a565b9150506040830151848203604086015262001cb8828262001b4a565b9150506060830151848203606086015262001cd4828262001b4a565b915050608083015162001ceb608086018262001dd8565b5060a083015162001d0060a086018262001b28565b5060c083015162001d1560c086018262001dd8565b508091505092915050565b600060e08301600083015162001d3a6000860182620019da565b506020830151848203602086015262001d54828262001b4a565b9150506040830151848203604086015262001d70828262001b4a565b9150506060830151848203606086015262001d8c828262001b4a565b915050608083015162001da3608086018262001dd8565b5060a083015162001db860a086018262001b28565b5060c083015162001dcd60c086018262001dd8565b508091505092915050565b62001de381620021c0565b82525050565b62001df481620021c0565b82525050565b600060208201905062001e116000830184620019eb565b92915050565b600060608201905062001e2e6000830186620019eb565b62001e3d6020830185620019eb565b62001e4c604083018462001de9565b949350505050565b600060e08201905062001e6b600083018a620019eb565b818103602083015262001e7f818962001b8b565b9050818103604083015262001e95818862001b8b565b9050818103606083015262001eab818762001b8b565b905062001ebc608083018662001de9565b62001ecb60a083018562001b39565b62001eda60c083018462001de9565b98975050505050505050565b6000602082019050818103600083015262001f028184620019fc565b905092915050565b6000602082019050818103600083015262001f26818462001a66565b905092915050565b6000602082019050818103600083015262001f4a818462001ae7565b905092915050565b6000602082019050818103600083015262001f6e818462001b8b565b905092915050565b6000602082019050818103600083015262001f918162001bcc565b9050919050565b6000602082019050818103600083015262001fb38162001bf3565b9050919050565b6000602082019050818103600083015262001fd58162001c1a565b9050919050565b6000602082019050818103600083015262001ff78162001c41565b9050919050565b600060208201905081810360008301526200201a818462001d20565b905092915050565b60006200202e62002041565b90506200203c828262002259565b919050565b6000604051905090565b600067ffffffffffffffff8211156200206957620020686200236a565b5b6200207482620023be565b9050602081019050919050565b6000819050602082019050919050565b6000819050602082019050919050565b600081519050919050565b600081519050919050565b600081519050919050565b600081519050919050565b6000602082019050919050565b6000602082019050919050565b600082825260208201905092915050565b600082825260208201905092915050565b600082825260208201905092915050565b600082825260208201905092915050565b600082825260208201905092915050565b60006200214982620021c0565b91506200215683620021c0565b9250828210156200216c576200216b620022dd565b5b828203905092915050565b60006200218482620021a0565b9050919050565b60008190506200219b8262002548565b919050565b600073ffffffffffffffffffffffffffffffffffffffff82169050919050565b6000819050919050565b6000620021d7826200218b565b9050919050565b82818337600083830152505050565b60005b838110156200220d578082015181840152602081019050620021f0565b838111156200221d576000848401525b50505050565b600060028204905060018216806200223c57607f821691505b602082108114156200225357620022526200233b565b5b50919050565b6200226482620023be565b810181811067ffffffffffffffff821117156200228657620022856200236a565b5b80604052505050565b60006200229c82620021c0565b91507fffffffffffffffffffffffffffffffffffffffffffffffffffffffffffffffff821415620022d257620022d1620022dd565b5b600182019050919050565b7f4e487b7100000000000000000000000000000000000000000000000000000000600052601160045260246000fd5b7f4e487b7100000000000000000000000000000000000000000000000000000000600052602160045260246000fd5b7f4e487b7100000000000000000000000000000000000000000000000000000000600052602260045260246000fd5b7f4e487b7100000000000000000000000000000000000000000000000000000000600052604160045260246000fd5b600060033d1115620023bb5760046000803e620023b8600051620023cf565b90505b90565b6000601f19601f8301169050919050565b60008160e01c9050919050565b7f496e73756666696369656e742066756e64730000000000000000000000000000600082015250565b7f536572766963652050726f766964657220646f6573206e6f7420657869737400600082015250565b7f50726f76696465722063616e6e6f74206372656174652073657276696365206160008201527f677265656d656e742077697468207468656d73656c7665730000000000000000602082015250565b7f4e6f20536572766963652050726f766964657273000000000000000000000000600082015250565b600060443d1015620024b85762002545565b620024c262002041565b60043d036004823e80513d602482011167ffffffffffffffff82111715620024ec57505062002545565b808201805167ffffffffffffffff8111156200250c575050505062002545565b80602083010160043d0385018111156200252b57505050505062002545565b6200253c8260200185018662002259565b82955050505050505b90565b600581106200255c576200255b6200230c565b5b50565b6200256a8162002177565b81146200257657600080fd5b50565b600581106200258757600080fd5b50565b6200259581620021c0565b8114620025a157600080fd5b5056fe60806040523480156200001157600080fd5b506040516200189938038062001899833981810160405281019062000037919062000206565b826000806101000a81548173ffffffffffffffffffffffffffffffffffffffff021916908373ffffffffffffffffffffffffffffffffffffffff16021790555081600160006101000a81548173ffffffffffffffffffffffffffffffffffffffff021916908373ffffffffffffffffffffffffffffffffffffffff160217905550806002819055506000600360006101000a81548160ff021916908360038111156200010c577f4e487b7100000000000000000000000000000000000000000000000000000000600052602160045260246000fd5b02179055506000600360016101000a81548160ff021916908360028111156200015e577f4e487b7100000000000000000000000000000000000000000000000000000000600052602160045260246000fd5b02179055506000600360026101000a81548160ff02191690836005811115620001b0577f4e487b7100000000000000000000000000000000000000000000000000000000600052602160045260246000fd5b021790555060006003806101000a81548160ff021916908315150217905550505050620002ce565b600081519050620001e9816200029a565b92915050565b6000815190506200020081620002b4565b92915050565b6000806000606084860312156200021c57600080fd5b60006200022c86828701620001d8565b93505060206200023f86828701620001d8565b92505060406200025286828701620001ef565b9150509250925092565b6000620002698262000270565b9050919050565b600073ffffffffffffffffffffffffffffffffffffffff82169050919050565b6000819050919050565b620002a5816200025c565b8114620002b157600080fd5b50565b620002bf8162000290565b8114620002cb57600080fd5b50565b6115bb80620002de6000396000f3fe6080604052600436106100915760003560e01c80638a4a69a8116100595780638a4a69a8146101555780638c89e6511461016c578063b4bd778414610195578063c00a8bff146101c7578063d0e30db0146101f257610091565b806310ccb04c1461009657806340359b34146100c157806350796022146100ea578063590e1ae3146101155780636c0d19441461012c575b600080fd5b3480156100a257600080fd5b506100ab6101fc565b6040516100b89190610fef565b60405180910390f35b3480156100cd57600080fd5b506100e860048036038101906100e39190610c99565b61020f565b005b3480156100f657600080fd5b506100ff610324565b60405161010c9190610f82565b60405180910390f35b34801561012157600080fd5b5061012a610337565b005b34801561013857600080fd5b50610153600480360381019061014e9190610cc2565b610544565b005b34801561016157600080fd5b5061016a610625565b005b34801561017857600080fd5b50610193600480360381019061018e9190610ceb565b6108c3565b005b3480156101a157600080fd5b506101aa610973565b6040516101be989796959493929190610f04565b60405180910390f35b3480156101d357600080fd5b506101dc610a1f565b6040516101e99190610f9d565b60405180910390f35b6101fa610a32565b005b600360009054906101000a900460ff1681565b60026003811115610249577f4e487b7100000000000000000000000000000000000000000000000000000000600052602160045260246000fd5b600360009054906101000a900460ff166003811115610291577f4e487b7100000000000000000000000000000000000000000000000000000000600052602160045260246000fd5b146102d1576040517f08c379a00000000000000000000000000000000000000000000000000000000081526004016102c89061108a565b60405180910390fd5b80600360016101000a81548160ff0219169083600281111561031c577f4e487b7100000000000000000000000000000000000000000000000000000000600052602160045260246000fd5b021790555050565b600360019054906101000a900460ff1681565b60008054906101000a900473ffffffffffffffffffffffffffffffffffffffff1673ffffffffffffffffffffffffffffffffffffffff163373ffffffffffffffffffffffffffffffffffffffff16146103c5576040517f08c379a00000000000000000000000000000000000000000000000000000000081526004016103bc9061112a565b60405180910390fd5b60038054906101000a900460ff1615610413576040517f08c379a000000000000000000000000000000000000000000000000000000000815260040161040a906110ea565b60405180910390fd5b60038081111561044c577f4e487b7100000000000000000000000000000000000000000000000000000000600052602160045260246000fd5b600360009054906101000a900460ff166003811115610494577f4e487b7100000000000000000000000000000000000000000000000000000000600052602160045260246000fd5b146104d4576040517f08c379a00000000000000000000000000000000000000000000000000000000081526004016104cb906110ca565b60405180910390fd5b6000471015610518576040517f08c379a000000000000000000000000000000000000000000000000000000000815260040161050f9061100a565b60405180910390fd5b61054260008054906101000a900473ffffffffffffffffffffffffffffffffffffffff1647610b10565b565b60008054906101000a900473ffffffffffffffffffffffffffffffffffffffff1673ffffffffffffffffffffffffffffffffffffffff163373ffffffffffffffffffffffffffffffffffffffff16146105d2576040517f08c379a00000000000000000000000000000000000000000000000000000000081526004016105c99061112a565b60405180910390fd5b80600360026101000a81548160ff0219169083600581111561061d577f4e487b7100000000000000000000000000000000000000000000000000000000600052602160045260246000fd5b021790555050565b600160009054906101000a900473ffffffffffffffffffffffffffffffffffffffff1673ffffffffffffffffffffffffffffffffffffffff163373ffffffffffffffffffffffffffffffffffffffff16146106b5576040517f08c379a00000000000000000000000000000000000000000000000000000000081526004016106ac9061102a565b60405180910390fd5b60038054906101000a900460ff1615610703576040517f08c379a00000000000000000000000000000000000000000000000000000000081526004016106fa906110ea565b60405180910390fd5b600254471015610748576040517f08c379a000000000000000000000000000000000000000000000000000000000815260040161073f9061104a565b60405180910390fd5b60026003811115610782577f4e487b7100000000000000000000000000000000000000000000000000000000600052602160045260246000fd5b600360009054906101000a900460ff1660038111156107ca577f4e487b7100000000000000000000000000000000000000000000000000000000600052602160045260246000fd5b14801561085657506001600281111561080c577f4e487b7100000000000000000000000000000000000000000000000000000000600052602160045260246000fd5b600360019054906101000a900460ff166002811115610854577f4e487b7100000000000000000000000000000000000000000000000000000000600052602160045260246000fd5b145b610895576040517f08c379a000000000000000000000000000000000000000000000000000000000815260040161088c906110aa565b60405180910390fd5b6108c1600160009054906101000a900473ffffffffffffffffffffffffffffffffffffffff1647610b10565b565b80600360006101000a81548160ff0219169083600381111561090e577f4e487b7100000000000000000000000000000000000000000000000000000000600052602160045260246000fd5b02179055503073ffffffffffffffffffffffffffffffffffffffff167f42e61e3c4e439fdecc3d22a276d1291d711d1d2f97418fcf47e4b08222e28cc4600360009054906101000a900460ff166040516109689190610fef565b60405180910390a250565b60008060008060008060008060008054906101000a900473ffffffffffffffffffffffffffffffffffffffff16600160009054906101000a900473ffffffffffffffffffffffffffffffffffffffff1647600360009054906101000a900460ff16600360019054906101000a900460ff16600360029054906101000a900460ff1660038054906101000a900460ff16600254975097509750975097509750975097509091929394959697565b600360029054906101000a900460ff1681565b60008054906101000a900473ffffffffffffffffffffffffffffffffffffffff1673ffffffffffffffffffffffffffffffffffffffff163373ffffffffffffffffffffffffffffffffffffffff1614610ac0576040517f08c379a0000000000000000000000000000000000000000000000000000000008152600401610ab79061112a565b60405180910390fd5b60038054906101000a900460ff1615610b0e576040517f08c379a0000000000000000000000000000000000000000000000000000000008152600401610b059061110a565b60405180910390fd5b565b60016003806101000a81548160ff0219169083151502179055503073ffffffffffffffffffffffffffffffffffffffff167fe4cba55b7670d81288cb513047c736b2465ad19fc9806a75a88ecb6e383e6022600360029054906101000a900460ff16600360019054906101000a900460ff16600360009054906101000a900460ff16604051610ba193929190610fb8565b60405180910390a260008273ffffffffffffffffffffffffffffffffffffffff1682604051610bcf90610eef565b60006040518083038185875af1925050503d8060008114610c0c576040519150601f19603f3d011682016040523d82523d6000602084013e610c11565b606091505b5050905080610c55576040517f08c379a0000000000000000000000000000000000000000000000000000000008152600401610c4c9061106a565b60405180910390fd5b505050565b600081359050610c6981611555565b92915050565b600081359050610c7e81611565565b92915050565b600081359050610c9381611575565b92915050565b600060208284031215610cab57600080fd5b6000610cb984828501610c5a565b91505092915050565b600060208284031215610cd457600080fd5b6000610ce284828501610c6f565b91505092915050565b600060208284031215610cfd57600080fd5b6000610d0b84828501610c84565b91505092915050565b610d1d81611166565b82525050565b610d2c81611178565b82525050565b610d3b816111e7565b82525050565b610d4a816111f9565b82525050565b610d598161120b565b82525050565b6000610d6c601b83611155565b9150610d778261124c565b602082019050919050565b6000610d8f602783611155565b9150610d9a82611275565b604082019050919050565b6000610db2602d83611155565b9150610dbd826112c4565b604082019050919050565b6000610dd5601583611155565b9150610de082611313565b602082019050919050565b6000610df8604183611155565b9150610e038261133c565b606082019050919050565b6000610e1b602483611155565b9150610e26826113b1565b604082019050919050565b6000610e3e603683611155565b9150610e4982611400565b604082019050919050565b6000610e6160008361114a565b9150610e6c8261144f565b600082019050919050565b6000610e84603683611155565b9150610e8f82611452565b604082019050919050565b6000610ea7602483611155565b9150610eb2826114a1565b604082019050919050565b6000610eca601d83611155565b9150610ed5826114f0565b602082019050919050565b610ee9816111dd565b82525050565b6000610efa82610e54565b9150819050919050565b600061010082019050610f1a600083018b610d14565b610f27602083018a610d14565b610f346040830189610ee0565b610f416060830188610d50565b610f4e6080830187610d32565b610f5b60a0830186610d41565b610f6860c0830185610d23565b610f7560e0830184610ee0565b9998505050505050505050565b6000602082019050610f976000830184610d32565b92915050565b6000602082019050610fb26000830184610d41565b92915050565b6000606082019050610fcd6000830186610d41565b610fda6020830185610d32565b610fe76040830184610d50565b949350505050565b60006020820190506110046000830184610d50565b92915050565b6000602082019050818103600083015261102381610d5f565b9050919050565b6000602082019050818103600083015261104381610d82565b9050919050565b6000602082019050818103600083015261106381610da5565b9050919050565b6000602082019050818103600083015261108381610dc8565b9050919050565b600060208201905081810360008301526110a381610deb565b9050919050565b600060208201905081810360008301526110c381610e0e565b9050919050565b600060208201905081810360008301526110e381610e31565b9050919050565b6000602082019050818103600083015261110381610e77565b9050919050565b6000602082019050818103600083015261112381610e9a565b9050919050565b6000602082019050818103600083015261114381610ebd565b9050919050565b600081905092915050565b600082825260208201905092915050565b6000611171826111bd565b9050919050565b60008115159050919050565b600081905061119282611519565b919050565b60008190506111a58261152d565b919050565b60008190506111b882611541565b919050565b600073ffffffffffffffffffffffffffffffffffffffff82169050919050565b6000819050919050565b60006111f282611184565b9050919050565b600061120482611197565b9050919050565b6000611216826111aa565b9050919050565b7f4e487b7100000000000000000000000000000000000000000000000000000000600052602160045260246000fd5b7f5468657265206973206e6f2066756e647320746f20726566756e640000000000600082015250565b7f4f6e6c792074686520736572766963652050726f76696465722063616e20636160008201527f6c6c207468697300000000000000000000000000000000000000000000000000602082015250565b7f436f6e74726163742062616c616e636520726571756972656d656e742068617360008201527f206e6f74206265656e206d657400000000000000000000000000000000000000602082015250565b7f5472616e7366657220756e7375636365737366756c0000000000000000000000600082015250565b7f54686520636f6e7472616374206e6f74206265656e206d61726b65642061732060008201527f636f6d706c657465642062792074686520736572766963652070726f7669646560208201527f7200000000000000000000000000000000000000000000000000000000000000604082015250565b7f5365727669636520776173206e6f7420636f6d706c657465206f72206170707260008201527f6f76656400000000000000000000000000000000000000000000000000000000602082015250565b7f5468652061677265656d656e7420686173206e6f74206265656e206d61726b6560008201527f642061732057696c6c204e6f7420436f6d706c65746500000000000000000000602082015250565b50565b7f746869732061677265656d656e742068617320616c7265616479206265656e2060008201527f66756c66696c6c6564206f72206e756c6c696669656400000000000000000000602082015250565b7f41677265656d656e742068617320616c7265616479206265656e2066756c666960008201527f6c6c656400000000000000000000000000000000000000000000000000000000602082015250565b7f4f6e6c792074686520636c69656e742063616e2063616c6c2074686973000000600082015250565b6003811061152a5761152961121d565b5b50565b6006811061153e5761153d61121d565b5b50565b600481106115525761155161121d565b5b50565b6003811061156257600080fd5b50565b6006811061157257600080fd5b50565b6004811061158257600080fd5b5056fea2646970667358221220246dbc5cd6b61d2dbd20f51535b0ba06b22de0a0bceb58216a236d850d43100564736f6c63430008040033a26469706673582212206c830e5769999195388283f11cf26e4c956b468762c7115aa0a9cd71a4e898a464736f6c63430008040033",
  "linkReferences": {},
  "deployedLinkReferences": {}
}