{
  "contractName": "ServiceContract",
  "abi": [
    {
      "anonymous": false,
      "inputs": [
        {
          "indexed": false,
          "internalType": "uint256",
          "name": "orderId",
          "type": "uint256"
        }
      ],
      "name": "OrderCompleted",
      "type": "event"
    },
    {
      "anonymous": false,
      "inputs": [
        {
          "indexed": true,
          "internalType": "address",
          "name": "user",
          "type": "address"
        },
        {
          "indexed": false,
          "internalType": "uint256",
          "name": "serviceId",
          "type": "uint256"
        },
        {
          "indexed": false,
          "internalType": "uint256",
          "name": "orderId",
          "type": "uint256"
        }
      ],
      "name": "OrderPlaced",
      "type": "event"
    },
    {
      "anonymous": false,
      "inputs": [
        {
          "indexed": true,
          "internalType": "address",
          "name": "user",
          "type": "address"
        },
        {
          "indexed": false,
          "internalType": "string",
          "name": "name",
          "type": "string"
        }
      ],
      "name": "ServiceAdded",
      "type": "event"
    },
    {
      "anonymous": false,
      "inputs": [
        {
          "indexed": true,
          "internalType": "address",
          "name": "user",
          "type": "address"
        },
        {
          "indexed": false,
          "internalType": "string",
          "name": "name",
          "type": "string"
        }
      ],
      "name": "ServiceDeleted",
      "type": "event"
    },
    {
      "inputs": [],
      "name": "orderCount",
      "outputs": [
        {
          "internalType": "uint256",
          "name": "",
          "type": "uint256"
        }
      ],
      "stateMutability": "view",
      "type": "function",
      "constant": true
    },
    {
      "inputs": [
        {
          "internalType": "uint256",
          "name": "",
          "type": "uint256"
        }
      ],
      "name": "orders",
      "outputs": [
        {
          "internalType": "address",
          "name": "user",
          "type": "address"
        },
        {
          "internalType": "uint256",
          "name": "serviceId",
          "type": "uint256"
        },
        {
          "internalType": "bool",
          "name": "isCompleted",
          "type": "bool"
        }
      ],
      "stateMutability": "view",
      "type": "function",
      "constant": true
    },
    {
      "inputs": [
        {
          "internalType": "uint256",
          "name": "",
          "type": "uint256"
        }
      ],
      "name": "serviceProviders",
      "outputs": [
        {
          "internalType": "address",
          "name": "",
          "type": "address"
        }
      ],
      "stateMutability": "view",
      "type": "function",
      "constant": true
    },
    {
      "inputs": [
        {
          "internalType": "address",
          "name": "",
          "type": "address"
        },
        {
          "internalType": "uint256",
          "name": "",
          "type": "uint256"
        }
      ],
      "name": "services",
      "outputs": [
        {
          "internalType": "string",
          "name": "logo",
          "type": "string"
        },
        {
          "internalType": "string",
          "name": "name",
          "type": "string"
        },
        {
          "internalType": "string",
          "name": "category",
          "type": "string"
        },
        {
          "internalType": "string",
          "name": "addressDetail",
          "type": "string"
        },
        {
          "internalType": "string",
          "name": "phoneNumber",
          "type": "string"
        },
        {
          "internalType": "string",
          "name": "email",
          "type": "string"
        },
        {
          "internalType": "uint256",
          "name": "cost",
          "type": "uint256"
        },
        {
          "internalType": "string",
          "name": "currency",
          "type": "string"
        },
        {
          "internalType": "address",
          "name": "owner",
          "type": "address"
        }
      ],
      "stateMutability": "view",
      "type": "function",
      "constant": true
    },
    {
      "inputs": [
        {
          "internalType": "string",
          "name": "_logo",
          "type": "string"
        },
        {
          "internalType": "string",
          "name": "_name",
          "type": "string"
        },
        {
          "internalType": "string",
          "name": "_category",
          "type": "string"
        },
        {
          "internalType": "string",
          "name": "_addressDetail",
          "type": "string"
        },
        {
          "internalType": "string",
          "name": "_phoneNumber",
          "type": "string"
        },
        {
          "internalType": "string",
          "name": "_email",
          "type": "string"
        },
        {
          "internalType": "uint256",
          "name": "_cost",
          "type": "uint256"
        },
        {
          "internalType": "string",
          "name": "_currency",
          "type": "string"
        }
      ],
      "name": "addService",
      "outputs": [],
      "stateMutability": "nonpayable",
      "type": "function"
    },
    {
      "inputs": [
        {
          "internalType": "address",
          "name": "_user",
          "type": "address"
        }
      ],
      "name": "getServices",
      "outputs": [
        {
          "components": [
            {
              "internalType": "string",
              "name": "logo",
              "type": "string"
            },
            {
              "internalType": "string",
              "name": "name",
              "type": "string"
            },
            {
              "internalType": "string",
              "name": "category",
              "type": "string"
            },
            {
              "internalType": "string",
              "name": "addressDetail",
              "type": "string"
            },
            {
              "internalType": "string",
              "name": "phoneNumber",
              "type": "string"
            },
            {
              "internalType": "string",
              "name": "email",
              "type": "string"
            },
            {
              "internalType": "uint256",
              "name": "cost",
              "type": "uint256"
            },
            {
              "internalType": "string",
              "name": "currency",
              "type": "string"
            },
            {
              "internalType": "address",
              "name": "owner",
              "type": "address"
            }
          ],
          "internalType": "struct ServiceContract.Service[]",
          "name": "",
          "type": "tuple[]"
        }
      ],
      "stateMutability": "view",
      "type": "function",
      "constant": true
    },
    {
      "inputs": [
        {
          "internalType": "uint256",
          "name": "index",
          "type": "uint256"
        }
      ],
      "name": "deleteService",
      "outputs": [],
      "stateMutability": "nonpayable",
      "type": "function"
    },
    {
      "inputs": [],
      "name": "getAllServices",
      "outputs": [
        {
          "components": [
            {
              "internalType": "string",
              "name": "logo",
              "type": "string"
            },
            {
              "internalType": "string",
              "name": "name",
              "type": "string"
            },
            {
              "internalType": "string",
              "name": "category",
              "type": "string"
            },
            {
              "internalType": "string",
              "name": "addressDetail",
              "type": "string"
            },
            {
              "internalType": "string",
              "name": "phoneNumber",
              "type": "string"
            },
            {
              "internalType": "string",
              "name": "email",
              "type": "string"
            },
            {
              "internalType": "uint256",
              "name": "cost",
              "type": "uint256"
            },
            {
              "internalType": "string",
              "name": "currency",
              "type": "string"
            },
            {
              "internalType": "address",
              "name": "owner",
              "type": "address"
            }
          ],
          "internalType": "struct ServiceContract.Service[]",
          "name": "",
          "type": "tuple[]"
        }
      ],
      "stateMutability": "view",
      "type": "function",
      "constant": true
    },
    {
      "inputs": [
        {
          "internalType": "uint256",
          "name": "serviceId",
          "type": "uint256"
        }
      ],
      "name": "placeOrder",
      "outputs": [],
      "stateMutability": "payable",
      "type": "function",
      "payable": true
    },
    {
      "inputs": [
        {
          "internalType": "uint256",
          "name": "orderId",
          "type": "uint256"
        }
      ],
      "name": "confirmOrder",
      "outputs": [],
      "stateMutability": "nonpayable",
      "type": "function"
    },
    {
      "inputs": [
        {
          "internalType": "uint256",
          "name": "serviceId",
          "type": "uint256"
        }
      ],
      "name": "getServiceById",
      "outputs": [
        {
          "components": [
            {
              "internalType": "string",
              "name": "logo",
              "type": "string"
            },
            {
              "internalType": "string",
              "name": "name",
              "type": "string"
            },
            {
              "internalType": "string",
              "name": "category",
              "type": "string"
            },
            {
              "internalType": "string",
              "name": "addressDetail",
              "type": "string"
            },
            {
              "internalType": "string",
              "name": "phoneNumber",
              "type": "string"
            },
            {
              "internalType": "string",
              "name": "email",
              "type": "string"
            },
            {
              "internalType": "uint256",
              "name": "cost",
              "type": "uint256"
            },
            {
              "internalType": "string",
              "name": "currency",
              "type": "string"
            },
            {
              "internalType": "address",
              "name": "owner",
              "type": "address"
            }
          ],
          "internalType": "struct ServiceContract.Service",
          "name": "",
          "type": "tuple"
        }
      ],
      "stateMutability": "view",
      "type": "function",
      "constant": true
    }
  ],
  "bytecode": "0x608060405234801561001057600080fd5b506139c1806100206000396000f3fe60806040526004361061009c5760003560e01c8063a85c38ef11610064578063a85c38ef14610186578063b2532a45146101c5578063ba2255f414610202578063bbd882f01461021e578063c134f17e14610247578063d7e611631461028c5761009c565b80630a02dcc7146100a157806321fe0f30146100de5780632453ffa81461010957806374e29ee6146101345780638ac7d79c1461015d575b600080fd5b3480156100ad57600080fd5b506100c860048036038101906100c39190612676565b6102c9565b6040516100d591906126e4565b60405180910390f35b3480156100ea57600080fd5b506100f3610308565b604051610100919061295e565b60405180910390f35b34801561011557600080fd5b5061011e610a16565b60405161012b919061298f565b60405180910390f35b34801561014057600080fd5b5061015b60048036038101906101569190612676565b610a1c565b005b34801561016957600080fd5b50610184600480360381019061017f9190612676565b610e35565b005b34801561019257600080fd5b506101ad60048036038101906101a89190612676565b610f98565b6040516101bc939291906129c5565b60405180910390f35b3480156101d157600080fd5b506101ec60048036038101906101e79190612a28565b610fef565b6040516101f9919061295e565b60405180910390f35b61021c60048036038101906102179190612676565b6114eb565b005b34801561022a57600080fd5b5061024560048036038101906102409190612b8a565b611669565b005b34801561025357600080fd5b5061026e60048036038101906102699190612d04565b611afa565b60405161028399989796959493929190612d8e565b60405180910390f35b34801561029857600080fd5b506102b360048036038101906102ae9190612676565b611f3d565b6040516102c09190612f3b565b60405180910390f35b600281815481106102d957600080fd5b906000526020600020016000915054906101000a900473ffffffffffffffffffffffffffffffffffffffff1681565b6060600080600090505b6002805490508110156103bf576000806002838154811061033657610335612f5d565b5b9060005260206000200160009054906101000a900473ffffffffffffffffffffffffffffffffffffffff1673ffffffffffffffffffffffffffffffffffffffff1673ffffffffffffffffffffffffffffffffffffffff16815260200190815260200160002080549050826103aa9190612fbb565b915080806103b790612fef565b915050610312565b5060008167ffffffffffffffff8111156103dc576103db612a5f565b5b60405190808252806020026020018201604052801561041557816020015b61040261256d565b8152602001906001900390816103fa5790505b5090506000805b600280549050811015610a0c5760005b6000806002848154811061044357610442612f5d565b5b9060005260206000200160009054906101000a900473ffffffffffffffffffffffffffffffffffffffff1673ffffffffffffffffffffffffffffffffffffffff1673ffffffffffffffffffffffffffffffffffffffff168152602001908152602001600020805490508110156109f857600080600284815481106104ca576104c9612f5d565b5b9060005260206000200160009054906101000a900473ffffffffffffffffffffffffffffffffffffffff1673ffffffffffffffffffffffffffffffffffffffff1673ffffffffffffffffffffffffffffffffffffffff168152602001908152602001600020818154811061054157610540612f5d565b5b90600052602060002090600902016040518061012001604052908160008201805461056b90613066565b80601f016020809104026020016040519081016040528092919081815260200182805461059790613066565b80156105e45780601f106105b9576101008083540402835291602001916105e4565b820191906000526020600020905b8154815290600101906020018083116105c757829003601f168201915b505050505081526020016001820180546105fd90613066565b80601f016020809104026020016040519081016040528092919081815260200182805461062990613066565b80156106765780601f1061064b57610100808354040283529160200191610676565b820191906000526020600020905b81548152906001019060200180831161065957829003601f168201915b5050505050815260200160028201805461068f90613066565b80601f01602080910402602001604051908101604052809291908181526020018280546106bb90613066565b80156107085780601f106106dd57610100808354040283529160200191610708565b820191906000526020600020905b8154815290600101906020018083116106eb57829003601f168201915b5050505050815260200160038201805461072190613066565b80601f016020809104026020016040519081016040528092919081815260200182805461074d90613066565b801561079a5780601f1061076f5761010080835404028352916020019161079a565b820191906000526020600020905b81548152906001019060200180831161077d57829003601f168201915b505050505081526020016004820180546107b390613066565b80601f01602080910402602001604051908101604052809291908181526020018280546107df90613066565b801561082c5780601f106108015761010080835404028352916020019161082c565b820191906000526020600020905b81548152906001019060200180831161080f57829003601f168201915b5050505050815260200160058201805461084590613066565b80601f016020809104026020016040519081016040528092919081815260200182805461087190613066565b80156108be5780601f10610893576101008083540402835291602001916108be565b820191906000526020600020905b8154815290600101906020018083116108a157829003601f168201915b50505050508152602001600682015481526020016007820180546108e190613066565b80601f016020809104026020016040519081016040528092919081815260200182805461090d90613066565b801561095a5780601f1061092f5761010080835404028352916020019161095a565b820191906000526020600020905b81548152906001019060200180831161093d57829003601f168201915b505050505081526020016008820160009054906101000a900473ffffffffffffffffffffffffffffffffffffffff1673ffffffffffffffffffffffffffffffffffffffff1673ffffffffffffffffffffffffffffffffffffffff16815250508484815181106109cc576109cb612f5d565b5b602002602001018190525082806109e290612fef565b93505080806109f090612fef565b91505061042c565b508080610a0490612fef565b91505061041c565b5081935050505090565b60035481565b6000803373ffffffffffffffffffffffffffffffffffffffff1673ffffffffffffffffffffffffffffffffffffffff168152602001908152602001600020805490508110610a9f576040517f08c379a0000000000000000000000000000000000000000000000000000000008152600401610a96906130e3565b60405180910390fd5b60008060003373ffffffffffffffffffffffffffffffffffffffff1673ffffffffffffffffffffffffffffffffffffffff16815260200190815260200160002090506000818381548110610af657610af5612f5d565b5b90600052602060002090600902016001018054610b1290613066565b80601f0160208091040260200160405190810160405280929190818152602001828054610b3e90613066565b8015610b8b5780601f10610b6057610100808354040283529160200191610b8b565b820191906000526020600020905b815481529060010190602001808311610b6e57829003601f168201915b5050505050905060008390505b60018380549050610ba99190613103565b811015610d185782600182610bbe9190612fbb565b81548110610bcf57610bce612f5d565b5b9060005260206000209060090201838281548110610bf057610bef612f5d565b5b906000526020600020906009020160008201816000019081610c1291906132f9565b5060018201816001019081610c2791906132f9565b5060028201816002019081610c3c91906132f9565b5060038201816003019081610c5191906132f9565b5060048201816004019081610c6691906132f9565b5060058201816005019081610c7b91906132f9565b506006820154816006015560078201816007019081610c9a91906132f9565b506008820160009054906101000a900473ffffffffffffffffffffffffffffffffffffffff168160080160006101000a81548173ffffffffffffffffffffffffffffffffffffffff021916908373ffffffffffffffffffffffffffffffffffffffff1602179055509050508080610d1090612fef565b915050610b98565b5081805480610d2a57610d296133e1565b5b600190038181906000526020600020906009020160008082016000610d4f91906125cf565b600182016000610d5f91906125cf565b600282016000610d6f91906125cf565b600382016000610d7f91906125cf565b600482016000610d8f91906125cf565b600582016000610d9f91906125cf565b6006820160009055600782016000610db791906125cf565b6008820160006101000a81549073ffffffffffffffffffffffffffffffffffffffff0219169055505090553373ffffffffffffffffffffffffffffffffffffffff167f970480f79372727bc0f144df151fd4335131d28955ae2cbabd6c79326917a6d682604051610e289190613410565b60405180910390a2505050565b60006001600083815260200190815260200160002090503373ffffffffffffffffffffffffffffffffffffffff168160000160009054906101000a900473ffffffffffffffffffffffffffffffffffffffff1673ffffffffffffffffffffffffffffffffffffffff1614610ede576040517f08c379a0000000000000000000000000000000000000000000000000000000008152600401610ed5906134a4565b60405180910390fd5b60018160020160006101000a81548160ff0219169083151502179055506000610f0a8260010154611f3d565b905080610100015173ffffffffffffffffffffffffffffffffffffffff166108fc8260c001519081150290604051600060405180830381858888f19350505050158015610f5b573d6000803e3d6000fd5b507f02a7d4d9472af7118644884b9a0ee443540c0027e938dd0aa35be8ecbe946c0a83604051610f8b919061298f565b60405180910390a1505050565b60016020528060005260406000206000915090508060000160009054906101000a900473ffffffffffffffffffffffffffffffffffffffff16908060010154908060020160009054906101000a900460ff16905083565b60606000808373ffffffffffffffffffffffffffffffffffffffff1673ffffffffffffffffffffffffffffffffffffffff168152602001908152602001600020805480602002602001604051908101604052809291908181526020016000905b828210156114e057838290600052602060002090600902016040518061012001604052908160008201805461108390613066565b80601f01602080910402602001604051908101604052809291908181526020018280546110af90613066565b80156110fc5780601f106110d1576101008083540402835291602001916110fc565b820191906000526020600020905b8154815290600101906020018083116110df57829003601f168201915b5050505050815260200160018201805461111590613066565b80601f016020809104026020016040519081016040528092919081815260200182805461114190613066565b801561118e5780601f106111635761010080835404028352916020019161118e565b820191906000526020600020905b81548152906001019060200180831161117157829003601f168201915b505050505081526020016002820180546111a790613066565b80601f01602080910402602001604051908101604052809291908181526020018280546111d390613066565b80156112205780601f106111f557610100808354040283529160200191611220565b820191906000526020600020905b81548152906001019060200180831161120357829003601f168201915b5050505050815260200160038201805461123990613066565b80601f016020809104026020016040519081016040528092919081815260200182805461126590613066565b80156112b25780601f10611287576101008083540402835291602001916112b2565b820191906000526020600020905b81548152906001019060200180831161129557829003601f168201915b505050505081526020016004820180546112cb90613066565b80601f01602080910402602001604051908101604052809291908181526020018280546112f790613066565b80156113445780601f1061131957610100808354040283529160200191611344565b820191906000526020600020905b81548152906001019060200180831161132757829003601f168201915b5050505050815260200160058201805461135d90613066565b80601f016020809104026020016040519081016040528092919081815260200182805461138990613066565b80156113d65780601f106113ab576101008083540402835291602001916113d6565b820191906000526020600020905b8154815290600101906020018083116113b957829003601f168201915b50505050508152602001600682015481526020016007820180546113f990613066565b80601f016020809104026020016040519081016040528092919081815260200182805461142590613066565b80156114725780601f1061144757610100808354040283529160200191611472565b820191906000526020600020905b81548152906001019060200180831161145557829003601f168201915b505050505081526020016008820160009054906101000a900473ffffffffffffffffffffffffffffffffffffffff1673ffffffffffffffffffffffffffffffffffffffff1673ffffffffffffffffffffffffffffffffffffffff16815250508152602001906001019061104f565b505050509050919050565b60006114f682611f3d565b90508060c00151341461153e576040517f08c379a000000000000000000000000000000000000000000000000000000000815260040161153590613510565b60405180910390fd5b60405180606001604052803373ffffffffffffffffffffffffffffffffffffffff1681526020018381526020016000151581525060016000600354815260200190815260200160002060008201518160000160006101000a81548173ffffffffffffffffffffffffffffffffffffffff021916908373ffffffffffffffffffffffffffffffffffffffff1602179055506020820151816001015560408201518160020160006101000a81548160ff0219169083151502179055509050503373ffffffffffffffffffffffffffffffffffffffff167f03f23a9b67af957c8605376a4f515b53f102d4ad7f4da099bd1aff8e3ee13fec83600354604051611645929190613530565b60405180910390a26003600081548092919061166090612fef565b91905055505050565b60008751116116ad576040517f08c379a00000000000000000000000000000000000000000000000000000000081526004016116a4906135a5565b60405180910390fd5b60008651116116f1576040517f08c379a00000000000000000000000000000000000000000000000000000000081526004016116e890613611565b60405180910390fd5b6000855111611735576040517f08c379a000000000000000000000000000000000000000000000000000000000815260040161172c9061367d565b60405180910390fd5b6000845111611779576040517f08c379a0000000000000000000000000000000000000000000000000000000008152600401611770906136e9565b60405180910390fd5b60008351116117bd576040517f08c379a00000000000000000000000000000000000000000000000000000000081526004016117b490613755565b60405180910390fd5b60008211611800576040517f08c379a00000000000000000000000000000000000000000000000000000000081526004016117f7906137c1565b60405180910390fd5b6000815111611844576040517f08c379a000000000000000000000000000000000000000000000000000000000815260040161183b9061382d565b60405180910390fd5b60006040518061012001604052808a81526020018981526020018881526020018781526020018681526020018581526020018481526020018381526020013373ffffffffffffffffffffffffffffffffffffffff1681525090506000803373ffffffffffffffffffffffffffffffffffffffff1673ffffffffffffffffffffffffffffffffffffffff168152602001908152602001600020819080600181540180825580915050600190039060005260206000209060090201600090919091909150600082015181600001908161191b919061384d565b506020820151816001019081611931919061384d565b506040820151816002019081611947919061384d565b50606082015181600301908161195d919061384d565b506080820151816004019081611973919061384d565b5060a0820151816005019081611989919061384d565b5060c0820151816006015560e08201518160070190816119a9919061384d565b506101008201518160080160006101000a81548173ffffffffffffffffffffffffffffffffffffffff021916908373ffffffffffffffffffffffffffffffffffffffff160217905550505060016000803373ffffffffffffffffffffffffffffffffffffffff1673ffffffffffffffffffffffffffffffffffffffff1681526020019081526020016000208054905003611aa1576002339080600181540180825580915050600190039060005260206000200160009091909190916101000a81548173ffffffffffffffffffffffffffffffffffffffff021916908373ffffffffffffffffffffffffffffffffffffffff1602179055505b3373ffffffffffffffffffffffffffffffffffffffff167fb33be4898b3eae72be50da48dea4d99c1e830cd6f31f9d534998c4fcaa91b62e89604051611ae79190613410565b60405180910390a2505050505050505050565b60006020528160005260406000208181548110611b1657600080fd5b906000526020600020906009020160009150915050806000018054611b3a90613066565b80601f0160208091040260200160405190810160405280929190818152602001828054611b6690613066565b8015611bb35780601f10611b8857610100808354040283529160200191611bb3565b820191906000526020600020905b815481529060010190602001808311611b9657829003601f168201915b505050505090806001018054611bc890613066565b80601f0160208091040260200160405190810160405280929190818152602001828054611bf490613066565b8015611c415780601f10611c1657610100808354040283529160200191611c41565b820191906000526020600020905b815481529060010190602001808311611c2457829003601f168201915b505050505090806002018054611c5690613066565b80601f0160208091040260200160405190810160405280929190818152602001828054611c8290613066565b8015611ccf5780601f10611ca457610100808354040283529160200191611ccf565b820191906000526020600020905b815481529060010190602001808311611cb257829003601f168201915b505050505090806003018054611ce490613066565b80601f0160208091040260200160405190810160405280929190818152602001828054611d1090613066565b8015611d5d5780601f10611d3257610100808354040283529160200191611d5d565b820191906000526020600020905b815481529060010190602001808311611d4057829003601f168201915b505050505090806004018054611d7290613066565b80601f0160208091040260200160405190810160405280929190818152602001828054611d9e90613066565b8015611deb5780601f10611dc057610100808354040283529160200191611deb565b820191906000526020600020905b815481529060010190602001808311611dce57829003601f168201915b505050505090806005018054611e0090613066565b80601f0160208091040260200160405190810160405280929190818152602001828054611e2c90613066565b8015611e795780601f10611e4e57610100808354040283529160200191611e79565b820191906000526020600020905b815481529060010190602001808311611e5c57829003601f168201915b505050505090806006015490806007018054611e9490613066565b80601f0160208091040260200160405190810160405280929190818152602001828054611ec090613066565b8015611f0d5780601f10611ee257610100808354040283529160200191611f0d565b820191906000526020600020905b815481529060010190602001808311611ef057829003601f168201915b5050505050908060080160009054906101000a900473ffffffffffffffffffffffffffffffffffffffff16905089565b611f4561256d565b6000805b60028054905081101561252c5760005b60008060028481548110611f7057611f6f612f5d565b5b9060005260206000200160009054906101000a900473ffffffffffffffffffffffffffffffffffffffff1673ffffffffffffffffffffffffffffffffffffffff1673ffffffffffffffffffffffffffffffffffffffff16815260200190815260200160002080549050811015612518578483036124f75760008060028481548110611ffe57611ffd612f5d565b5b9060005260206000200160009054906101000a900473ffffffffffffffffffffffffffffffffffffffff1673ffffffffffffffffffffffffffffffffffffffff1673ffffffffffffffffffffffffffffffffffffffff168152602001908152602001600020818154811061207557612074612f5d565b5b90600052602060002090600902016040518061012001604052908160008201805461209f90613066565b80601f01602080910402602001604051908101604052809291908181526020018280546120cb90613066565b80156121185780601f106120ed57610100808354040283529160200191612118565b820191906000526020600020905b8154815290600101906020018083116120fb57829003601f168201915b5050505050815260200160018201805461213190613066565b80601f016020809104026020016040519081016040528092919081815260200182805461215d90613066565b80156121aa5780601f1061217f576101008083540402835291602001916121aa565b820191906000526020600020905b81548152906001019060200180831161218d57829003601f168201915b505050505081526020016002820180546121c390613066565b80601f01602080910402602001604051908101604052809291908181526020018280546121ef90613066565b801561223c5780601f106122115761010080835404028352916020019161223c565b820191906000526020600020905b81548152906001019060200180831161221f57829003601f168201915b5050505050815260200160038201805461225590613066565b80601f016020809104026020016040519081016040528092919081815260200182805461228190613066565b80156122ce5780601f106122a3576101008083540402835291602001916122ce565b820191906000526020600020905b8154815290600101906020018083116122b157829003601f168201915b505050505081526020016004820180546122e790613066565b80601f016020809104026020016040519081016040528092919081815260200182805461231390613066565b80156123605780601f1061233557610100808354040283529160200191612360565b820191906000526020600020905b81548152906001019060200180831161234357829003601f168201915b5050505050815260200160058201805461237990613066565b80601f01602080910402602001604051908101604052809291908181526020018280546123a590613066565b80156123f25780601f106123c7576101008083540402835291602001916123f2565b820191906000526020600020905b8154815290600101906020018083116123d557829003601f168201915b505050505081526020016006820154815260200160078201805461241590613066565b80601f016020809104026020016040519081016040528092919081815260200182805461244190613066565b801561248e5780601f106124635761010080835404028352916020019161248e565b820191906000526020600020905b81548152906001019060200180831161247157829003601f168201915b505050505081526020016008820160009054906101000a900473ffffffffffffffffffffffffffffffffffffffff1673ffffffffffffffffffffffffffffffffffffffff1673ffffffffffffffffffffffffffffffffffffffff16815250509350505050612568565b828061250290612fef565b935050808061251090612fef565b915050611f59565b50808061252490612fef565b915050611f49565b506040517f08c379a000000000000000000000000000000000000000000000000000000000815260040161255f9061396b565b60405180910390fd5b919050565b6040518061012001604052806060815260200160608152602001606081526020016060815260200160608152602001606081526020016000815260200160608152602001600073ffffffffffffffffffffffffffffffffffffffff1681525090565b5080546125db90613066565b6000825580601f106125ed575061260c565b601f01602090049060005260206000209081019061260b919061260f565b5b50565b5b80821115612628576000816000905550600101612610565b5090565b6000604051905090565b600080fd5b600080fd5b6000819050919050565b61265381612640565b811461265e57600080fd5b50565b6000813590506126708161264a565b92915050565b60006020828403121561268c5761268b612636565b5b600061269a84828501612661565b91505092915050565b600073ffffffffffffffffffffffffffffffffffffffff82169050919050565b60006126ce826126a3565b9050919050565b6126de816126c3565b82525050565b60006020820190506126f960008301846126d5565b92915050565b600081519050919050565b600082825260208201905092915050565b6000819050602082019050919050565b600081519050919050565b600082825260208201905092915050565b60005b8381101561276557808201518184015260208101905061274a565b60008484015250505050565b6000601f19601f8301169050919050565b600061278d8261272b565b6127978185612736565b93506127a7818560208601612747565b6127b081612771565b840191505092915050565b6127c481612640565b82525050565b6127d3816126c3565b82525050565b60006101208301600083015184820360008601526127f78282612782565b915050602083015184820360208601526128118282612782565b9150506040830151848203604086015261282b8282612782565b915050606083015184820360608601526128458282612782565b9150506080830151848203608086015261285f8282612782565b91505060a083015184820360a08601526128798282612782565b91505060c083015161288e60c08601826127bb565b5060e083015184820360e08601526128a68282612782565b9150506101008301516128bd6101008601826127ca565b508091505092915050565b60006128d483836127d9565b905092915050565b6000602082019050919050565b60006128f4826126ff565b6128fe818561270a565b9350836020820285016129108561271b565b8060005b8581101561294c578484038952815161292d85826128c8565b9450612938836128dc565b925060208a01995050600181019050612914565b50829750879550505050505092915050565b6000602082019050818103600083015261297881846128e9565b905092915050565b61298981612640565b82525050565b60006020820190506129a46000830184612980565b92915050565b60008115159050919050565b6129bf816129aa565b82525050565b60006060820190506129da60008301866126d5565b6129e76020830185612980565b6129f460408301846129b6565b949350505050565b612a05816126c3565b8114612a1057600080fd5b50565b600081359050612a22816129fc565b92915050565b600060208284031215612a3e57612a3d612636565b5b6000612a4c84828501612a13565b91505092915050565b600080fd5b600080fd5b7f4e487b7100000000000000000000000000000000000000000000000000000000600052604160045260246000fd5b612a9782612771565b810181811067ffffffffffffffff82111715612ab657612ab5612a5f565b5b80604052505050565b6000612ac961262c565b9050612ad58282612a8e565b919050565b600067ffffffffffffffff821115612af557612af4612a5f565b5b612afe82612771565b9050602081019050919050565b82818337600083830152505050565b6000612b2d612b2884612ada565b612abf565b905082815260208101848484011115612b4957612b48612a5a565b5b612b54848285612b0b565b509392505050565b600082601f830112612b7157612b70612a55565b5b8135612b81848260208601612b1a565b91505092915050565b600080600080600080600080610100898b031215612bab57612baa612636565b5b600089013567ffffffffffffffff811115612bc957612bc861263b565b5b612bd58b828c01612b5c565b985050602089013567ffffffffffffffff811115612bf657612bf561263b565b5b612c028b828c01612b5c565b975050604089013567ffffffffffffffff811115612c2357612c2261263b565b5b612c2f8b828c01612b5c565b965050606089013567ffffffffffffffff811115612c5057612c4f61263b565b5b612c5c8b828c01612b5c565b955050608089013567ffffffffffffffff811115612c7d57612c7c61263b565b5b612c898b828c01612b5c565b94505060a089013567ffffffffffffffff811115612caa57612ca961263b565b5b612cb68b828c01612b5c565b93505060c0612cc78b828c01612661565b92505060e089013567ffffffffffffffff811115612ce857612ce761263b565b5b612cf48b828c01612b5c565b9150509295985092959890939650565b60008060408385031215612d1b57612d1a612636565b5b6000612d2985828601612a13565b9250506020612d3a85828601612661565b9150509250929050565b600082825260208201905092915050565b6000612d608261272b565b612d6a8185612d44565b9350612d7a818560208601612747565b612d8381612771565b840191505092915050565b6000610120820190508181036000830152612da9818c612d55565b90508181036020830152612dbd818b612d55565b90508181036040830152612dd1818a612d55565b90508181036060830152612de58189612d55565b90508181036080830152612df98188612d55565b905081810360a0830152612e0d8187612d55565b9050612e1c60c0830186612980565b81810360e0830152612e2e8185612d55565b9050612e3e6101008301846126d5565b9a9950505050505050505050565b6000610120830160008301518482036000860152612e6a8282612782565b91505060208301518482036020860152612e848282612782565b91505060408301518482036040860152612e9e8282612782565b91505060608301518482036060860152612eb88282612782565b91505060808301518482036080860152612ed28282612782565b91505060a083015184820360a0860152612eec8282612782565b91505060c0830151612f0160c08601826127bb565b5060e083015184820360e0860152612f198282612782565b915050610100830151612f306101008601826127ca565b508091505092915050565b60006020820190508181036000830152612f558184612e4c565b905092915050565b7f4e487b7100000000000000000000000000000000000000000000000000000000600052603260045260246000fd5b7f4e487b7100000000000000000000000000000000000000000000000000000000600052601160045260246000fd5b6000612fc682612640565b9150612fd183612640565b9250828201905080821115612fe957612fe8612f8c565b5b92915050565b6000612ffa82612640565b91507fffffffffffffffffffffffffffffffffffffffffffffffffffffffffffffffff820361302c5761302b612f8c565b5b600182019050919050565b7f4e487b7100000000000000000000000000000000000000000000000000000000600052602260045260246000fd5b6000600282049050600182168061307e57607f821691505b60208210810361309157613090613037565b5b50919050565b7f5365727669636520696e646578206f7574206f6620626f756e64730000000000600082015250565b60006130cd601b83612d44565b91506130d882613097565b602082019050919050565b600060208201905081810360008301526130fc816130c0565b9050919050565b600061310e82612640565b915061311983612640565b925082820390508181111561313157613130612f8c565b5b92915050565b60008154905061314681613066565b9050919050565b60008190508160005260206000209050919050565b60006020601f8301049050919050565b600082821b905092915050565b6000600883026131af7fffffffffffffffffffffffffffffffffffffffffffffffffffffffffffffffff82613172565b6131b98683613172565b95508019841693508086168417925050509392505050565b6000819050919050565b60006131f66131f16131ec84612640565b6131d1565b612640565b9050919050565b6000819050919050565b613210836131db565b61322461321c826131fd565b84845461317f565b825550505050565b600090565b61323961322c565b613244818484613207565b505050565b5b818110156132685761325d600082613231565b60018101905061324a565b5050565b601f8211156132ad5761327e8161314d565b61328784613162565b81016020851015613296578190505b6132aa6132a285613162565b830182613249565b50505b505050565b600082821c905092915050565b60006132d0600019846008026132b2565b1980831691505092915050565b60006132e983836132bf565b9150826002028217905092915050565b8181036133075750506133df565b61331082613137565b67ffffffffffffffff81111561332957613328612a5f565b5b6133338254613066565b61333e82828561326c565b6000601f83116001811461336d576000841561335b578287015490505b61336585826132dd565b8655506133d8565b601f19841661337b8761314d565b96506133868661314d565b60005b828110156133ae57848901548255600182019150600185019450602081019050613389565b868310156133cb57848901546133c7601f8916826132bf565b8355505b6001600288020188555050505b5050505050505b565b7f4e487b7100000000000000000000000000000000000000000000000000000000600052603160045260246000fd5b6000602082019050818103600083015261342a8184612d55565b905092915050565b7f4f6e6c792074686520757365722077686f20706c6163656420746865206f726460008201527f65722063616e20636f6e6669726d206974000000000000000000000000000000602082015250565b600061348e603183612d44565b915061349982613432565b604082019050919050565b600060208201905081810360008301526134bd81613481565b9050919050565b7f496e636f7272656374207061796d656e7420616d6f756e740000000000000000600082015250565b60006134fa601883612d44565b9150613505826134c4565b602082019050919050565b60006020820190508181036000830152613529816134ed565b9050919050565b60006040820190506135456000830185612980565b6135526020830184612980565b9392505050565b7f53657276696365206e616d652072657175697265640000000000000000000000600082015250565b600061358f601583612d44565b915061359a82613559565b602082019050919050565b600060208201905081810360008301526135be81613582565b9050919050565b7f536572766963652063617465676f727920726571756972656400000000000000600082015250565b60006135fb601983612d44565b9150613606826135c5565b602082019050919050565b6000602082019050818103600083015261362a816135ee565b9050919050565b7f4164647265737320726571756972656400000000000000000000000000000000600082015250565b6000613667601083612d44565b915061367282613631565b602082019050919050565b600060208201905081810360008301526136968161365a565b9050919050565b7f50686f6e65206e756d6265722072657175697265640000000000000000000000600082015250565b60006136d3601583612d44565b91506136de8261369d565b602082019050919050565b60006020820190508181036000830152613702816136c6565b9050919050565b7f456d61696c207265717569726564000000000000000000000000000000000000600082015250565b600061373f600e83612d44565b915061374a82613709565b602082019050919050565b6000602082019050818103600083015261376e81613732565b9050919050565b7f436f7374206d7573742062652067726561746572207468616e207a65726f0000600082015250565b60006137ab601e83612d44565b91506137b682613775565b602082019050919050565b600060208201905081810360008301526137da8161379e565b9050919050565b7f43757272656e6379207265717569726564000000000000000000000000000000600082015250565b6000613817601183612d44565b9150613822826137e1565b602082019050919050565b600060208201905081810360008301526138468161380a565b9050919050565b6138568261272b565b67ffffffffffffffff81111561386f5761386e612a5f565b5b6138798254613066565b61388482828561326c565b600060209050601f8311600181146138b757600084156138a5578287015190505b6138af85826132dd565b865550613917565b601f1984166138c58661314d565b60005b828110156138ed578489015182556001820191506020850194506020810190506138c8565b8683101561390a5784890151613906601f8916826132bf565b8355505b6001600288020188555050505b505050505050565b7f53657276696365206e6f7420666f756e64000000000000000000000000000000600082015250565b6000613955601183612d44565b91506139608261391f565b602082019050919050565b6000602082019050818103600083015261398481613948565b905091905056fea2646970667358221220d82abeb8998f1fc63e550876967e1441eb163100d3b860d25c62122bbeb7a0e264736f6c63430008130033",
  "immutableReferences": {},
  "source": "// SPDX-License-Identifier: MIT\r\npragma solidity >=0.8.19;\r\n\r\ncontract ServiceContract {\r\n    struct Service {\r\n        string logo;\r\n        string name;\r\n        string category;\r\n        string addressDetail;\r\n        string phoneNumber;\r\n        string email;\r\n        uint256 cost;\r\n        string currency;\r\n        address owner;\r\n    }\r\n\r\n    struct Order {\r\n        address user;\r\n        uint256 serviceId;\r\n        bool isCompleted;\r\n    }\r\n\r\n    mapping(address => Service[]) public services;\r\n    mapping(uint256 => Order) public orders;\r\n    address[] public serviceProviders;\r\n    uint256 public orderCount;\r\n\r\n    event ServiceAdded(address indexed user, string name);\r\n    event ServiceDeleted(address indexed user, string name);\r\n    event OrderPlaced(address indexed user, uint256 serviceId, uint256 orderId);\r\n    event OrderCompleted(uint256 orderId);\r\n\r\n    function addService(\r\n        string memory _logo,\r\n        string memory _name,\r\n        string memory _category,\r\n        string memory _addressDetail,\r\n        string memory _phoneNumber,\r\n        string memory _email,\r\n        uint256 _cost,\r\n        string memory _currency\r\n    ) public {\r\n        require(bytes(_name).length > 0, \"Service name required\");\r\n        require(bytes(_category).length > 0, \"Service category required\");\r\n        require(bytes(_addressDetail).length > 0, \"Address required\");\r\n        require(bytes(_phoneNumber).length > 0, \"Phone number required\");\r\n        require(bytes(_email).length > 0, \"Email required\");\r\n        require(_cost > 0, \"Cost must be greater than zero\");\r\n        require(bytes(_currency).length > 0, \"Currency required\");\r\n\r\n        Service memory newService = Service({\r\n            logo: _logo,\r\n            name: _name,\r\n            category: _category,\r\n            addressDetail: _addressDetail,\r\n            phoneNumber: _phoneNumber,\r\n            email: _email,\r\n            cost: _cost,\r\n            currency: _currency,\r\n            owner: msg.sender\r\n        });\r\n\r\n        services[msg.sender].push(newService);\r\n        if (services[msg.sender].length == 1) {\r\n            serviceProviders.push(msg.sender);\r\n        }\r\n        emit ServiceAdded(msg.sender, _name);\r\n    }\r\n\r\n    function getServices(address _user) public view returns (Service[] memory) {\r\n        return services[_user];\r\n    }\r\n\r\n    function deleteService(uint256 index) public {\r\n        require(index < services[msg.sender].length, \"Service index out of bounds\");\r\n        Service[] storage userServices = services[msg.sender];\r\n\r\n        string memory serviceName = userServices[index].name;\r\n\r\n        for (uint256 i = index; i < userServices.length - 1; i++) {\r\n            userServices[i] = userServices[i + 1];\r\n        }\r\n        userServices.pop();\r\n        emit ServiceDeleted(msg.sender, serviceName);\r\n    }\r\n\r\n    function getAllServices() public view returns (Service[] memory) {\r\n        uint totalServices;\r\n        for (uint i = 0; i < serviceProviders.length; i++) {\r\n            totalServices += services[serviceProviders[i]].length;\r\n        }\r\n\r\n        Service[] memory allServices = new Service[](totalServices);\r\n        uint counter = 0;\r\n        for (uint i = 0; i < serviceProviders.length; i++) {\r\n            for (uint j = 0; j < services[serviceProviders[i]].length; j++) {\r\n                allServices[counter] = services[serviceProviders[i]][j];\r\n                counter++;\r\n            }\r\n        }\r\n\r\n        return allServices;\r\n    }\r\n\r\n    function placeOrder(uint256 serviceId) public payable {\r\n        Service memory service = getServiceById(serviceId);\r\n        require(msg.value == service.cost, \"Incorrect payment amount\");\r\n\r\n        orders[orderCount] = Order({\r\n            user: msg.sender,\r\n            serviceId: serviceId,\r\n            isCompleted: false\r\n        });\r\n\r\n        emit OrderPlaced(msg.sender, serviceId, orderCount);\r\n        orderCount++;\r\n    }\r\n\r\n    function confirmOrder(uint256 orderId) public {\r\n        Order storage order = orders[orderId];\r\n        require(order.user == msg.sender, \"Only the user who placed the order can confirm it\");\r\n\r\n        order.isCompleted = true;\r\n        Service memory service = getServiceById(order.serviceId);\r\n        payable(service.owner).transfer(service.cost);\r\n\r\n        emit OrderCompleted(orderId);\r\n    }\r\n\r\n    function getServiceById(uint256 serviceId) public view returns (Service memory) {\r\n        uint counter = 0;\r\n        for (uint i = 0; i < serviceProviders.length; i++) {\r\n            for (uint j = 0; j < services[serviceProviders[i]].length; j++) {\r\n                if (counter == serviceId) {\r\n                    return services[serviceProviders[i]][j];\r\n                }\r\n                counter++;\r\n            }\r\n        }\r\n        revert(\"Service not found\");\r\n    }\r\n}\r\n",
  "sourcePath": "C:\\Users\\Kevin Sorensen\\GitHub\\Aclean\\aclean-dapps\\blockchain\\contracts\\ServiceContract.sol",
  "compiler": {
    "name": "solc",
    "version": "0.8.19+commit.7dd6d404.Emscripten.clang"
  },
  "schemaVersion": "3.4.16",
  "updatedAt": "2024-05-19T03:54:24.352Z",
  "networkType": "ethereum",
  "devdoc": {
    "kind": "dev",
    "methods": {},
    "version": 1
  },
  "userdoc": {
    "kind": "user",
    "methods": {},
    "version": 1
  }
}