{
  "contractName": "ServiceContract",
  "abi": [
    {
      "anonymous": false,
      "inputs": [
        {
          "indexed": false,
          "internalType": "uint256",
          "name": "orderId",
          "type": "uint256"
        }
      ],
      "name": "OrderCompleted",
      "type": "event"
    },
    {
      "anonymous": false,
      "inputs": [
        {
          "indexed": true,
          "internalType": "address",
          "name": "user",
          "type": "address"
        },
        {
          "indexed": false,
          "internalType": "uint256",
          "name": "serviceId",
          "type": "uint256"
        },
        {
          "indexed": false,
          "internalType": "uint256",
          "name": "orderId",
          "type": "uint256"
        }
      ],
      "name": "OrderPlaced",
      "type": "event"
    },
    {
      "anonymous": false,
      "inputs": [
        {
          "indexed": true,
          "internalType": "address",
          "name": "user",
          "type": "address"
        },
        {
          "indexed": false,
          "internalType": "string",
          "name": "name",
          "type": "string"
        }
      ],
      "name": "ServiceAdded",
      "type": "event"
    },
    {
      "anonymous": false,
      "inputs": [
        {
          "indexed": true,
          "internalType": "address",
          "name": "user",
          "type": "address"
        },
        {
          "indexed": false,
          "internalType": "string",
          "name": "name",
          "type": "string"
        }
      ],
      "name": "ServiceDeleted",
      "type": "event"
    },
    {
      "inputs": [],
      "name": "orderCount",
      "outputs": [
        {
          "internalType": "uint256",
          "name": "",
          "type": "uint256"
        }
      ],
      "stateMutability": "view",
      "type": "function",
      "constant": true
    },
    {
      "inputs": [
        {
          "internalType": "uint256",
          "name": "",
          "type": "uint256"
        }
      ],
      "name": "orders",
      "outputs": [
        {
          "internalType": "address",
          "name": "user",
          "type": "address"
        },
        {
          "internalType": "uint256",
          "name": "serviceId",
          "type": "uint256"
        },
        {
          "internalType": "bool",
          "name": "isCompleted",
          "type": "bool"
        }
      ],
      "stateMutability": "view",
      "type": "function",
      "constant": true
    },
    {
      "inputs": [
        {
          "internalType": "uint256",
          "name": "",
          "type": "uint256"
        }
      ],
      "name": "serviceProviders",
      "outputs": [
        {
          "internalType": "address",
          "name": "",
          "type": "address"
        }
      ],
      "stateMutability": "view",
      "type": "function",
      "constant": true
    },
    {
      "inputs": [
        {
          "internalType": "address",
          "name": "",
          "type": "address"
        },
        {
          "internalType": "uint256",
          "name": "",
          "type": "uint256"
        }
      ],
      "name": "services",
      "outputs": [
        {
          "internalType": "string",
          "name": "logo",
          "type": "string"
        },
        {
          "internalType": "string",
          "name": "name",
          "type": "string"
        },
        {
          "internalType": "string",
          "name": "category",
          "type": "string"
        },
        {
          "internalType": "string",
          "name": "addressDetail",
          "type": "string"
        },
        {
          "internalType": "string",
          "name": "phoneNumber",
          "type": "string"
        },
        {
          "internalType": "string",
          "name": "email",
          "type": "string"
        },
        {
          "internalType": "uint256",
          "name": "cost",
          "type": "uint256"
        },
        {
          "internalType": "string",
          "name": "currency",
          "type": "string"
        }
      ],
      "stateMutability": "view",
      "type": "function",
      "constant": true
    },
    {
      "inputs": [
        {
          "internalType": "string",
          "name": "_logo",
          "type": "string"
        },
        {
          "internalType": "string",
          "name": "_name",
          "type": "string"
        },
        {
          "internalType": "string",
          "name": "_category",
          "type": "string"
        },
        {
          "internalType": "string",
          "name": "_addressDetail",
          "type": "string"
        },
        {
          "internalType": "string",
          "name": "_phoneNumber",
          "type": "string"
        },
        {
          "internalType": "string",
          "name": "_email",
          "type": "string"
        },
        {
          "internalType": "uint256",
          "name": "_cost",
          "type": "uint256"
        },
        {
          "internalType": "string",
          "name": "_currency",
          "type": "string"
        }
      ],
      "name": "addService",
      "outputs": [],
      "stateMutability": "nonpayable",
      "type": "function"
    },
    {
      "inputs": [
        {
          "internalType": "address",
          "name": "_user",
          "type": "address"
        }
      ],
      "name": "getServices",
      "outputs": [
        {
          "components": [
            {
              "internalType": "string",
              "name": "logo",
              "type": "string"
            },
            {
              "internalType": "string",
              "name": "name",
              "type": "string"
            },
            {
              "internalType": "string",
              "name": "category",
              "type": "string"
            },
            {
              "internalType": "string",
              "name": "addressDetail",
              "type": "string"
            },
            {
              "internalType": "string",
              "name": "phoneNumber",
              "type": "string"
            },
            {
              "internalType": "string",
              "name": "email",
              "type": "string"
            },
            {
              "internalType": "uint256",
              "name": "cost",
              "type": "uint256"
            },
            {
              "internalType": "string",
              "name": "currency",
              "type": "string"
            }
          ],
          "internalType": "struct ServiceContract.Service[]",
          "name": "",
          "type": "tuple[]"
        }
      ],
      "stateMutability": "view",
      "type": "function",
      "constant": true
    },
    {
      "inputs": [
        {
          "internalType": "uint256",
          "name": "index",
          "type": "uint256"
        }
      ],
      "name": "deleteService",
      "outputs": [],
      "stateMutability": "nonpayable",
      "type": "function"
    },
    {
      "inputs": [],
      "name": "getAllServices",
      "outputs": [
        {
          "components": [
            {
              "internalType": "string",
              "name": "logo",
              "type": "string"
            },
            {
              "internalType": "string",
              "name": "name",
              "type": "string"
            },
            {
              "internalType": "string",
              "name": "category",
              "type": "string"
            },
            {
              "internalType": "string",
              "name": "addressDetail",
              "type": "string"
            },
            {
              "internalType": "string",
              "name": "phoneNumber",
              "type": "string"
            },
            {
              "internalType": "string",
              "name": "email",
              "type": "string"
            },
            {
              "internalType": "uint256",
              "name": "cost",
              "type": "uint256"
            },
            {
              "internalType": "string",
              "name": "currency",
              "type": "string"
            }
          ],
          "internalType": "struct ServiceContract.Service[]",
          "name": "",
          "type": "tuple[]"
        }
      ],
      "stateMutability": "view",
      "type": "function",
      "constant": true
    },
    {
      "inputs": [
        {
          "internalType": "uint256",
          "name": "serviceId",
          "type": "uint256"
        }
      ],
      "name": "placeOrder",
      "outputs": [],
      "stateMutability": "payable",
      "type": "function",
      "payable": true
    },
    {
      "inputs": [
        {
          "internalType": "uint256",
          "name": "orderId",
          "type": "uint256"
        }
      ],
      "name": "confirmOrder",
      "outputs": [],
      "stateMutability": "nonpayable",
      "type": "function"
    }
  ],
  "bytecode": "0x608060405234801561001057600080fd5b5061363a806100206000396000f3fe6080604052600436106100915760003560e01c8063a85c38ef11610059578063a85c38ef1461017b578063b2532a45146101ba578063ba2255f4146101f7578063bbd882f014610213578063c134f17e1461023c57610091565b80630a02dcc71461009657806321fe0f30146100d35780632453ffa8146100fe57806374e29ee6146101295780638ac7d79c14610152575b600080fd5b3480156100a257600080fd5b506100bd60048036038101906100b89190612433565b610280565b6040516100ca91906124a1565b60405180910390f35b3480156100df57600080fd5b506100e86102bf565b6040516100f591906126f7565b60405180910390f35b34801561010a57600080fd5b50610113610977565b6040516101209190612728565b60405180910390f35b34801561013557600080fd5b50610150600480360381019061014b9190612433565b61097d565b005b34801561015e57600080fd5b5061017960048036038101906101749190612433565b610d08565b005b34801561018757600080fd5b506101a2600480360381019061019d9190612433565b610ea8565b6040516101b19392919061275e565b60405180910390f35b3480156101c657600080fd5b506101e160048036038101906101dc91906127c1565b610eff565b6040516101ee91906126f7565b60405180910390f35b610211600480360381019061020c9190612433565b6113a5565b005b34801561021f57600080fd5b5061023a60048036038101906102359190612923565b611523565b005b34801561024857600080fd5b50610263600480360381019061025e9190612a9d565b611950565b604051610277989796959493929190612b27565b60405180910390f35b6002818154811061029057600080fd5b906000526020600020016000915054906101000a900473ffffffffffffffffffffffffffffffffffffffff1681565b6060600080600090505b60028054905081101561037657600080600283815481106102ed576102ec612bd6565b5b9060005260206000200160009054906101000a900473ffffffffffffffffffffffffffffffffffffffff1673ffffffffffffffffffffffffffffffffffffffff1673ffffffffffffffffffffffffffffffffffffffff16815260200190815260200160002080549050826103619190612c34565b9150808061036e90612c68565b9150506102c9565b5060008167ffffffffffffffff811115610393576103926127f8565b5b6040519080825280602002602001820160405280156103cc57816020015b6103b9612347565b8152602001906001900390816103b15790505b5090506000805b60028054905081101561096d5760005b600080600284815481106103fa576103f9612bd6565b5b9060005260206000200160009054906101000a900473ffffffffffffffffffffffffffffffffffffffff1673ffffffffffffffffffffffffffffffffffffffff1673ffffffffffffffffffffffffffffffffffffffff16815260200190815260200160002080549050811015610959576000806002848154811061048157610480612bd6565b5b9060005260206000200160009054906101000a900473ffffffffffffffffffffffffffffffffffffffff1673ffffffffffffffffffffffffffffffffffffffff1673ffffffffffffffffffffffffffffffffffffffff16815260200190815260200160002081815481106104f8576104f7612bd6565b5b90600052602060002090600802016040518061010001604052908160008201805461052290612cdf565b80601f016020809104026020016040519081016040528092919081815260200182805461054e90612cdf565b801561059b5780601f106105705761010080835404028352916020019161059b565b820191906000526020600020905b81548152906001019060200180831161057e57829003601f168201915b505050505081526020016001820180546105b490612cdf565b80601f01602080910402602001604051908101604052809291908181526020018280546105e090612cdf565b801561062d5780601f106106025761010080835404028352916020019161062d565b820191906000526020600020905b81548152906001019060200180831161061057829003601f168201915b5050505050815260200160028201805461064690612cdf565b80601f016020809104026020016040519081016040528092919081815260200182805461067290612cdf565b80156106bf5780601f10610694576101008083540402835291602001916106bf565b820191906000526020600020905b8154815290600101906020018083116106a257829003601f168201915b505050505081526020016003820180546106d890612cdf565b80601f016020809104026020016040519081016040528092919081815260200182805461070490612cdf565b80156107515780601f1061072657610100808354040283529160200191610751565b820191906000526020600020905b81548152906001019060200180831161073457829003601f168201915b5050505050815260200160048201805461076a90612cdf565b80601f016020809104026020016040519081016040528092919081815260200182805461079690612cdf565b80156107e35780601f106107b8576101008083540402835291602001916107e3565b820191906000526020600020905b8154815290600101906020018083116107c657829003601f168201915b505050505081526020016005820180546107fc90612cdf565b80601f016020809104026020016040519081016040528092919081815260200182805461082890612cdf565b80156108755780601f1061084a57610100808354040283529160200191610875565b820191906000526020600020905b81548152906001019060200180831161085857829003601f168201915b505050505081526020016006820154815260200160078201805461089890612cdf565b80601f01602080910402602001604051908101604052809291908181526020018280546108c490612cdf565b80156109115780601f106108e657610100808354040283529160200191610911565b820191906000526020600020905b8154815290600101906020018083116108f457829003601f168201915b50505050508152505084848151811061092d5761092c612bd6565b5b6020026020010181905250828061094390612c68565b935050808061095190612c68565b9150506103e3565b50808061096590612c68565b9150506103d3565b5081935050505090565b60035481565b6000803373ffffffffffffffffffffffffffffffffffffffff1673ffffffffffffffffffffffffffffffffffffffff168152602001908152602001600020805490508110610a00576040517f08c379a00000000000000000000000000000000000000000000000000000000081526004016109f790612d5c565b60405180910390fd5b60008060003373ffffffffffffffffffffffffffffffffffffffff1673ffffffffffffffffffffffffffffffffffffffff16815260200190815260200160002090506000818381548110610a5757610a56612bd6565b5b90600052602060002090600802016001018054610a7390612cdf565b80601f0160208091040260200160405190810160405280929190818152602001828054610a9f90612cdf565b8015610aec5780601f10610ac157610100808354040283529160200191610aec565b820191906000526020600020905b815481529060010190602001808311610acf57829003601f168201915b5050505050905060008390505b60018380549050610b0a9190612d7c565b811015610c125782600182610b1f9190612c34565b81548110610b3057610b2f612bd6565b5b9060005260206000209060080201838281548110610b5157610b50612bd6565b5b906000526020600020906008020160008201816000019081610b739190612f72565b5060018201816001019081610b889190612f72565b5060028201816002019081610b9d9190612f72565b5060038201816003019081610bb29190612f72565b5060048201816004019081610bc79190612f72565b5060058201816005019081610bdc9190612f72565b506006820154816006015560078201816007019081610bfb9190612f72565b509050508080610c0a90612c68565b915050610af9565b5081805480610c2457610c2361305a565b5b600190038181906000526020600020906008020160008082016000610c49919061238c565b600182016000610c59919061238c565b600282016000610c69919061238c565b600382016000610c79919061238c565b600482016000610c89919061238c565b600582016000610c99919061238c565b6006820160009055600782016000610cb1919061238c565b505090553373ffffffffffffffffffffffffffffffffffffffff167f970480f79372727bc0f144df151fd4335131d28955ae2cbabd6c79326917a6d682604051610cfb9190613089565b60405180910390a2505050565b60006001600083815260200190815260200160002090503373ffffffffffffffffffffffffffffffffffffffff168160000160009054906101000a900473ffffffffffffffffffffffffffffffffffffffff1673ffffffffffffffffffffffffffffffffffffffff1614610db1576040517f08c379a0000000000000000000000000000000000000000000000000000000008152600401610da89061311d565b60405180910390fd5b60018160020160006101000a81548160ff0219169083151502179055506000610ddd8260010154611d6d565b90506002826001015481548110610df757610df6612bd6565b5b9060005260206000200160009054906101000a900473ffffffffffffffffffffffffffffffffffffffff1673ffffffffffffffffffffffffffffffffffffffff166108fc8260c001519081150290604051600060405180830381858888f19350505050158015610e6b573d6000803e3d6000fd5b507f02a7d4d9472af7118644884b9a0ee443540c0027e938dd0aa35be8ecbe946c0a83604051610e9b9190612728565b60405180910390a1505050565b60016020528060005260406000206000915090508060000160009054906101000a900473ffffffffffffffffffffffffffffffffffffffff16908060010154908060020160009054906101000a900460ff16905083565b60606000808373ffffffffffffffffffffffffffffffffffffffff1673ffffffffffffffffffffffffffffffffffffffff168152602001908152602001600020805480602002602001604051908101604052809291908181526020016000905b8282101561139a578382906000526020600020906008020160405180610100016040529081600082018054610f9390612cdf565b80601f0160208091040260200160405190810160405280929190818152602001828054610fbf90612cdf565b801561100c5780601f10610fe15761010080835404028352916020019161100c565b820191906000526020600020905b815481529060010190602001808311610fef57829003601f168201915b5050505050815260200160018201805461102590612cdf565b80601f016020809104026020016040519081016040528092919081815260200182805461105190612cdf565b801561109e5780601f106110735761010080835404028352916020019161109e565b820191906000526020600020905b81548152906001019060200180831161108157829003601f168201915b505050505081526020016002820180546110b790612cdf565b80601f01602080910402602001604051908101604052809291908181526020018280546110e390612cdf565b80156111305780601f1061110557610100808354040283529160200191611130565b820191906000526020600020905b81548152906001019060200180831161111357829003601f168201915b5050505050815260200160038201805461114990612cdf565b80601f016020809104026020016040519081016040528092919081815260200182805461117590612cdf565b80156111c25780601f10611197576101008083540402835291602001916111c2565b820191906000526020600020905b8154815290600101906020018083116111a557829003601f168201915b505050505081526020016004820180546111db90612cdf565b80601f016020809104026020016040519081016040528092919081815260200182805461120790612cdf565b80156112545780601f1061122957610100808354040283529160200191611254565b820191906000526020600020905b81548152906001019060200180831161123757829003601f168201915b5050505050815260200160058201805461126d90612cdf565b80601f016020809104026020016040519081016040528092919081815260200182805461129990612cdf565b80156112e65780601f106112bb576101008083540402835291602001916112e6565b820191906000526020600020905b8154815290600101906020018083116112c957829003601f168201915b505050505081526020016006820154815260200160078201805461130990612cdf565b80601f016020809104026020016040519081016040528092919081815260200182805461133590612cdf565b80156113825780601f1061135757610100808354040283529160200191611382565b820191906000526020600020905b81548152906001019060200180831161136557829003601f168201915b50505050508152505081526020019060010190610f5f565b505050509050919050565b60006113b082611d6d565b90508060c0015134146113f8576040517f08c379a00000000000000000000000000000000000000000000000000000000081526004016113ef90613189565b60405180910390fd5b60405180606001604052803373ffffffffffffffffffffffffffffffffffffffff1681526020018381526020016000151581525060016000600354815260200190815260200160002060008201518160000160006101000a81548173ffffffffffffffffffffffffffffffffffffffff021916908373ffffffffffffffffffffffffffffffffffffffff1602179055506020820151816001015560408201518160020160006101000a81548160ff0219169083151502179055509050503373ffffffffffffffffffffffffffffffffffffffff167f03f23a9b67af957c8605376a4f515b53f102d4ad7f4da099bd1aff8e3ee13fec836003546040516114ff9291906131a9565b60405180910390a26003600081548092919061151a90612c68565b91905055505050565b6000875111611567576040517f08c379a000000000000000000000000000000000000000000000000000000000815260040161155e9061321e565b60405180910390fd5b60008651116115ab576040517f08c379a00000000000000000000000000000000000000000000000000000000081526004016115a29061328a565b60405180910390fd5b60008551116115ef576040517f08c379a00000000000000000000000000000000000000000000000000000000081526004016115e6906132f6565b60405180910390fd5b6000845111611633576040517f08c379a000000000000000000000000000000000000000000000000000000000815260040161162a90613362565b60405180910390fd5b6000835111611677576040517f08c379a000000000000000000000000000000000000000000000000000000000815260040161166e906133ce565b60405180910390fd5b600082116116ba576040517f08c379a00000000000000000000000000000000000000000000000000000000081526004016116b19061343a565b60405180910390fd5b60008151116116fe576040517f08c379a00000000000000000000000000000000000000000000000000000000081526004016116f5906134a6565b60405180910390fd5b60006040518061010001604052808a81526020018981526020018881526020018781526020018681526020018581526020018481526020018381525090506000803373ffffffffffffffffffffffffffffffffffffffff1673ffffffffffffffffffffffffffffffffffffffff16815260200190815260200160002081908060018154018082558091505060019003906000526020600020906008020160009091909190915060008201518160000190816117b991906134c6565b5060208201518160010190816117cf91906134c6565b5060408201518160020190816117e591906134c6565b5060608201518160030190816117fb91906134c6565b50608082015181600401908161181191906134c6565b5060a082015181600501908161182791906134c6565b5060c0820151816006015560e082015181600701908161184791906134c6565b50505060016000803373ffffffffffffffffffffffffffffffffffffffff1673ffffffffffffffffffffffffffffffffffffffff16815260200190815260200160002080549050036118f7576002339080600181540180825580915050600190039060005260206000200160009091909190916101000a81548173ffffffffffffffffffffffffffffffffffffffff021916908373ffffffffffffffffffffffffffffffffffffffff1602179055505b3373ffffffffffffffffffffffffffffffffffffffff167fb33be4898b3eae72be50da48dea4d99c1e830cd6f31f9d534998c4fcaa91b62e8960405161193d9190613089565b60405180910390a2505050505050505050565b6000602052816000526040600020818154811061196c57600080fd5b90600052602060002090600802016000915091505080600001805461199090612cdf565b80601f01602080910402602001604051908101604052809291908181526020018280546119bc90612cdf565b8015611a095780601f106119de57610100808354040283529160200191611a09565b820191906000526020600020905b8154815290600101906020018083116119ec57829003601f168201915b505050505090806001018054611a1e90612cdf565b80601f0160208091040260200160405190810160405280929190818152602001828054611a4a90612cdf565b8015611a975780601f10611a6c57610100808354040283529160200191611a97565b820191906000526020600020905b815481529060010190602001808311611a7a57829003601f168201915b505050505090806002018054611aac90612cdf565b80601f0160208091040260200160405190810160405280929190818152602001828054611ad890612cdf565b8015611b255780601f10611afa57610100808354040283529160200191611b25565b820191906000526020600020905b815481529060010190602001808311611b0857829003601f168201915b505050505090806003018054611b3a90612cdf565b80601f0160208091040260200160405190810160405280929190818152602001828054611b6690612cdf565b8015611bb35780601f10611b8857610100808354040283529160200191611bb3565b820191906000526020600020905b815481529060010190602001808311611b9657829003601f168201915b505050505090806004018054611bc890612cdf565b80601f0160208091040260200160405190810160405280929190818152602001828054611bf490612cdf565b8015611c415780601f10611c1657610100808354040283529160200191611c41565b820191906000526020600020905b815481529060010190602001808311611c2457829003601f168201915b505050505090806005018054611c5690612cdf565b80601f0160208091040260200160405190810160405280929190818152602001828054611c8290612cdf565b8015611ccf5780601f10611ca457610100808354040283529160200191611ccf565b820191906000526020600020905b815481529060010190602001808311611cb257829003601f168201915b505050505090806006015490806007018054611cea90612cdf565b80601f0160208091040260200160405190810160405280929190818152602001828054611d1690612cdf565b8015611d635780601f10611d3857610100808354040283529160200191611d63565b820191906000526020600020905b815481529060010190602001808311611d4657829003601f168201915b5050505050905088565b611d75612347565b6000805b6002805490508110156123065760005b60008060028481548110611da057611d9f612bd6565b5b9060005260206000200160009054906101000a900473ffffffffffffffffffffffffffffffffffffffff1673ffffffffffffffffffffffffffffffffffffffff1673ffffffffffffffffffffffffffffffffffffffff168152602001908152602001600020805490508110156122f2578483036122d15760008060028481548110611e2e57611e2d612bd6565b5b9060005260206000200160009054906101000a900473ffffffffffffffffffffffffffffffffffffffff1673ffffffffffffffffffffffffffffffffffffffff1673ffffffffffffffffffffffffffffffffffffffff1681526020019081526020016000208181548110611ea557611ea4612bd6565b5b906000526020600020906008020160405180610100016040529081600082018054611ecf90612cdf565b80601f0160208091040260200160405190810160405280929190818152602001828054611efb90612cdf565b8015611f485780601f10611f1d57610100808354040283529160200191611f48565b820191906000526020600020905b815481529060010190602001808311611f2b57829003601f168201915b50505050508152602001600182018054611f6190612cdf565b80601f0160208091040260200160405190810160405280929190818152602001828054611f8d90612cdf565b8015611fda5780601f10611faf57610100808354040283529160200191611fda565b820191906000526020600020905b815481529060010190602001808311611fbd57829003601f168201915b50505050508152602001600282018054611ff390612cdf565b80601f016020809104026020016040519081016040528092919081815260200182805461201f90612cdf565b801561206c5780601f106120415761010080835404028352916020019161206c565b820191906000526020600020905b81548152906001019060200180831161204f57829003601f168201915b5050505050815260200160038201805461208590612cdf565b80601f01602080910402602001604051908101604052809291908181526020018280546120b190612cdf565b80156120fe5780601f106120d3576101008083540402835291602001916120fe565b820191906000526020600020905b8154815290600101906020018083116120e157829003601f168201915b5050505050815260200160048201805461211790612cdf565b80601f016020809104026020016040519081016040528092919081815260200182805461214390612cdf565b80156121905780601f1061216557610100808354040283529160200191612190565b820191906000526020600020905b81548152906001019060200180831161217357829003601f168201915b505050505081526020016005820180546121a990612cdf565b80601f01602080910402602001604051908101604052809291908181526020018280546121d590612cdf565b80156122225780601f106121f757610100808354040283529160200191612222565b820191906000526020600020905b81548152906001019060200180831161220557829003601f168201915b505050505081526020016006820154815260200160078201805461224590612cdf565b80601f016020809104026020016040519081016040528092919081815260200182805461227190612cdf565b80156122be5780601f10612293576101008083540402835291602001916122be565b820191906000526020600020905b8154815290600101906020018083116122a157829003601f168201915b5050505050815250509350505050612342565b82806122dc90612c68565b93505080806122ea90612c68565b915050611d89565b5080806122fe90612c68565b915050611d79565b506040517f08c379a0000000000000000000000000000000000000000000000000000000008152600401612339906135e4565b60405180910390fd5b919050565b60405180610100016040528060608152602001606081526020016060815260200160608152602001606081526020016060815260200160008152602001606081525090565b50805461239890612cdf565b6000825580601f106123aa57506123c9565b601f0160209004906000526020600020908101906123c891906123cc565b5b50565b5b808211156123e55760008160009055506001016123cd565b5090565b6000604051905090565b600080fd5b600080fd5b6000819050919050565b612410816123fd565b811461241b57600080fd5b50565b60008135905061242d81612407565b92915050565b600060208284031215612449576124486123f3565b5b60006124578482850161241e565b91505092915050565b600073ffffffffffffffffffffffffffffffffffffffff82169050919050565b600061248b82612460565b9050919050565b61249b81612480565b82525050565b60006020820190506124b66000830184612492565b92915050565b600081519050919050565b600082825260208201905092915050565b6000819050602082019050919050565b600081519050919050565b600082825260208201905092915050565b60005b83811015612522578082015181840152602081019050612507565b60008484015250505050565b6000601f19601f8301169050919050565b600061254a826124e8565b61255481856124f3565b9350612564818560208601612504565b61256d8161252e565b840191505092915050565b612581816123fd565b82525050565b60006101008301600083015184820360008601526125a5828261253f565b915050602083015184820360208601526125bf828261253f565b915050604083015184820360408601526125d9828261253f565b915050606083015184820360608601526125f3828261253f565b9150506080830151848203608086015261260d828261253f565b91505060a083015184820360a0860152612627828261253f565b91505060c083015161263c60c0860182612578565b5060e083015184820360e0860152612654828261253f565b9150508091505092915050565b600061266d8383612587565b905092915050565b6000602082019050919050565b600061268d826124bc565b61269781856124c7565b9350836020820285016126a9856124d8565b8060005b858110156126e557848403895281516126c68582612661565b94506126d183612675565b925060208a019950506001810190506126ad565b50829750879550505050505092915050565b600060208201905081810360008301526127118184612682565b905092915050565b612722816123fd565b82525050565b600060208201905061273d6000830184612719565b92915050565b60008115159050919050565b61275881612743565b82525050565b60006060820190506127736000830186612492565b6127806020830185612719565b61278d604083018461274f565b949350505050565b61279e81612480565b81146127a957600080fd5b50565b6000813590506127bb81612795565b92915050565b6000602082840312156127d7576127d66123f3565b5b60006127e5848285016127ac565b91505092915050565b600080fd5b600080fd5b7f4e487b7100000000000000000000000000000000000000000000000000000000600052604160045260246000fd5b6128308261252e565b810181811067ffffffffffffffff8211171561284f5761284e6127f8565b5b80604052505050565b60006128626123e9565b905061286e8282612827565b919050565b600067ffffffffffffffff82111561288e5761288d6127f8565b5b6128978261252e565b9050602081019050919050565b82818337600083830152505050565b60006128c66128c184612873565b612858565b9050828152602081018484840111156128e2576128e16127f3565b5b6128ed8482856128a4565b509392505050565b600082601f83011261290a576129096127ee565b5b813561291a8482602086016128b3565b91505092915050565b600080600080600080600080610100898b031215612944576129436123f3565b5b600089013567ffffffffffffffff811115612962576129616123f8565b5b61296e8b828c016128f5565b985050602089013567ffffffffffffffff81111561298f5761298e6123f8565b5b61299b8b828c016128f5565b975050604089013567ffffffffffffffff8111156129bc576129bb6123f8565b5b6129c88b828c016128f5565b965050606089013567ffffffffffffffff8111156129e9576129e86123f8565b5b6129f58b828c016128f5565b955050608089013567ffffffffffffffff811115612a1657612a156123f8565b5b612a228b828c016128f5565b94505060a089013567ffffffffffffffff811115612a4357612a426123f8565b5b612a4f8b828c016128f5565b93505060c0612a608b828c0161241e565b92505060e089013567ffffffffffffffff811115612a8157612a806123f8565b5b612a8d8b828c016128f5565b9150509295985092959890939650565b60008060408385031215612ab457612ab36123f3565b5b6000612ac2858286016127ac565b9250506020612ad38582860161241e565b9150509250929050565b600082825260208201905092915050565b6000612af9826124e8565b612b038185612add565b9350612b13818560208601612504565b612b1c8161252e565b840191505092915050565b6000610100820190508181036000830152612b42818b612aee565b90508181036020830152612b56818a612aee565b90508181036040830152612b6a8189612aee565b90508181036060830152612b7e8188612aee565b90508181036080830152612b928187612aee565b905081810360a0830152612ba68186612aee565b9050612bb560c0830185612719565b81810360e0830152612bc78184612aee565b90509998505050505050505050565b7f4e487b7100000000000000000000000000000000000000000000000000000000600052603260045260246000fd5b7f4e487b7100000000000000000000000000000000000000000000000000000000600052601160045260246000fd5b6000612c3f826123fd565b9150612c4a836123fd565b9250828201905080821115612c6257612c61612c05565b5b92915050565b6000612c73826123fd565b91507fffffffffffffffffffffffffffffffffffffffffffffffffffffffffffffffff8203612ca557612ca4612c05565b5b600182019050919050565b7f4e487b7100000000000000000000000000000000000000000000000000000000600052602260045260246000fd5b60006002820490506001821680612cf757607f821691505b602082108103612d0a57612d09612cb0565b5b50919050565b7f5365727669636520696e646578206f7574206f6620626f756e64730000000000600082015250565b6000612d46601b83612add565b9150612d5182612d10565b602082019050919050565b60006020820190508181036000830152612d7581612d39565b9050919050565b6000612d87826123fd565b9150612d92836123fd565b9250828203905081811115612daa57612da9612c05565b5b92915050565b600081549050612dbf81612cdf565b9050919050565b60008190508160005260206000209050919050565b60006020601f8301049050919050565b600082821b905092915050565b600060088302612e287fffffffffffffffffffffffffffffffffffffffffffffffffffffffffffffffff82612deb565b612e328683612deb565b95508019841693508086168417925050509392505050565b6000819050919050565b6000612e6f612e6a612e65846123fd565b612e4a565b6123fd565b9050919050565b6000819050919050565b612e8983612e54565b612e9d612e9582612e76565b848454612df8565b825550505050565b600090565b612eb2612ea5565b612ebd818484612e80565b505050565b5b81811015612ee157612ed6600082612eaa565b600181019050612ec3565b5050565b601f821115612f2657612ef781612dc6565b612f0084612ddb565b81016020851015612f0f578190505b612f23612f1b85612ddb565b830182612ec2565b50505b505050565b600082821c905092915050565b6000612f4960001984600802612f2b565b1980831691505092915050565b6000612f628383612f38565b9150826002028217905092915050565b818103612f80575050613058565b612f8982612db0565b67ffffffffffffffff811115612fa257612fa16127f8565b5b612fac8254612cdf565b612fb7828285612ee5565b6000601f831160018114612fe65760008415612fd4578287015490505b612fde8582612f56565b865550613051565b601f198416612ff487612dc6565b9650612fff86612dc6565b60005b8281101561302757848901548255600182019150600185019450602081019050613002565b868310156130445784890154613040601f891682612f38565b8355505b6001600288020188555050505b5050505050505b565b7f4e487b7100000000000000000000000000000000000000000000000000000000600052603160045260246000fd5b600060208201905081810360008301526130a38184612aee565b905092915050565b7f4f6e6c792074686520757365722077686f20706c6163656420746865206f726460008201527f65722063616e20636f6e6669726d206974000000000000000000000000000000602082015250565b6000613107603183612add565b9150613112826130ab565b604082019050919050565b60006020820190508181036000830152613136816130fa565b9050919050565b7f496e636f7272656374207061796d656e7420616d6f756e740000000000000000600082015250565b6000613173601883612add565b915061317e8261313d565b602082019050919050565b600060208201905081810360008301526131a281613166565b9050919050565b60006040820190506131be6000830185612719565b6131cb6020830184612719565b9392505050565b7f53657276696365206e616d652072657175697265640000000000000000000000600082015250565b6000613208601583612add565b9150613213826131d2565b602082019050919050565b60006020820190508181036000830152613237816131fb565b9050919050565b7f536572766963652063617465676f727920726571756972656400000000000000600082015250565b6000613274601983612add565b915061327f8261323e565b602082019050919050565b600060208201905081810360008301526132a381613267565b9050919050565b7f4164647265737320726571756972656400000000000000000000000000000000600082015250565b60006132e0601083612add565b91506132eb826132aa565b602082019050919050565b6000602082019050818103600083015261330f816132d3565b9050919050565b7f50686f6e65206e756d6265722072657175697265640000000000000000000000600082015250565b600061334c601583612add565b915061335782613316565b602082019050919050565b6000602082019050818103600083015261337b8161333f565b9050919050565b7f456d61696c207265717569726564000000000000000000000000000000000000600082015250565b60006133b8600e83612add565b91506133c382613382565b602082019050919050565b600060208201905081810360008301526133e7816133ab565b9050919050565b7f436f7374206d7573742062652067726561746572207468616e207a65726f0000600082015250565b6000613424601e83612add565b915061342f826133ee565b602082019050919050565b6000602082019050818103600083015261345381613417565b9050919050565b7f43757272656e6379207265717569726564000000000000000000000000000000600082015250565b6000613490601183612add565b915061349b8261345a565b602082019050919050565b600060208201905081810360008301526134bf81613483565b9050919050565b6134cf826124e8565b67ffffffffffffffff8111156134e8576134e76127f8565b5b6134f28254612cdf565b6134fd828285612ee5565b600060209050601f831160018114613530576000841561351e578287015190505b6135288582612f56565b865550613590565b601f19841661353e86612dc6565b60005b8281101561356657848901518255600182019150602085019450602081019050613541565b86831015613583578489015161357f601f891682612f38565b8355505b6001600288020188555050505b505050505050565b7f53657276696365206e6f7420666f756e64000000000000000000000000000000600082015250565b60006135ce601183612add565b91506135d982613598565b602082019050919050565b600060208201905081810360008301526135fd816135c1565b905091905056fea26469706673582212208222a9a79b3c5e5da934bb7dad5f86e33b4a9776ff285a88ace98db6e52e23f364736f6c63430008130033",
  "immutableReferences": {},
  "source": "// SPDX-License-Identifier: MIT\r\npragma solidity >=0.8.19;\r\n\r\ncontract ServiceContract {\r\n    struct Service {\r\n        string logo;\r\n        string name;\r\n        string category;\r\n        string addressDetail;\r\n        string phoneNumber;\r\n        string email;\r\n        uint256 cost;\r\n        string currency;\r\n    }\r\n\r\n    struct Order {\r\n        address user;\r\n        uint256 serviceId;\r\n        bool isCompleted;\r\n    }\r\n\r\n    mapping(address => Service[]) public services;\r\n    mapping(uint256 => Order) public orders;\r\n    address[] public serviceProviders;\r\n    uint256 public orderCount;\r\n\r\n    event ServiceAdded(address indexed user, string name);\r\n    event ServiceDeleted(address indexed user, string name);\r\n    event OrderPlaced(address indexed user, uint256 serviceId, uint256 orderId);\r\n    event OrderCompleted(uint256 orderId);\r\n\r\n    function addService(\r\n        string memory _logo,\r\n        string memory _name,\r\n        string memory _category,\r\n        string memory _addressDetail,\r\n        string memory _phoneNumber,\r\n        string memory _email,\r\n        uint256 _cost,\r\n        string memory _currency\r\n    ) public {\r\n        require(bytes(_name).length > 0, \"Service name required\");\r\n        require(bytes(_category).length > 0, \"Service category required\");\r\n        require(bytes(_addressDetail).length > 0, \"Address required\");\r\n        require(bytes(_phoneNumber).length > 0, \"Phone number required\");\r\n        require(bytes(_email).length > 0, \"Email required\");\r\n        require(_cost > 0, \"Cost must be greater than zero\");\r\n        require(bytes(_currency).length > 0, \"Currency required\");\r\n\r\n        Service memory newService = Service({\r\n            logo: _logo,\r\n            name: _name,\r\n            category: _category,\r\n            addressDetail: _addressDetail,\r\n            phoneNumber: _phoneNumber,\r\n            email: _email,\r\n            cost: _cost,\r\n            currency: _currency\r\n        });\r\n\r\n        services[msg.sender].push(newService);\r\n        if (services[msg.sender].length == 1) {\r\n            serviceProviders.push(msg.sender);\r\n        }\r\n        emit ServiceAdded(msg.sender, _name);\r\n    }\r\n\r\n    function getServices(address _user) public view returns (Service[] memory) {\r\n        return services[_user];\r\n    }\r\n\r\n    function deleteService(uint256 index) public {\r\n        require(index < services[msg.sender].length, \"Service index out of bounds\");\r\n        Service[] storage userServices = services[msg.sender];\r\n\r\n        string memory serviceName = userServices[index].name;\r\n\r\n        for (uint256 i = index; i < userServices.length - 1; i++) {\r\n            userServices[i] = userServices[i + 1];\r\n        }\r\n\r\n        userServices.pop();\r\n        emit ServiceDeleted(msg.sender, serviceName);\r\n    }\r\n\r\n    function getAllServices() public view returns (Service[] memory) {\r\n        uint totalServices;\r\n        for (uint i = 0; i < serviceProviders.length; i++) {\r\n            totalServices += services[serviceProviders[i]].length;\r\n        }\r\n\r\n        Service[] memory allServices = new Service[](totalServices);\r\n        uint counter = 0;\r\n        for (uint i = 0; i < serviceProviders.length; i++) {\r\n            for (uint j = 0; j < services[serviceProviders[i]].length; j++) {\r\n                allServices[counter] = services[serviceProviders[i]][j];\r\n                counter++;\r\n            }\r\n        }\r\n\r\n        return allServices;\r\n    }\r\n\r\n    function placeOrder(uint256 serviceId) public payable {\r\n        Service memory service = getServiceById(serviceId);\r\n        require(msg.value == service.cost, \"Incorrect payment amount\");\r\n\r\n        orders[orderCount] = Order({\r\n            user: msg.sender,\r\n            serviceId: serviceId,\r\n            isCompleted: false\r\n        });\r\n\r\n        emit OrderPlaced(msg.sender, serviceId, orderCount);\r\n        orderCount++;\r\n    }\r\n\r\n    function confirmOrder(uint256 orderId) public {\r\n        Order storage order = orders[orderId];\r\n        require(order.user == msg.sender, \"Only the user who placed the order can confirm it\");\r\n\r\n        order.isCompleted = true;\r\n        Service memory service = getServiceById(order.serviceId);\r\n        payable(serviceProviders[order.serviceId]).transfer(service.cost);\r\n\r\n        emit OrderCompleted(orderId);\r\n    }\r\n\r\n    function getServiceById(uint256 serviceId) internal view returns (Service memory) {\r\n        uint counter = 0;\r\n        for (uint i = 0; i < serviceProviders.length; i++) {\r\n            for (uint j = 0; j < services[serviceProviders[i]].length; j++) {\r\n                if (counter == serviceId) {\r\n                    return services[serviceProviders[i]][j];\r\n                }\r\n                counter++;\r\n            }\r\n        }\r\n        revert(\"Service not found\");\r\n    }\r\n}\r\n",
  "sourcePath": "C:\\Users\\Kevin Sorensen\\GitHub\\Aclean\\aclean-dapps\\blockchain\\contracts\\ServiceContract.sol",
  "compiler": {
    "name": "solc",
    "version": "0.8.19+commit.7dd6d404.Emscripten.clang"
  },
  "schemaVersion": "3.4.16",
  "updatedAt": "2024-05-18T16:07:45.045Z",
  "networkType": "ethereum",
  "devdoc": {
    "kind": "dev",
    "methods": {},
    "version": 1
  },
  "userdoc": {
    "kind": "user",
    "methods": {},
    "version": 1
  }
}