{
  "contractName": "ServiceContract",
  "abi": [
    {
      "anonymous": false,
      "inputs": [
        {
          "indexed": true,
          "internalType": "address",
          "name": "user",
          "type": "address"
        },
        {
          "indexed": false,
          "internalType": "uint256",
          "name": "serviceId",
          "type": "uint256"
        },
        {
          "indexed": false,
          "internalType": "uint256",
          "name": "orderId",
          "type": "uint256"
        }
      ],
      "name": "OrderPlaced",
      "type": "event"
    },
    {
      "anonymous": false,
      "inputs": [
        {
          "indexed": false,
          "internalType": "uint256",
          "name": "orderId",
          "type": "uint256"
        },
        {
          "indexed": false,
          "internalType": "enum ServiceContract.OrderStatus",
          "name": "status",
          "type": "uint8"
        }
      ],
      "name": "OrderStatusChanged",
      "type": "event"
    },
    {
      "anonymous": false,
      "inputs": [
        {
          "indexed": true,
          "internalType": "address",
          "name": "user",
          "type": "address"
        },
        {
          "indexed": false,
          "internalType": "string",
          "name": "name",
          "type": "string"
        }
      ],
      "name": "ServiceAdded",
      "type": "event"
    },
    {
      "anonymous": false,
      "inputs": [
        {
          "indexed": true,
          "internalType": "address",
          "name": "user",
          "type": "address"
        },
        {
          "indexed": false,
          "internalType": "string",
          "name": "name",
          "type": "string"
        }
      ],
      "name": "ServiceDeleted",
      "type": "event"
    },
    {
      "inputs": [],
      "name": "orderCount",
      "outputs": [
        {
          "internalType": "uint256",
          "name": "",
          "type": "uint256"
        }
      ],
      "stateMutability": "view",
      "type": "function",
      "constant": true
    },
    {
      "inputs": [
        {
          "internalType": "uint256",
          "name": "",
          "type": "uint256"
        }
      ],
      "name": "orders",
      "outputs": [
        {
          "internalType": "address",
          "name": "user",
          "type": "address"
        },
        {
          "internalType": "uint256",
          "name": "serviceId",
          "type": "uint256"
        },
        {
          "internalType": "string",
          "name": "serviceName",
          "type": "string"
        },
        {
          "internalType": "uint256",
          "name": "serviceCost",
          "type": "uint256"
        },
        {
          "internalType": "string",
          "name": "serviceCurrency",
          "type": "string"
        },
        {
          "internalType": "enum ServiceContract.OrderStatus",
          "name": "status",
          "type": "uint8"
        }
      ],
      "stateMutability": "view",
      "type": "function",
      "constant": true
    },
    {
      "inputs": [
        {
          "internalType": "uint256",
          "name": "",
          "type": "uint256"
        }
      ],
      "name": "serviceProviders",
      "outputs": [
        {
          "internalType": "address",
          "name": "",
          "type": "address"
        }
      ],
      "stateMutability": "view",
      "type": "function",
      "constant": true
    },
    {
      "inputs": [
        {
          "internalType": "address",
          "name": "",
          "type": "address"
        },
        {
          "internalType": "uint256",
          "name": "",
          "type": "uint256"
        }
      ],
      "name": "services",
      "outputs": [
        {
          "internalType": "string",
          "name": "logo",
          "type": "string"
        },
        {
          "internalType": "string",
          "name": "name",
          "type": "string"
        },
        {
          "internalType": "string",
          "name": "category",
          "type": "string"
        },
        {
          "internalType": "string",
          "name": "addressDetail",
          "type": "string"
        },
        {
          "internalType": "string",
          "name": "phoneNumber",
          "type": "string"
        },
        {
          "internalType": "string",
          "name": "email",
          "type": "string"
        },
        {
          "internalType": "uint256",
          "name": "cost",
          "type": "uint256"
        },
        {
          "internalType": "string",
          "name": "currency",
          "type": "string"
        },
        {
          "internalType": "address",
          "name": "owner",
          "type": "address"
        }
      ],
      "stateMutability": "view",
      "type": "function",
      "constant": true
    },
    {
      "inputs": [
        {
          "internalType": "string",
          "name": "_logo",
          "type": "string"
        },
        {
          "internalType": "string",
          "name": "_name",
          "type": "string"
        },
        {
          "internalType": "string",
          "name": "_category",
          "type": "string"
        },
        {
          "internalType": "string",
          "name": "_addressDetail",
          "type": "string"
        },
        {
          "internalType": "string",
          "name": "_phoneNumber",
          "type": "string"
        },
        {
          "internalType": "string",
          "name": "_email",
          "type": "string"
        },
        {
          "internalType": "uint256",
          "name": "_cost",
          "type": "uint256"
        },
        {
          "internalType": "string",
          "name": "_currency",
          "type": "string"
        }
      ],
      "name": "addService",
      "outputs": [],
      "stateMutability": "nonpayable",
      "type": "function"
    },
    {
      "inputs": [
        {
          "internalType": "address",
          "name": "_user",
          "type": "address"
        }
      ],
      "name": "getServices",
      "outputs": [
        {
          "components": [
            {
              "internalType": "string",
              "name": "logo",
              "type": "string"
            },
            {
              "internalType": "string",
              "name": "name",
              "type": "string"
            },
            {
              "internalType": "string",
              "name": "category",
              "type": "string"
            },
            {
              "internalType": "string",
              "name": "addressDetail",
              "type": "string"
            },
            {
              "internalType": "string",
              "name": "phoneNumber",
              "type": "string"
            },
            {
              "internalType": "string",
              "name": "email",
              "type": "string"
            },
            {
              "internalType": "uint256",
              "name": "cost",
              "type": "uint256"
            },
            {
              "internalType": "string",
              "name": "currency",
              "type": "string"
            },
            {
              "internalType": "address",
              "name": "owner",
              "type": "address"
            }
          ],
          "internalType": "struct ServiceContract.Service[]",
          "name": "",
          "type": "tuple[]"
        }
      ],
      "stateMutability": "view",
      "type": "function",
      "constant": true
    },
    {
      "inputs": [
        {
          "internalType": "uint256",
          "name": "index",
          "type": "uint256"
        }
      ],
      "name": "deleteService",
      "outputs": [],
      "stateMutability": "nonpayable",
      "type": "function"
    },
    {
      "inputs": [],
      "name": "getAllServices",
      "outputs": [
        {
          "components": [
            {
              "internalType": "string",
              "name": "logo",
              "type": "string"
            },
            {
              "internalType": "string",
              "name": "name",
              "type": "string"
            },
            {
              "internalType": "string",
              "name": "category",
              "type": "string"
            },
            {
              "internalType": "string",
              "name": "addressDetail",
              "type": "string"
            },
            {
              "internalType": "string",
              "name": "phoneNumber",
              "type": "string"
            },
            {
              "internalType": "string",
              "name": "email",
              "type": "string"
            },
            {
              "internalType": "uint256",
              "name": "cost",
              "type": "uint256"
            },
            {
              "internalType": "string",
              "name": "currency",
              "type": "string"
            },
            {
              "internalType": "address",
              "name": "owner",
              "type": "address"
            }
          ],
          "internalType": "struct ServiceContract.Service[]",
          "name": "",
          "type": "tuple[]"
        }
      ],
      "stateMutability": "view",
      "type": "function",
      "constant": true
    },
    {
      "inputs": [
        {
          "internalType": "uint256",
          "name": "serviceId",
          "type": "uint256"
        }
      ],
      "name": "placeOrder",
      "outputs": [],
      "stateMutability": "payable",
      "type": "function",
      "payable": true
    },
    {
      "inputs": [
        {
          "internalType": "uint256",
          "name": "orderId",
          "type": "uint256"
        }
      ],
      "name": "startOrder",
      "outputs": [],
      "stateMutability": "nonpayable",
      "type": "function"
    },
    {
      "inputs": [
        {
          "internalType": "uint256",
          "name": "orderId",
          "type": "uint256"
        }
      ],
      "name": "confirmOrder",
      "outputs": [],
      "stateMutability": "nonpayable",
      "type": "function"
    },
    {
      "inputs": [
        {
          "internalType": "uint256",
          "name": "serviceId",
          "type": "uint256"
        }
      ],
      "name": "getServiceById",
      "outputs": [
        {
          "components": [
            {
              "internalType": "string",
              "name": "logo",
              "type": "string"
            },
            {
              "internalType": "string",
              "name": "name",
              "type": "string"
            },
            {
              "internalType": "string",
              "name": "category",
              "type": "string"
            },
            {
              "internalType": "string",
              "name": "addressDetail",
              "type": "string"
            },
            {
              "internalType": "string",
              "name": "phoneNumber",
              "type": "string"
            },
            {
              "internalType": "string",
              "name": "email",
              "type": "string"
            },
            {
              "internalType": "uint256",
              "name": "cost",
              "type": "uint256"
            },
            {
              "internalType": "string",
              "name": "currency",
              "type": "string"
            },
            {
              "internalType": "address",
              "name": "owner",
              "type": "address"
            }
          ],
          "internalType": "struct ServiceContract.Service",
          "name": "",
          "type": "tuple"
        }
      ],
      "stateMutability": "view",
      "type": "function",
      "constant": true
    },
    {
      "inputs": [],
      "name": "getAllOrders",
      "outputs": [
        {
          "components": [
            {
              "internalType": "address",
              "name": "user",
              "type": "address"
            },
            {
              "internalType": "uint256",
              "name": "serviceId",
              "type": "uint256"
            },
            {
              "internalType": "string",
              "name": "serviceName",
              "type": "string"
            },
            {
              "internalType": "uint256",
              "name": "serviceCost",
              "type": "uint256"
            },
            {
              "internalType": "string",
              "name": "serviceCurrency",
              "type": "string"
            },
            {
              "internalType": "enum ServiceContract.OrderStatus",
              "name": "status",
              "type": "uint8"
            }
          ],
          "internalType": "struct ServiceContract.Order[]",
          "name": "",
          "type": "tuple[]"
        }
      ],
      "stateMutability": "view",
      "type": "function",
      "constant": true
    },
    {
      "inputs": [
        {
          "internalType": "bool",
          "name": "isCompleted",
          "type": "bool"
        }
      ],
      "name": "getOrdersByStatus",
      "outputs": [
        {
          "components": [
            {
              "internalType": "address",
              "name": "user",
              "type": "address"
            },
            {
              "internalType": "uint256",
              "name": "serviceId",
              "type": "uint256"
            },
            {
              "internalType": "string",
              "name": "serviceName",
              "type": "string"
            },
            {
              "internalType": "uint256",
              "name": "serviceCost",
              "type": "uint256"
            },
            {
              "internalType": "string",
              "name": "serviceCurrency",
              "type": "string"
            },
            {
              "internalType": "enum ServiceContract.OrderStatus",
              "name": "status",
              "type": "uint8"
            }
          ],
          "internalType": "struct ServiceContract.Order[]",
          "name": "",
          "type": "tuple[]"
        }
      ],
      "stateMutability": "view",
      "type": "function",
      "constant": true
    }
  ],
  "bytecode": "0x608060405234801561001057600080fd5b506146a5806100206000396000f3fe6080604052600436106100dd5760003560e01c8063a85c38ef1161007f578063bbd882f011610059578063bbd882f0146102b6578063c134f17e146102df578063ceb27daa14610324578063d7e6116314610361576100dd565b8063a85c38ef1461021b578063b2532a451461025d578063ba2255f41461029a576100dd565b806374e29ee6116100bb57806374e29ee6146101755780637bea0d1c1461019e5780637d41fdd9146101c95780638ac7d79c146101f2576100dd565b80630a02dcc7146100e257806321fe0f301461011f5780632453ffa81461014a575b600080fd5b3480156100ee57600080fd5b506101096004803603810190610104919061308f565b61039e565b60405161011691906130fd565b60405180910390f35b34801561012b57600080fd5b506101346103dd565b6040516101419190613377565b60405180910390f35b34801561015657600080fd5b5061015f610aeb565b60405161016c91906133a8565b60405180910390f35b34801561018157600080fd5b5061019c6004803603810190610197919061308f565b610af1565b005b3480156101aa57600080fd5b506101b3610f0a565b6040516101c0919061358c565b60405180910390f35b3480156101d557600080fd5b506101f060048036038101906101eb919061308f565b6111a2565b005b3480156101fe57600080fd5b506102196004803603810190610214919061308f565b6112b8565b005b34801561022757600080fd5b50610242600480360381019061023d919061308f565b61143d565b60405161025496959493929190613607565b60405180910390f35b34801561026957600080fd5b50610284600480360381019061027f91906136a2565b6115c6565b6040516102919190613377565b60405180910390f35b6102b460048036038101906102af919061308f565b611ac2565b005b3480156102c257600080fd5b506102dd60048036038101906102d89190613804565b611c83565b005b3480156102eb57600080fd5b506103066004803603810190610301919061397e565b612114565b60405161031b999897969594939291906139be565b60405180910390f35b34801561033057600080fd5b5061034b60048036038101906103469190613ab4565b612557565b604051610358919061358c565b60405180910390f35b34801561036d57600080fd5b506103886004803603810190610383919061308f565b6128f8565b6040516103959190613bd0565b60405180910390f35b600281815481106103ae57600080fd5b906000526020600020016000915054906101000a900473ffffffffffffffffffffffffffffffffffffffff1681565b6060600080600090505b600280549050811015610494576000806002838154811061040b5761040a613bf2565b5b9060005260206000200160009054906101000a900473ffffffffffffffffffffffffffffffffffffffff1673ffffffffffffffffffffffffffffffffffffffff1673ffffffffffffffffffffffffffffffffffffffff168152602001908152602001600020805490508261047f9190613c50565b9150808061048c90613c84565b9150506103e7565b5060008167ffffffffffffffff8111156104b1576104b06136d9565b5b6040519080825280602002602001820160405280156104ea57816020015b6104d7612f28565b8152602001906001900390816104cf5790505b5090506000805b600280549050811015610ae15760005b6000806002848154811061051857610517613bf2565b5b9060005260206000200160009054906101000a900473ffffffffffffffffffffffffffffffffffffffff1673ffffffffffffffffffffffffffffffffffffffff1673ffffffffffffffffffffffffffffffffffffffff16815260200190815260200160002080549050811015610acd576000806002848154811061059f5761059e613bf2565b5b9060005260206000200160009054906101000a900473ffffffffffffffffffffffffffffffffffffffff1673ffffffffffffffffffffffffffffffffffffffff1673ffffffffffffffffffffffffffffffffffffffff168152602001908152602001600020818154811061061657610615613bf2565b5b90600052602060002090600902016040518061012001604052908160008201805461064090613cfb565b80601f016020809104026020016040519081016040528092919081815260200182805461066c90613cfb565b80156106b95780601f1061068e576101008083540402835291602001916106b9565b820191906000526020600020905b81548152906001019060200180831161069c57829003601f168201915b505050505081526020016001820180546106d290613cfb565b80601f01602080910402602001604051908101604052809291908181526020018280546106fe90613cfb565b801561074b5780601f106107205761010080835404028352916020019161074b565b820191906000526020600020905b81548152906001019060200180831161072e57829003601f168201915b5050505050815260200160028201805461076490613cfb565b80601f016020809104026020016040519081016040528092919081815260200182805461079090613cfb565b80156107dd5780601f106107b2576101008083540402835291602001916107dd565b820191906000526020600020905b8154815290600101906020018083116107c057829003601f168201915b505050505081526020016003820180546107f690613cfb565b80601f016020809104026020016040519081016040528092919081815260200182805461082290613cfb565b801561086f5780601f106108445761010080835404028352916020019161086f565b820191906000526020600020905b81548152906001019060200180831161085257829003601f168201915b5050505050815260200160048201805461088890613cfb565b80601f01602080910402602001604051908101604052809291908181526020018280546108b490613cfb565b80156109015780601f106108d657610100808354040283529160200191610901565b820191906000526020600020905b8154815290600101906020018083116108e457829003601f168201915b5050505050815260200160058201805461091a90613cfb565b80601f016020809104026020016040519081016040528092919081815260200182805461094690613cfb565b80156109935780601f1061096857610100808354040283529160200191610993565b820191906000526020600020905b81548152906001019060200180831161097657829003601f168201915b50505050508152602001600682015481526020016007820180546109b690613cfb565b80601f01602080910402602001604051908101604052809291908181526020018280546109e290613cfb565b8015610a2f5780601f10610a0457610100808354040283529160200191610a2f565b820191906000526020600020905b815481529060010190602001808311610a1257829003601f168201915b505050505081526020016008820160009054906101000a900473ffffffffffffffffffffffffffffffffffffffff1673ffffffffffffffffffffffffffffffffffffffff1673ffffffffffffffffffffffffffffffffffffffff1681525050848481518110610aa157610aa0613bf2565b5b60200260200101819052508280610ab790613c84565b9350508080610ac590613c84565b915050610501565b508080610ad990613c84565b9150506104f1565b5081935050505090565b60035481565b6000803373ffffffffffffffffffffffffffffffffffffffff1673ffffffffffffffffffffffffffffffffffffffff168152602001908152602001600020805490508110610b74576040517f08c379a0000000000000000000000000000000000000000000000000000000008152600401610b6b90613d78565b60405180910390fd5b60008060003373ffffffffffffffffffffffffffffffffffffffff1673ffffffffffffffffffffffffffffffffffffffff16815260200190815260200160002090506000818381548110610bcb57610bca613bf2565b5b90600052602060002090600902016001018054610be790613cfb565b80601f0160208091040260200160405190810160405280929190818152602001828054610c1390613cfb565b8015610c605780601f10610c3557610100808354040283529160200191610c60565b820191906000526020600020905b815481529060010190602001808311610c4357829003601f168201915b5050505050905060008390505b60018380549050610c7e9190613d98565b811015610ded5782600182610c939190613c50565b81548110610ca457610ca3613bf2565b5b9060005260206000209060090201838281548110610cc557610cc4613bf2565b5b906000526020600020906009020160008201816000019081610ce79190613f8e565b5060018201816001019081610cfc9190613f8e565b5060028201816002019081610d119190613f8e565b5060038201816003019081610d269190613f8e565b5060048201816004019081610d3b9190613f8e565b5060058201816005019081610d509190613f8e565b506006820154816006015560078201816007019081610d6f9190613f8e565b506008820160009054906101000a900473ffffffffffffffffffffffffffffffffffffffff168160080160006101000a81548173ffffffffffffffffffffffffffffffffffffffff021916908373ffffffffffffffffffffffffffffffffffffffff1602179055509050508080610de590613c84565b915050610c6d565b5081805480610dff57610dfe614076565b5b600190038181906000526020600020906009020160008082016000610e249190612f8a565b600182016000610e349190612f8a565b600282016000610e449190612f8a565b600382016000610e549190612f8a565b600482016000610e649190612f8a565b600582016000610e749190612f8a565b6006820160009055600782016000610e8c9190612f8a565b6008820160006101000a81549073ffffffffffffffffffffffffffffffffffffffff0219169055505090553373ffffffffffffffffffffffffffffffffffffffff167f970480f79372727bc0f144df151fd4335131d28955ae2cbabd6c79326917a6d682604051610efd91906140a5565b60405180910390a2505050565b6060600060035467ffffffffffffffff811115610f2a57610f296136d9565b5b604051908082528060200260200182016040528015610f6357816020015b610f50612fca565b815260200190600190039081610f485790505b50905060005b60035481101561119a5760018181548110610f8757610f86613bf2565b5b90600052602060002090600602016040518060c00160405290816000820160009054906101000a900473ffffffffffffffffffffffffffffffffffffffff1673ffffffffffffffffffffffffffffffffffffffff1673ffffffffffffffffffffffffffffffffffffffff1681526020016001820154815260200160028201805461101090613cfb565b80601f016020809104026020016040519081016040528092919081815260200182805461103c90613cfb565b80156110895780601f1061105e57610100808354040283529160200191611089565b820191906000526020600020905b81548152906001019060200180831161106c57829003601f168201915b50505050508152602001600382015481526020016004820180546110ac90613cfb565b80601f01602080910402602001604051908101604052809291908181526020018280546110d890613cfb565b80156111255780601f106110fa57610100808354040283529160200191611125565b820191906000526020600020905b81548152906001019060200180831161110857829003601f168201915b505050505081526020016005820160009054906101000a900460ff166002811115611153576111526133ef565b5b6002811115611165576111646133ef565b5b8152505082828151811061117c5761117b613bf2565b5b6020026020010181905250808061119290613c84565b915050610f69565b508091505090565b6000600182815481106111b8576111b7613bf2565b5b9060005260206000209060060201905060006111d782600101546128f8565b90503373ffffffffffffffffffffffffffffffffffffffff1681610100015173ffffffffffffffffffffffffffffffffffffffff161461124c576040517f08c379a000000000000000000000000000000000000000000000000000000000815260040161124390614139565b60405180910390fd5b60018260050160006101000a81548160ff02191690836002811115611274576112736133ef565b5b02179055507f15fe7663e318fda785235fa9e39aa6923ffd39fe53631991197fb842f34f6ba98360016040516112ab929190614159565b60405180910390a1505050565b6000600182815481106112ce576112cd613bf2565b5b906000526020600020906006020190503373ffffffffffffffffffffffffffffffffffffffff168160000160009054906101000a900473ffffffffffffffffffffffffffffffffffffffff1673ffffffffffffffffffffffffffffffffffffffff1614611370576040517f08c379a0000000000000000000000000000000000000000000000000000000008152600401611367906141f4565b60405180910390fd5b60028160050160006101000a81548160ff02191690836002811115611398576113976133ef565b5b021790555060006113ac82600101546128f8565b905080610100015173ffffffffffffffffffffffffffffffffffffffff166108fc8260c001519081150290604051600060405180830381858888f193505050501580156113fd573d6000803e3d6000fd5b507f15fe7663e318fda785235fa9e39aa6923ffd39fe53631991197fb842f34f6ba9836002604051611430929190614159565b60405180910390a1505050565b6001818154811061144d57600080fd5b90600052602060002090600602016000915090508060000160009054906101000a900473ffffffffffffffffffffffffffffffffffffffff169080600101549080600201805461149c90613cfb565b80601f01602080910402602001604051908101604052809291908181526020018280546114c890613cfb565b80156115155780601f106114ea57610100808354040283529160200191611515565b820191906000526020600020905b8154815290600101906020018083116114f857829003601f168201915b50505050509080600301549080600401805461153090613cfb565b80601f016020809104026020016040519081016040528092919081815260200182805461155c90613cfb565b80156115a95780601f1061157e576101008083540402835291602001916115a9565b820191906000526020600020905b81548152906001019060200180831161158c57829003601f168201915b5050505050908060050160009054906101000a900460ff16905086565b60606000808373ffffffffffffffffffffffffffffffffffffffff1673ffffffffffffffffffffffffffffffffffffffff168152602001908152602001600020805480602002602001604051908101604052809291908181526020016000905b82821015611ab757838290600052602060002090600902016040518061012001604052908160008201805461165a90613cfb565b80601f016020809104026020016040519081016040528092919081815260200182805461168690613cfb565b80156116d35780601f106116a8576101008083540402835291602001916116d3565b820191906000526020600020905b8154815290600101906020018083116116b657829003601f168201915b505050505081526020016001820180546116ec90613cfb565b80601f016020809104026020016040519081016040528092919081815260200182805461171890613cfb565b80156117655780601f1061173a57610100808354040283529160200191611765565b820191906000526020600020905b81548152906001019060200180831161174857829003601f168201915b5050505050815260200160028201805461177e90613cfb565b80601f01602080910402602001604051908101604052809291908181526020018280546117aa90613cfb565b80156117f75780601f106117cc576101008083540402835291602001916117f7565b820191906000526020600020905b8154815290600101906020018083116117da57829003601f168201915b5050505050815260200160038201805461181090613cfb565b80601f016020809104026020016040519081016040528092919081815260200182805461183c90613cfb565b80156118895780601f1061185e57610100808354040283529160200191611889565b820191906000526020600020905b81548152906001019060200180831161186c57829003601f168201915b505050505081526020016004820180546118a290613cfb565b80601f01602080910402602001604051908101604052809291908181526020018280546118ce90613cfb565b801561191b5780601f106118f05761010080835404028352916020019161191b565b820191906000526020600020905b8154815290600101906020018083116118fe57829003601f168201915b5050505050815260200160058201805461193490613cfb565b80601f016020809104026020016040519081016040528092919081815260200182805461196090613cfb565b80156119ad5780601f10611982576101008083540402835291602001916119ad565b820191906000526020600020905b81548152906001019060200180831161199057829003601f168201915b50505050508152602001600682015481526020016007820180546119d090613cfb565b80601f01602080910402602001604051908101604052809291908181526020018280546119fc90613cfb565b8015611a495780601f10611a1e57610100808354040283529160200191611a49565b820191906000526020600020905b815481529060010190602001808311611a2c57829003601f168201915b505050505081526020016008820160009054906101000a900473ffffffffffffffffffffffffffffffffffffffff1673ffffffffffffffffffffffffffffffffffffffff1673ffffffffffffffffffffffffffffffffffffffff168152505081526020019060010190611626565b505050509050919050565b6000611acd826128f8565b905060016040518060c001604052803373ffffffffffffffffffffffffffffffffffffffff168152602001848152602001836020015181526020018360c0015181526020018360e00151815260200160006002811115611b3057611b2f6133ef565b5b815250908060018154018082558091505060019003906000526020600020906006020160009091909190915060008201518160000160006101000a81548173ffffffffffffffffffffffffffffffffffffffff021916908373ffffffffffffffffffffffffffffffffffffffff160217905550602082015181600101556040820151816002019081611bc29190614214565b50606082015181600301556080820151816004019081611be29190614214565b5060a08201518160050160006101000a81548160ff02191690836002811115611c0e57611c0d6133ef565b5b021790555050503373ffffffffffffffffffffffffffffffffffffffff167f03f23a9b67af957c8605376a4f515b53f102d4ad7f4da099bd1aff8e3ee13fec83600354604051611c5f9291906142e6565b60405180910390a260036000815480929190611c7a90613c84565b91905055505050565b6000875111611cc7576040517f08c379a0000000000000000000000000000000000000000000000000000000008152600401611cbe9061435b565b60405180910390fd5b6000865111611d0b576040517f08c379a0000000000000000000000000000000000000000000000000000000008152600401611d02906143c7565b60405180910390fd5b6000855111611d4f576040517f08c379a0000000000000000000000000000000000000000000000000000000008152600401611d4690614433565b60405180910390fd5b6000845111611d93576040517f08c379a0000000000000000000000000000000000000000000000000000000008152600401611d8a9061449f565b60405180910390fd5b6000835111611dd7576040517f08c379a0000000000000000000000000000000000000000000000000000000008152600401611dce9061450b565b60405180910390fd5b60008211611e1a576040517f08c379a0000000000000000000000000000000000000000000000000000000008152600401611e1190614577565b60405180910390fd5b6000815111611e5e576040517f08c379a0000000000000000000000000000000000000000000000000000000008152600401611e55906145e3565b60405180910390fd5b60006040518061012001604052808a81526020018981526020018881526020018781526020018681526020018581526020018481526020018381526020013373ffffffffffffffffffffffffffffffffffffffff1681525090506000803373ffffffffffffffffffffffffffffffffffffffff1673ffffffffffffffffffffffffffffffffffffffff1681526020019081526020016000208190806001815401808255809150506001900390600052602060002090600902016000909190919091506000820151816000019081611f359190614214565b506020820151816001019081611f4b9190614214565b506040820151816002019081611f619190614214565b506060820151816003019081611f779190614214565b506080820151816004019081611f8d9190614214565b5060a0820151816005019081611fa39190614214565b5060c0820151816006015560e0820151816007019081611fc39190614214565b506101008201518160080160006101000a81548173ffffffffffffffffffffffffffffffffffffffff021916908373ffffffffffffffffffffffffffffffffffffffff160217905550505060016000803373ffffffffffffffffffffffffffffffffffffffff1673ffffffffffffffffffffffffffffffffffffffff16815260200190815260200160002080549050036120bb576002339080600181540180825580915050600190039060005260206000200160009091909190916101000a81548173ffffffffffffffffffffffffffffffffffffffff021916908373ffffffffffffffffffffffffffffffffffffffff1602179055505b3373ffffffffffffffffffffffffffffffffffffffff167fb33be4898b3eae72be50da48dea4d99c1e830cd6f31f9d534998c4fcaa91b62e8960405161210191906140a5565b60405180910390a2505050505050505050565b6000602052816000526040600020818154811061213057600080fd5b90600052602060002090600902016000915091505080600001805461215490613cfb565b80601f016020809104026020016040519081016040528092919081815260200182805461218090613cfb565b80156121cd5780601f106121a2576101008083540402835291602001916121cd565b820191906000526020600020905b8154815290600101906020018083116121b057829003601f168201915b5050505050908060010180546121e290613cfb565b80601f016020809104026020016040519081016040528092919081815260200182805461220e90613cfb565b801561225b5780601f106122305761010080835404028352916020019161225b565b820191906000526020600020905b81548152906001019060200180831161223e57829003601f168201915b50505050509080600201805461227090613cfb565b80601f016020809104026020016040519081016040528092919081815260200182805461229c90613cfb565b80156122e95780601f106122be576101008083540402835291602001916122e9565b820191906000526020600020905b8154815290600101906020018083116122cc57829003601f168201915b5050505050908060030180546122fe90613cfb565b80601f016020809104026020016040519081016040528092919081815260200182805461232a90613cfb565b80156123775780601f1061234c57610100808354040283529160200191612377565b820191906000526020600020905b81548152906001019060200180831161235a57829003601f168201915b50505050509080600401805461238c90613cfb565b80601f01602080910402602001604051908101604052809291908181526020018280546123b890613cfb565b80156124055780601f106123da57610100808354040283529160200191612405565b820191906000526020600020905b8154815290600101906020018083116123e857829003601f168201915b50505050509080600501805461241a90613cfb565b80601f016020809104026020016040519081016040528092919081815260200182805461244690613cfb565b80156124935780601f1061246857610100808354040283529160200191612493565b820191906000526020600020905b81548152906001019060200180831161247657829003601f168201915b5050505050908060060154908060070180546124ae90613cfb565b80601f01602080910402602001604051908101604052809291908181526020018280546124da90613cfb565b80156125275780601f106124fc57610100808354040283529160200191612527565b820191906000526020600020905b81548152906001019060200180831161250a57829003601f168201915b5050505050908060080160009054906101000a900473ffffffffffffffffffffffffffffffffffffffff16905089565b60606000805b6003548110156125ec5783151560028081111561257d5761257c6133ef565b5b6001838154811061259157612590613bf2565b5b906000526020600020906006020160050160009054906101000a900460ff1660028111156125c2576125c16133ef565b5b141515036125d95781806125d590613c84565b9250505b80806125e490613c84565b91505061255d565b5060008167ffffffffffffffff811115612609576126086136d9565b5b60405190808252806020026020018201604052801561264257816020015b61262f612fca565b8152602001906001900390816126275790505b5090506000805b6003548110156128ec57851515600280811115612669576126686133ef565b5b6001838154811061267d5761267c613bf2565b5b906000526020600020906006020160050160009054906101000a900460ff1660028111156126ae576126ad6133ef565b5b141515036128d957600181815481106126ca576126c9613bf2565b5b90600052602060002090600602016040518060c00160405290816000820160009054906101000a900473ffffffffffffffffffffffffffffffffffffffff1673ffffffffffffffffffffffffffffffffffffffff1673ffffffffffffffffffffffffffffffffffffffff1681526020016001820154815260200160028201805461275390613cfb565b80601f016020809104026020016040519081016040528092919081815260200182805461277f90613cfb565b80156127cc5780601f106127a1576101008083540402835291602001916127cc565b820191906000526020600020905b8154815290600101906020018083116127af57829003601f168201915b50505050508152602001600382015481526020016004820180546127ef90613cfb565b80601f016020809104026020016040519081016040528092919081815260200182805461281b90613cfb565b80156128685780601f1061283d57610100808354040283529160200191612868565b820191906000526020600020905b81548152906001019060200180831161284b57829003601f168201915b505050505081526020016005820160009054906101000a900460ff166002811115612896576128956133ef565b5b60028111156128a8576128a76133ef565b5b815250508383815181106128bf576128be613bf2565b5b602002602001018190525081806128d590613c84565b9250505b80806128e490613c84565b915050612649565b50819350505050919050565b612900612f28565b6000805b600280549050811015612ee75760005b6000806002848154811061292b5761292a613bf2565b5b9060005260206000200160009054906101000a900473ffffffffffffffffffffffffffffffffffffffff1673ffffffffffffffffffffffffffffffffffffffff1673ffffffffffffffffffffffffffffffffffffffff16815260200190815260200160002080549050811015612ed357848303612eb257600080600284815481106129b9576129b8613bf2565b5b9060005260206000200160009054906101000a900473ffffffffffffffffffffffffffffffffffffffff1673ffffffffffffffffffffffffffffffffffffffff1673ffffffffffffffffffffffffffffffffffffffff1681526020019081526020016000208181548110612a3057612a2f613bf2565b5b906000526020600020906009020160405180610120016040529081600082018054612a5a90613cfb565b80601f0160208091040260200160405190810160405280929190818152602001828054612a8690613cfb565b8015612ad35780601f10612aa857610100808354040283529160200191612ad3565b820191906000526020600020905b815481529060010190602001808311612ab657829003601f168201915b50505050508152602001600182018054612aec90613cfb565b80601f0160208091040260200160405190810160405280929190818152602001828054612b1890613cfb565b8015612b655780601f10612b3a57610100808354040283529160200191612b65565b820191906000526020600020905b815481529060010190602001808311612b4857829003601f168201915b50505050508152602001600282018054612b7e90613cfb565b80601f0160208091040260200160405190810160405280929190818152602001828054612baa90613cfb565b8015612bf75780601f10612bcc57610100808354040283529160200191612bf7565b820191906000526020600020905b815481529060010190602001808311612bda57829003601f168201915b50505050508152602001600382018054612c1090613cfb565b80601f0160208091040260200160405190810160405280929190818152602001828054612c3c90613cfb565b8015612c895780601f10612c5e57610100808354040283529160200191612c89565b820191906000526020600020905b815481529060010190602001808311612c6c57829003601f168201915b50505050508152602001600482018054612ca290613cfb565b80601f0160208091040260200160405190810160405280929190818152602001828054612cce90613cfb565b8015612d1b5780601f10612cf057610100808354040283529160200191612d1b565b820191906000526020600020905b815481529060010190602001808311612cfe57829003601f168201915b50505050508152602001600582018054612d3490613cfb565b80601f0160208091040260200160405190810160405280929190818152602001828054612d6090613cfb565b8015612dad5780601f10612d8257610100808354040283529160200191612dad565b820191906000526020600020905b815481529060010190602001808311612d9057829003601f168201915b5050505050815260200160068201548152602001600782018054612dd090613cfb565b80601f0160208091040260200160405190810160405280929190818152602001828054612dfc90613cfb565b8015612e495780601f10612e1e57610100808354040283529160200191612e49565b820191906000526020600020905b815481529060010190602001808311612e2c57829003601f168201915b505050505081526020016008820160009054906101000a900473ffffffffffffffffffffffffffffffffffffffff1673ffffffffffffffffffffffffffffffffffffffff1673ffffffffffffffffffffffffffffffffffffffff16815250509350505050612f23565b8280612ebd90613c84565b9350508080612ecb90613c84565b915050612914565b508080612edf90613c84565b915050612904565b506040517f08c379a0000000000000000000000000000000000000000000000000000000008152600401612f1a9061464f565b60405180910390fd5b919050565b6040518061012001604052806060815260200160608152602001606081526020016060815260200160608152602001606081526020016000815260200160608152602001600073ffffffffffffffffffffffffffffffffffffffff1681525090565b508054612f9690613cfb565b6000825580601f10612fa85750612fc7565b601f016020900490600052602060002090810190612fc69190613028565b5b50565b6040518060c00160405280600073ffffffffffffffffffffffffffffffffffffffff1681526020016000815260200160608152602001600081526020016060815260200160006002811115613022576130216133ef565b5b81525090565b5b80821115613041576000816000905550600101613029565b5090565b6000604051905090565b600080fd5b600080fd5b6000819050919050565b61306c81613059565b811461307757600080fd5b50565b60008135905061308981613063565b92915050565b6000602082840312156130a5576130a461304f565b5b60006130b38482850161307a565b91505092915050565b600073ffffffffffffffffffffffffffffffffffffffff82169050919050565b60006130e7826130bc565b9050919050565b6130f7816130dc565b82525050565b600060208201905061311260008301846130ee565b92915050565b600081519050919050565b600082825260208201905092915050565b6000819050602082019050919050565b600081519050919050565b600082825260208201905092915050565b60005b8381101561317e578082015181840152602081019050613163565b60008484015250505050565b6000601f19601f8301169050919050565b60006131a682613144565b6131b0818561314f565b93506131c0818560208601613160565b6131c98161318a565b840191505092915050565b6131dd81613059565b82525050565b6131ec816130dc565b82525050565b6000610120830160008301518482036000860152613210828261319b565b9150506020830151848203602086015261322a828261319b565b91505060408301518482036040860152613244828261319b565b9150506060830151848203606086015261325e828261319b565b91505060808301518482036080860152613278828261319b565b91505060a083015184820360a0860152613292828261319b565b91505060c08301516132a760c08601826131d4565b5060e083015184820360e08601526132bf828261319b565b9150506101008301516132d66101008601826131e3565b508091505092915050565b60006132ed83836131f2565b905092915050565b6000602082019050919050565b600061330d82613118565b6133178185613123565b93508360208202850161332985613134565b8060005b85811015613365578484038952815161334685826132e1565b9450613351836132f5565b925060208a0199505060018101905061332d565b50829750879550505050505092915050565b600060208201905081810360008301526133918184613302565b905092915050565b6133a281613059565b82525050565b60006020820190506133bd6000830184613399565b92915050565b600081519050919050565b600082825260208201905092915050565b6000819050602082019050919050565b7f4e487b7100000000000000000000000000000000000000000000000000000000600052602160045260246000fd5b6003811061342f5761342e6133ef565b5b50565b60008190506134408261341e565b919050565b600061345082613432565b9050919050565b61346081613445565b82525050565b600060c08301600083015161347e60008601826131e3565b50602083015161349160208601826131d4565b50604083015184820360408601526134a9828261319b565b91505060608301516134be60608601826131d4565b50608083015184820360808601526134d6828261319b565b91505060a08301516134eb60a0860182613457565b508091505092915050565b60006135028383613466565b905092915050565b6000602082019050919050565b6000613522826133c3565b61352c81856133ce565b93508360208202850161353e856133df565b8060005b8581101561357a578484038952815161355b85826134f6565b94506135668361350a565b925060208a01995050600181019050613542565b50829750879550505050505092915050565b600060208201905081810360008301526135a68184613517565b905092915050565b600082825260208201905092915050565b60006135ca82613144565b6135d481856135ae565b93506135e4818560208601613160565b6135ed8161318a565b840191505092915050565b61360181613445565b82525050565b600060c08201905061361c60008301896130ee565b6136296020830188613399565b818103604083015261363b81876135bf565b905061364a6060830186613399565b818103608083015261365c81856135bf565b905061366b60a08301846135f8565b979650505050505050565b61367f816130dc565b811461368a57600080fd5b50565b60008135905061369c81613676565b92915050565b6000602082840312156136b8576136b761304f565b5b60006136c68482850161368d565b91505092915050565b600080fd5b600080fd5b7f4e487b7100000000000000000000000000000000000000000000000000000000600052604160045260246000fd5b6137118261318a565b810181811067ffffffffffffffff821117156137305761372f6136d9565b5b80604052505050565b6000613743613045565b905061374f8282613708565b919050565b600067ffffffffffffffff82111561376f5761376e6136d9565b5b6137788261318a565b9050602081019050919050565b82818337600083830152505050565b60006137a76137a284613754565b613739565b9050828152602081018484840111156137c3576137c26136d4565b5b6137ce848285613785565b509392505050565b600082601f8301126137eb576137ea6136cf565b5b81356137fb848260208601613794565b91505092915050565b600080600080600080600080610100898b0312156138255761382461304f565b5b600089013567ffffffffffffffff81111561384357613842613054565b5b61384f8b828c016137d6565b985050602089013567ffffffffffffffff8111156138705761386f613054565b5b61387c8b828c016137d6565b975050604089013567ffffffffffffffff81111561389d5761389c613054565b5b6138a98b828c016137d6565b965050606089013567ffffffffffffffff8111156138ca576138c9613054565b5b6138d68b828c016137d6565b955050608089013567ffffffffffffffff8111156138f7576138f6613054565b5b6139038b828c016137d6565b94505060a089013567ffffffffffffffff81111561392457613923613054565b5b6139308b828c016137d6565b93505060c06139418b828c0161307a565b92505060e089013567ffffffffffffffff81111561396257613961613054565b5b61396e8b828c016137d6565b9150509295985092959890939650565b600080604083850312156139955761399461304f565b5b60006139a38582860161368d565b92505060206139b48582860161307a565b9150509250929050565b60006101208201905081810360008301526139d9818c6135bf565b905081810360208301526139ed818b6135bf565b90508181036040830152613a01818a6135bf565b90508181036060830152613a1581896135bf565b90508181036080830152613a2981886135bf565b905081810360a0830152613a3d81876135bf565b9050613a4c60c0830186613399565b81810360e0830152613a5e81856135bf565b9050613a6e6101008301846130ee565b9a9950505050505050505050565b60008115159050919050565b613a9181613a7c565b8114613a9c57600080fd5b50565b600081359050613aae81613a88565b92915050565b600060208284031215613aca57613ac961304f565b5b6000613ad884828501613a9f565b91505092915050565b6000610120830160008301518482036000860152613aff828261319b565b91505060208301518482036020860152613b19828261319b565b91505060408301518482036040860152613b33828261319b565b91505060608301518482036060860152613b4d828261319b565b91505060808301518482036080860152613b67828261319b565b91505060a083015184820360a0860152613b81828261319b565b91505060c0830151613b9660c08601826131d4565b5060e083015184820360e0860152613bae828261319b565b915050610100830151613bc56101008601826131e3565b508091505092915050565b60006020820190508181036000830152613bea8184613ae1565b905092915050565b7f4e487b7100000000000000000000000000000000000000000000000000000000600052603260045260246000fd5b7f4e487b7100000000000000000000000000000000000000000000000000000000600052601160045260246000fd5b6000613c5b82613059565b9150613c6683613059565b9250828201905080821115613c7e57613c7d613c21565b5b92915050565b6000613c8f82613059565b91507fffffffffffffffffffffffffffffffffffffffffffffffffffffffffffffffff8203613cc157613cc0613c21565b5b600182019050919050565b7f4e487b7100000000000000000000000000000000000000000000000000000000600052602260045260246000fd5b60006002820490506001821680613d1357607f821691505b602082108103613d2657613d25613ccc565b5b50919050565b7f5365727669636520696e646578206f7574206f6620626f756e64730000000000600082015250565b6000613d62601b836135ae565b9150613d6d82613d2c565b602082019050919050565b60006020820190508181036000830152613d9181613d55565b9050919050565b6000613da382613059565b9150613dae83613059565b9250828203905081811115613dc657613dc5613c21565b5b92915050565b600081549050613ddb81613cfb565b9050919050565b60008190508160005260206000209050919050565b60006020601f8301049050919050565b600082821b905092915050565b600060088302613e447fffffffffffffffffffffffffffffffffffffffffffffffffffffffffffffffff82613e07565b613e4e8683613e07565b95508019841693508086168417925050509392505050565b6000819050919050565b6000613e8b613e86613e8184613059565b613e66565b613059565b9050919050565b6000819050919050565b613ea583613e70565b613eb9613eb182613e92565b848454613e14565b825550505050565b600090565b613ece613ec1565b613ed9818484613e9c565b505050565b5b81811015613efd57613ef2600082613ec6565b600181019050613edf565b5050565b601f821115613f4257613f1381613de2565b613f1c84613df7565b81016020851015613f2b578190505b613f3f613f3785613df7565b830182613ede565b50505b505050565b600082821c905092915050565b6000613f6560001984600802613f47565b1980831691505092915050565b6000613f7e8383613f54565b9150826002028217905092915050565b818103613f9c575050614074565b613fa582613dcc565b67ffffffffffffffff811115613fbe57613fbd6136d9565b5b613fc88254613cfb565b613fd3828285613f01565b6000601f8311600181146140025760008415613ff0578287015490505b613ffa8582613f72565b86555061406d565b601f19841661401087613de2565b965061401b86613de2565b60005b828110156140435784890154825560018201915060018501945060208101905061401e565b86831015614060578489015461405c601f891682613f54565b8355505b6001600288020188555050505b5050505050505b565b7f4e487b7100000000000000000000000000000000000000000000000000000000600052603160045260246000fd5b600060208201905081810360008301526140bf81846135bf565b905092915050565b7f4f6e6c792074686520736572766963652070726f76696465722063616e20737460008201527f61727420746865206f7264657200000000000000000000000000000000000000602082015250565b6000614123602d836135ae565b915061412e826140c7565b604082019050919050565b6000602082019050818103600083015261415281614116565b9050919050565b600060408201905061416e6000830185613399565b61417b60208301846135f8565b9392505050565b7f4f6e6c792074686520757365722077686f20706c6163656420746865206f726460008201527f65722063616e20636f6e6669726d206974000000000000000000000000000000602082015250565b60006141de6031836135ae565b91506141e982614182565b604082019050919050565b6000602082019050818103600083015261420d816141d1565b9050919050565b61421d82613144565b67ffffffffffffffff811115614236576142356136d9565b5b6142408254613cfb565b61424b828285613f01565b600060209050601f83116001811461427e576000841561426c578287015190505b6142768582613f72565b8655506142de565b601f19841661428c86613de2565b60005b828110156142b45784890151825560018201915060208501945060208101905061428f565b868310156142d157848901516142cd601f891682613f54565b8355505b6001600288020188555050505b505050505050565b60006040820190506142fb6000830185613399565b6143086020830184613399565b9392505050565b7f53657276696365206e616d652072657175697265640000000000000000000000600082015250565b60006143456015836135ae565b91506143508261430f565b602082019050919050565b6000602082019050818103600083015261437481614338565b9050919050565b7f536572766963652063617465676f727920726571756972656400000000000000600082015250565b60006143b16019836135ae565b91506143bc8261437b565b602082019050919050565b600060208201905081810360008301526143e0816143a4565b9050919050565b7f4164647265737320726571756972656400000000000000000000000000000000600082015250565b600061441d6010836135ae565b9150614428826143e7565b602082019050919050565b6000602082019050818103600083015261444c81614410565b9050919050565b7f50686f6e65206e756d6265722072657175697265640000000000000000000000600082015250565b60006144896015836135ae565b915061449482614453565b602082019050919050565b600060208201905081810360008301526144b88161447c565b9050919050565b7f456d61696c207265717569726564000000000000000000000000000000000000600082015250565b60006144f5600e836135ae565b9150614500826144bf565b602082019050919050565b60006020820190508181036000830152614524816144e8565b9050919050565b7f436f7374206d7573742062652067726561746572207468616e207a65726f0000600082015250565b6000614561601e836135ae565b915061456c8261452b565b602082019050919050565b6000602082019050818103600083015261459081614554565b9050919050565b7f43757272656e6379207265717569726564000000000000000000000000000000600082015250565b60006145cd6011836135ae565b91506145d882614597565b602082019050919050565b600060208201905081810360008301526145fc816145c0565b9050919050565b7f53657276696365206e6f7420666f756e64000000000000000000000000000000600082015250565b60006146396011836135ae565b915061464482614603565b602082019050919050565b600060208201905081810360008301526146688161462c565b905091905056fea264697066735822122019f7fda23d0fd60766fb79bf4a49aa9bf450f9a3ad32f34c9155902901ab474564736f6c63430008130033",
  "immutableReferences": {},
  "source": "// SPDX-License-Identifier: MIT\r\npragma solidity >=0.8.19;\r\n\r\ncontract ServiceContract {\r\n    enum OrderStatus { Pending, InProgress, Completed }\r\n\r\n    struct Service {\r\n        string logo;\r\n        string name;\r\n        string category;\r\n        string addressDetail;\r\n        string phoneNumber;\r\n        string email;\r\n        uint256 cost;\r\n        string currency;\r\n        address owner;\r\n    }\r\n\r\n    struct Order {\r\n        address user;\r\n        uint256 serviceId;\r\n        string serviceName;\r\n        uint256 serviceCost;\r\n        string serviceCurrency;\r\n        OrderStatus status;\r\n    }\r\n\r\n    mapping(address => Service[]) public services;\r\n    Order[] public orders;\r\n    address[] public serviceProviders;\r\n    uint256 public orderCount;\r\n\r\n    event ServiceAdded(address indexed user, string name);\r\n    event ServiceDeleted(address indexed user, string name);\r\n    event OrderPlaced(address indexed user, uint256 serviceId, uint256 orderId);\r\n    event OrderStatusChanged(uint256 orderId, OrderStatus status);\r\n\r\n    function addService(\r\n        string memory _logo,\r\n        string memory _name,\r\n        string memory _category,\r\n        string memory _addressDetail,\r\n        string memory _phoneNumber,\r\n        string memory _email,\r\n        uint256 _cost,\r\n        string memory _currency\r\n    ) public {\r\n        require(bytes(_name).length > 0, \"Service name required\");\r\n        require(bytes(_category).length > 0, \"Service category required\");\r\n        require(bytes(_addressDetail).length > 0, \"Address required\");\r\n        require(bytes(_phoneNumber).length > 0, \"Phone number required\");\r\n        require(bytes(_email).length > 0, \"Email required\");\r\n        require(_cost > 0, \"Cost must be greater than zero\");\r\n        require(bytes(_currency).length > 0, \"Currency required\");\r\n\r\n        Service memory newService = Service({\r\n            logo: _logo,\r\n            name: _name,\r\n            category: _category,\r\n            addressDetail: _addressDetail,\r\n            phoneNumber: _phoneNumber,\r\n            email: _email,\r\n            cost: _cost,\r\n            currency: _currency,\r\n            owner: msg.sender\r\n        });\r\n\r\n        services[msg.sender].push(newService);\r\n        if (services[msg.sender].length == 1) {\r\n            serviceProviders.push(msg.sender);\r\n        }\r\n        emit ServiceAdded(msg.sender, _name);\r\n    }\r\n\r\n    function getServices(address _user) public view returns (Service[] memory) {\r\n        return services[_user];\r\n    }\r\n\r\n    function deleteService(uint256 index) public {\r\n        require(index < services[msg.sender].length, \"Service index out of bounds\");\r\n        Service[] storage userServices = services[msg.sender];\r\n\r\n        string memory serviceName = userServices[index].name;\r\n\r\n        for (uint256 i = index; i < userServices.length - 1; i++) {\r\n            userServices[i] = userServices[i + 1];\r\n        }\r\n        userServices.pop();\r\n        emit ServiceDeleted(msg.sender, serviceName);\r\n    }\r\n\r\n    function getAllServices() public view returns (Service[] memory) {\r\n        uint totalServices;\r\n        for (uint i = 0; i < serviceProviders.length; i++) {\r\n            totalServices += services[serviceProviders[i]].length;\r\n        }\r\n\r\n        Service[] memory allServices = new Service[](totalServices);\r\n        uint counter = 0;\r\n        for (uint i = 0; i < serviceProviders.length; i++) {\r\n            for (uint j = 0; j < services[serviceProviders[i]].length; j++) {\r\n                allServices[counter] = services[serviceProviders[i]][j];\r\n                counter++;\r\n            }\r\n        }\r\n\r\n        return allServices;\r\n    }\r\n\r\n    function placeOrder(uint256 serviceId) public payable {\r\n        Service memory service = getServiceById(serviceId);\r\n\r\n        orders.push(Order({\r\n            user: msg.sender,\r\n            serviceId: serviceId,\r\n            serviceName: service.name,\r\n            serviceCost: service.cost,\r\n            serviceCurrency: service.currency,\r\n            status: OrderStatus.Pending\r\n        }));\r\n\r\n        emit OrderPlaced(msg.sender, serviceId, orderCount);\r\n        orderCount++;\r\n    }\r\n\r\n    function startOrder(uint256 orderId) public {\r\n        Order storage order = orders[orderId];\r\n        Service memory service = getServiceById(order.serviceId);\r\n        require(service.owner == msg.sender, \"Only the service provider can start the order\");\r\n\r\n        order.status = OrderStatus.InProgress;\r\n        emit OrderStatusChanged(orderId, OrderStatus.InProgress);\r\n    }\r\n\r\n    function confirmOrder(uint256 orderId) public {\r\n        Order storage order = orders[orderId];\r\n        require(order.user == msg.sender, \"Only the user who placed the order can confirm it\");\r\n\r\n        order.status = OrderStatus.Completed;\r\n        Service memory service = getServiceById(order.serviceId);\r\n        payable(service.owner).transfer(service.cost);\r\n\r\n        emit OrderStatusChanged(orderId, OrderStatus.Completed);\r\n    }\r\n\r\n    function getServiceById(uint256 serviceId) public view returns (Service memory) {\r\n        uint counter = 0;\r\n        for (uint i = 0; i < serviceProviders.length; i++) {\r\n            for (uint j = 0; j < services[serviceProviders[i]].length; j++) {\r\n                if (counter == serviceId) {\r\n                    return services[serviceProviders[i]][j];\r\n                }\r\n                counter++;\r\n            }\r\n        }\r\n        revert(\"Service not found\");\r\n    }\r\n\r\n    function getAllOrders() public view returns (Order[] memory) {\r\n        Order[] memory allOrders = new Order[](orderCount);\r\n        for (uint i = 0; i < orderCount; i++) {\r\n            allOrders[i] = orders[i];\r\n        }\r\n        return allOrders;\r\n    }\r\n\r\n    function getOrdersByStatus(bool isCompleted) public view returns (Order[] memory) {\r\n        uint count = 0;\r\n        for (uint i = 0; i < orderCount; i++) {\r\n            if ((orders[i].status == OrderStatus.Completed) == isCompleted) {\r\n                count++;\r\n            }\r\n        }\r\n\r\n        Order[] memory filteredOrders = new Order[](count);\r\n        uint index = 0;\r\n        for (uint i = 0; i < orderCount; i++) {\r\n            if ((orders[i].status == OrderStatus.Completed) == isCompleted) {\r\n                filteredOrders[index] = orders[i];\r\n                index++;\r\n            }\r\n        }\r\n        return filteredOrders;\r\n    }\r\n}\r\n",
  "sourcePath": "C:\\Users\\Kevin Sorensen\\GitHub\\Aclean\\aclean-dapps\\blockchain\\contracts\\ServiceContract.sol",
  "compiler": {
    "name": "solc",
    "version": "0.8.19+commit.7dd6d404.Emscripten.clang"
  },
  "schemaVersion": "3.4.16",
  "updatedAt": "2024-05-19T13:13:37.611Z",
  "networkType": "ethereum",
  "devdoc": {
    "kind": "dev",
    "methods": {},
    "version": 1
  },
  "userdoc": {
    "kind": "user",
    "methods": {},
    "version": 1
  }
}