{
  "contractName": "ServiceContract",
  "abi": [
    {
      "anonymous": false,
      "inputs": [
        {
          "indexed": false,
          "internalType": "uint256",
          "name": "orderId",
          "type": "uint256"
        }
      ],
      "name": "OrderCompleted",
      "type": "event"
    },
    {
      "anonymous": false,
      "inputs": [
        {
          "indexed": true,
          "internalType": "address",
          "name": "user",
          "type": "address"
        },
        {
          "indexed": false,
          "internalType": "uint256",
          "name": "serviceId",
          "type": "uint256"
        },
        {
          "indexed": false,
          "internalType": "uint256",
          "name": "orderId",
          "type": "uint256"
        }
      ],
      "name": "OrderPlaced",
      "type": "event"
    },
    {
      "anonymous": false,
      "inputs": [
        {
          "indexed": true,
          "internalType": "address",
          "name": "user",
          "type": "address"
        },
        {
          "indexed": false,
          "internalType": "string",
          "name": "name",
          "type": "string"
        }
      ],
      "name": "ServiceAdded",
      "type": "event"
    },
    {
      "anonymous": false,
      "inputs": [
        {
          "indexed": true,
          "internalType": "address",
          "name": "user",
          "type": "address"
        },
        {
          "indexed": false,
          "internalType": "string",
          "name": "name",
          "type": "string"
        }
      ],
      "name": "ServiceDeleted",
      "type": "event"
    },
    {
      "inputs": [],
      "name": "orderCount",
      "outputs": [
        {
          "internalType": "uint256",
          "name": "",
          "type": "uint256"
        }
      ],
      "stateMutability": "view",
      "type": "function",
      "constant": true
    },
    {
      "inputs": [
        {
          "internalType": "uint256",
          "name": "",
          "type": "uint256"
        }
      ],
      "name": "orders",
      "outputs": [
        {
          "internalType": "address",
          "name": "user",
          "type": "address"
        },
        {
          "internalType": "uint256",
          "name": "serviceId",
          "type": "uint256"
        },
        {
          "internalType": "bool",
          "name": "isCompleted",
          "type": "bool"
        }
      ],
      "stateMutability": "view",
      "type": "function",
      "constant": true
    },
    {
      "inputs": [
        {
          "internalType": "uint256",
          "name": "",
          "type": "uint256"
        }
      ],
      "name": "serviceProviders",
      "outputs": [
        {
          "internalType": "address",
          "name": "",
          "type": "address"
        }
      ],
      "stateMutability": "view",
      "type": "function",
      "constant": true
    },
    {
      "inputs": [
        {
          "internalType": "address",
          "name": "",
          "type": "address"
        },
        {
          "internalType": "uint256",
          "name": "",
          "type": "uint256"
        }
      ],
      "name": "services",
      "outputs": [
        {
          "internalType": "string",
          "name": "logo",
          "type": "string"
        },
        {
          "internalType": "string",
          "name": "name",
          "type": "string"
        },
        {
          "internalType": "string",
          "name": "category",
          "type": "string"
        },
        {
          "internalType": "string",
          "name": "addressDetail",
          "type": "string"
        },
        {
          "internalType": "string",
          "name": "phoneNumber",
          "type": "string"
        },
        {
          "internalType": "string",
          "name": "email",
          "type": "string"
        },
        {
          "internalType": "uint256",
          "name": "cost",
          "type": "uint256"
        },
        {
          "internalType": "string",
          "name": "currency",
          "type": "string"
        }
      ],
      "stateMutability": "view",
      "type": "function",
      "constant": true
    },
    {
      "inputs": [
        {
          "internalType": "string",
          "name": "_logo",
          "type": "string"
        },
        {
          "internalType": "string",
          "name": "_name",
          "type": "string"
        },
        {
          "internalType": "string",
          "name": "_category",
          "type": "string"
        },
        {
          "internalType": "string",
          "name": "_addressDetail",
          "type": "string"
        },
        {
          "internalType": "string",
          "name": "_phoneNumber",
          "type": "string"
        },
        {
          "internalType": "string",
          "name": "_email",
          "type": "string"
        },
        {
          "internalType": "uint256",
          "name": "_cost",
          "type": "uint256"
        },
        {
          "internalType": "string",
          "name": "_currency",
          "type": "string"
        }
      ],
      "name": "addService",
      "outputs": [],
      "stateMutability": "nonpayable",
      "type": "function"
    },
    {
      "inputs": [
        {
          "internalType": "address",
          "name": "_user",
          "type": "address"
        }
      ],
      "name": "getServices",
      "outputs": [
        {
          "components": [
            {
              "internalType": "string",
              "name": "logo",
              "type": "string"
            },
            {
              "internalType": "string",
              "name": "name",
              "type": "string"
            },
            {
              "internalType": "string",
              "name": "category",
              "type": "string"
            },
            {
              "internalType": "string",
              "name": "addressDetail",
              "type": "string"
            },
            {
              "internalType": "string",
              "name": "phoneNumber",
              "type": "string"
            },
            {
              "internalType": "string",
              "name": "email",
              "type": "string"
            },
            {
              "internalType": "uint256",
              "name": "cost",
              "type": "uint256"
            },
            {
              "internalType": "string",
              "name": "currency",
              "type": "string"
            }
          ],
          "internalType": "struct ServiceContract.Service[]",
          "name": "",
          "type": "tuple[]"
        }
      ],
      "stateMutability": "view",
      "type": "function",
      "constant": true
    },
    {
      "inputs": [
        {
          "internalType": "uint256",
          "name": "index",
          "type": "uint256"
        }
      ],
      "name": "deleteService",
      "outputs": [],
      "stateMutability": "nonpayable",
      "type": "function"
    },
    {
      "inputs": [],
      "name": "getAllServices",
      "outputs": [
        {
          "components": [
            {
              "internalType": "string",
              "name": "logo",
              "type": "string"
            },
            {
              "internalType": "string",
              "name": "name",
              "type": "string"
            },
            {
              "internalType": "string",
              "name": "category",
              "type": "string"
            },
            {
              "internalType": "string",
              "name": "addressDetail",
              "type": "string"
            },
            {
              "internalType": "string",
              "name": "phoneNumber",
              "type": "string"
            },
            {
              "internalType": "string",
              "name": "email",
              "type": "string"
            },
            {
              "internalType": "uint256",
              "name": "cost",
              "type": "uint256"
            },
            {
              "internalType": "string",
              "name": "currency",
              "type": "string"
            }
          ],
          "internalType": "struct ServiceContract.Service[]",
          "name": "",
          "type": "tuple[]"
        }
      ],
      "stateMutability": "view",
      "type": "function",
      "constant": true
    },
    {
      "inputs": [
        {
          "internalType": "uint256",
          "name": "serviceId",
          "type": "uint256"
        }
      ],
      "name": "placeOrder",
      "outputs": [],
      "stateMutability": "payable",
      "type": "function",
      "payable": true
    },
    {
      "inputs": [
        {
          "internalType": "uint256",
          "name": "orderId",
          "type": "uint256"
        }
      ],
      "name": "confirmOrder",
      "outputs": [],
      "stateMutability": "nonpayable",
      "type": "function"
    }
  ],
  "bytecode": "0x608060405234801561001057600080fd5b50613651806100206000396000f3fe6080604052600436106100915760003560e01c8063a85c38ef11610059578063a85c38ef1461017b578063b2532a45146101ba578063ba2255f4146101f7578063bbd882f014610213578063c134f17e1461023c57610091565b80630a02dcc71461009657806321fe0f30146100d35780632453ffa8146100fe57806374e29ee6146101295780638ac7d79c14610152575b600080fd5b3480156100a257600080fd5b506100bd60048036038101906100b891906123a4565b610280565b6040516100ca9190612412565b60405180910390f35b3480156100df57600080fd5b506100e86102bf565b6040516100f59190612668565b60405180910390f35b34801561010a57600080fd5b50610113610977565b6040516101209190612699565b60405180910390f35b34801561013557600080fd5b50610150600480360381019061014b91906123a4565b61097d565b005b34801561015e57600080fd5b50610179600480360381019061017491906123a4565b610c79565b005b34801561018757600080fd5b506101a2600480360381019061019d91906123a4565b610e19565b6040516101b1939291906126cf565b60405180910390f35b3480156101c657600080fd5b506101e160048036038101906101dc9190612732565b610e70565b6040516101ee9190612668565b60405180910390f35b610211600480360381019061020c91906123a4565b611316565b005b34801561021f57600080fd5b5061023a60048036038101906102359190612894565b611494565b005b34801561024857600080fd5b50610263600480360381019061025e9190612a0e565b6118c1565b604051610277989796959493929190612a98565b60405180910390f35b6002818154811061029057600080fd5b906000526020600020016000915054906101000a900473ffffffffffffffffffffffffffffffffffffffff1681565b6060600080600090505b60028054905081101561037657600080600283815481106102ed576102ec612b47565b5b9060005260206000200160009054906101000a900473ffffffffffffffffffffffffffffffffffffffff1673ffffffffffffffffffffffffffffffffffffffff1673ffffffffffffffffffffffffffffffffffffffff16815260200190815260200160002080549050826103619190612ba5565b9150808061036e90612bd9565b9150506102c9565b5060008167ffffffffffffffff81111561039357610392612769565b5b6040519080825280602002602001820160405280156103cc57816020015b6103b96122b8565b8152602001906001900390816103b15790505b5090506000805b60028054905081101561096d5760005b600080600284815481106103fa576103f9612b47565b5b9060005260206000200160009054906101000a900473ffffffffffffffffffffffffffffffffffffffff1673ffffffffffffffffffffffffffffffffffffffff1673ffffffffffffffffffffffffffffffffffffffff16815260200190815260200160002080549050811015610959576000806002848154811061048157610480612b47565b5b9060005260206000200160009054906101000a900473ffffffffffffffffffffffffffffffffffffffff1673ffffffffffffffffffffffffffffffffffffffff1673ffffffffffffffffffffffffffffffffffffffff16815260200190815260200160002081815481106104f8576104f7612b47565b5b90600052602060002090600802016040518061010001604052908160008201805461052290612c50565b80601f016020809104026020016040519081016040528092919081815260200182805461054e90612c50565b801561059b5780601f106105705761010080835404028352916020019161059b565b820191906000526020600020905b81548152906001019060200180831161057e57829003601f168201915b505050505081526020016001820180546105b490612c50565b80601f01602080910402602001604051908101604052809291908181526020018280546105e090612c50565b801561062d5780601f106106025761010080835404028352916020019161062d565b820191906000526020600020905b81548152906001019060200180831161061057829003601f168201915b5050505050815260200160028201805461064690612c50565b80601f016020809104026020016040519081016040528092919081815260200182805461067290612c50565b80156106bf5780601f10610694576101008083540402835291602001916106bf565b820191906000526020600020905b8154815290600101906020018083116106a257829003601f168201915b505050505081526020016003820180546106d890612c50565b80601f016020809104026020016040519081016040528092919081815260200182805461070490612c50565b80156107515780601f1061072657610100808354040283529160200191610751565b820191906000526020600020905b81548152906001019060200180831161073457829003601f168201915b5050505050815260200160048201805461076a90612c50565b80601f016020809104026020016040519081016040528092919081815260200182805461079690612c50565b80156107e35780601f106107b8576101008083540402835291602001916107e3565b820191906000526020600020905b8154815290600101906020018083116107c657829003601f168201915b505050505081526020016005820180546107fc90612c50565b80601f016020809104026020016040519081016040528092919081815260200182805461082890612c50565b80156108755780601f1061084a57610100808354040283529160200191610875565b820191906000526020600020905b81548152906001019060200180831161085857829003601f168201915b505050505081526020016006820154815260200160078201805461089890612c50565b80601f01602080910402602001604051908101604052809291908181526020018280546108c490612c50565b80156109115780601f106108e657610100808354040283529160200191610911565b820191906000526020600020905b8154815290600101906020018083116108f457829003601f168201915b50505050508152505084848151811061092d5761092c612b47565b5b6020026020010181905250828061094390612bd9565b935050808061095190612bd9565b9150506103e3565b50808061096590612bd9565b9150506103d3565b5081935050505090565b60035481565b6000803373ffffffffffffffffffffffffffffffffffffffff1673ffffffffffffffffffffffffffffffffffffffff168152602001908152602001600020805490508110610a00576040517f08c379a00000000000000000000000000000000000000000000000000000000081526004016109f790612ccd565b60405180910390fd5b60008060003373ffffffffffffffffffffffffffffffffffffffff1673ffffffffffffffffffffffffffffffffffffffff168152602001908152602001600020905060008290505b60018280549050610a599190612ced565b811015610b615781600182610a6e9190612ba5565b81548110610a7f57610a7e612b47565b5b9060005260206000209060080201828281548110610aa057610a9f612b47565b5b906000526020600020906008020160008201816000019081610ac29190612ee3565b5060018201816001019081610ad79190612ee3565b5060028201816002019081610aec9190612ee3565b5060038201816003019081610b019190612ee3565b5060048201816004019081610b169190612ee3565b5060058201816005019081610b2b9190612ee3565b506006820154816006015560078201816007019081610b4a9190612ee3565b509050508080610b5990612bd9565b915050610a48565b5080805480610b7357610b72612fcb565b5b600190038181906000526020600020906008020160008082016000610b9891906122fd565b600182016000610ba891906122fd565b600282016000610bb891906122fd565b600382016000610bc891906122fd565b600482016000610bd891906122fd565b600582016000610be891906122fd565b6006820160009055600782016000610c0091906122fd565b505090553373ffffffffffffffffffffffffffffffffffffffff167f970480f79372727bc0f144df151fd4335131d28955ae2cbabd6c79326917a6d6828481548110610c4f57610c4e612b47565b5b9060005260206000209060080201600101604051610c6d919061307e565b60405180910390a25050565b60006001600083815260200190815260200160002090503373ffffffffffffffffffffffffffffffffffffffff168160000160009054906101000a900473ffffffffffffffffffffffffffffffffffffffff1673ffffffffffffffffffffffffffffffffffffffff1614610d22576040517f08c379a0000000000000000000000000000000000000000000000000000000008152600401610d1990613112565b60405180910390fd5b60018160020160006101000a81548160ff0219169083151502179055506000610d4e8260010154611cde565b90506002826001015481548110610d6857610d67612b47565b5b9060005260206000200160009054906101000a900473ffffffffffffffffffffffffffffffffffffffff1673ffffffffffffffffffffffffffffffffffffffff166108fc8260c001519081150290604051600060405180830381858888f19350505050158015610ddc573d6000803e3d6000fd5b507f02a7d4d9472af7118644884b9a0ee443540c0027e938dd0aa35be8ecbe946c0a83604051610e0c9190612699565b60405180910390a1505050565b60016020528060005260406000206000915090508060000160009054906101000a900473ffffffffffffffffffffffffffffffffffffffff16908060010154908060020160009054906101000a900460ff16905083565b60606000808373ffffffffffffffffffffffffffffffffffffffff1673ffffffffffffffffffffffffffffffffffffffff168152602001908152602001600020805480602002602001604051908101604052809291908181526020016000905b8282101561130b578382906000526020600020906008020160405180610100016040529081600082018054610f0490612c50565b80601f0160208091040260200160405190810160405280929190818152602001828054610f3090612c50565b8015610f7d5780601f10610f5257610100808354040283529160200191610f7d565b820191906000526020600020905b815481529060010190602001808311610f6057829003601f168201915b50505050508152602001600182018054610f9690612c50565b80601f0160208091040260200160405190810160405280929190818152602001828054610fc290612c50565b801561100f5780601f10610fe45761010080835404028352916020019161100f565b820191906000526020600020905b815481529060010190602001808311610ff257829003601f168201915b5050505050815260200160028201805461102890612c50565b80601f016020809104026020016040519081016040528092919081815260200182805461105490612c50565b80156110a15780601f10611076576101008083540402835291602001916110a1565b820191906000526020600020905b81548152906001019060200180831161108457829003601f168201915b505050505081526020016003820180546110ba90612c50565b80601f01602080910402602001604051908101604052809291908181526020018280546110e690612c50565b80156111335780601f1061110857610100808354040283529160200191611133565b820191906000526020600020905b81548152906001019060200180831161111657829003601f168201915b5050505050815260200160048201805461114c90612c50565b80601f016020809104026020016040519081016040528092919081815260200182805461117890612c50565b80156111c55780601f1061119a576101008083540402835291602001916111c5565b820191906000526020600020905b8154815290600101906020018083116111a857829003601f168201915b505050505081526020016005820180546111de90612c50565b80601f016020809104026020016040519081016040528092919081815260200182805461120a90612c50565b80156112575780601f1061122c57610100808354040283529160200191611257565b820191906000526020600020905b81548152906001019060200180831161123a57829003601f168201915b505050505081526020016006820154815260200160078201805461127a90612c50565b80601f01602080910402602001604051908101604052809291908181526020018280546112a690612c50565b80156112f35780601f106112c8576101008083540402835291602001916112f3565b820191906000526020600020905b8154815290600101906020018083116112d657829003601f168201915b50505050508152505081526020019060010190610ed0565b505050509050919050565b600061132182611cde565b90508060c001513414611369576040517f08c379a00000000000000000000000000000000000000000000000000000000081526004016113609061317e565b60405180910390fd5b60405180606001604052803373ffffffffffffffffffffffffffffffffffffffff1681526020018381526020016000151581525060016000600354815260200190815260200160002060008201518160000160006101000a81548173ffffffffffffffffffffffffffffffffffffffff021916908373ffffffffffffffffffffffffffffffffffffffff1602179055506020820151816001015560408201518160020160006101000a81548160ff0219169083151502179055509050503373ffffffffffffffffffffffffffffffffffffffff167f03f23a9b67af957c8605376a4f515b53f102d4ad7f4da099bd1aff8e3ee13fec8360035460405161147092919061319e565b60405180910390a26003600081548092919061148b90612bd9565b91905055505050565b60008751116114d8576040517f08c379a00000000000000000000000000000000000000000000000000000000081526004016114cf90613213565b60405180910390fd5b600086511161151c576040517f08c379a00000000000000000000000000000000000000000000000000000000081526004016115139061327f565b60405180910390fd5b6000855111611560576040517f08c379a0000000000000000000000000000000000000000000000000000000008152600401611557906132eb565b60405180910390fd5b60008451116115a4576040517f08c379a000000000000000000000000000000000000000000000000000000000815260040161159b90613357565b60405180910390fd5b60008351116115e8576040517f08c379a00000000000000000000000000000000000000000000000000000000081526004016115df906133c3565b60405180910390fd5b6000821161162b576040517f08c379a00000000000000000000000000000000000000000000000000000000081526004016116229061342f565b60405180910390fd5b600081511161166f576040517f08c379a00000000000000000000000000000000000000000000000000000000081526004016116669061349b565b60405180910390fd5b60006040518061010001604052808a81526020018981526020018881526020018781526020018681526020018581526020018481526020018381525090506000803373ffffffffffffffffffffffffffffffffffffffff1673ffffffffffffffffffffffffffffffffffffffff168152602001908152602001600020819080600181540180825580915050600190039060005260206000209060080201600090919091909150600082015181600001908161172a91906134bb565b50602082015181600101908161174091906134bb565b50604082015181600201908161175691906134bb565b50606082015181600301908161176c91906134bb565b50608082015181600401908161178291906134bb565b5060a082015181600501908161179891906134bb565b5060c0820151816006015560e08201518160070190816117b891906134bb565b50505060016000803373ffffffffffffffffffffffffffffffffffffffff1673ffffffffffffffffffffffffffffffffffffffff1681526020019081526020016000208054905003611868576002339080600181540180825580915050600190039060005260206000200160009091909190916101000a81548173ffffffffffffffffffffffffffffffffffffffff021916908373ffffffffffffffffffffffffffffffffffffffff1602179055505b3373ffffffffffffffffffffffffffffffffffffffff167fb33be4898b3eae72be50da48dea4d99c1e830cd6f31f9d534998c4fcaa91b62e896040516118ae919061358d565b60405180910390a2505050505050505050565b600060205281600052604060002081815481106118dd57600080fd5b90600052602060002090600802016000915091505080600001805461190190612c50565b80601f016020809104026020016040519081016040528092919081815260200182805461192d90612c50565b801561197a5780601f1061194f5761010080835404028352916020019161197a565b820191906000526020600020905b81548152906001019060200180831161195d57829003601f168201915b50505050509080600101805461198f90612c50565b80601f01602080910402602001604051908101604052809291908181526020018280546119bb90612c50565b8015611a085780601f106119dd57610100808354040283529160200191611a08565b820191906000526020600020905b8154815290600101906020018083116119eb57829003601f168201915b505050505090806002018054611a1d90612c50565b80601f0160208091040260200160405190810160405280929190818152602001828054611a4990612c50565b8015611a965780601f10611a6b57610100808354040283529160200191611a96565b820191906000526020600020905b815481529060010190602001808311611a7957829003601f168201915b505050505090806003018054611aab90612c50565b80601f0160208091040260200160405190810160405280929190818152602001828054611ad790612c50565b8015611b245780601f10611af957610100808354040283529160200191611b24565b820191906000526020600020905b815481529060010190602001808311611b0757829003601f168201915b505050505090806004018054611b3990612c50565b80601f0160208091040260200160405190810160405280929190818152602001828054611b6590612c50565b8015611bb25780601f10611b8757610100808354040283529160200191611bb2565b820191906000526020600020905b815481529060010190602001808311611b9557829003601f168201915b505050505090806005018054611bc790612c50565b80601f0160208091040260200160405190810160405280929190818152602001828054611bf390612c50565b8015611c405780601f10611c1557610100808354040283529160200191611c40565b820191906000526020600020905b815481529060010190602001808311611c2357829003601f168201915b505050505090806006015490806007018054611c5b90612c50565b80601f0160208091040260200160405190810160405280929190818152602001828054611c8790612c50565b8015611cd45780601f10611ca957610100808354040283529160200191611cd4565b820191906000526020600020905b815481529060010190602001808311611cb757829003601f168201915b5050505050905088565b611ce66122b8565b6000805b6002805490508110156122775760005b60008060028481548110611d1157611d10612b47565b5b9060005260206000200160009054906101000a900473ffffffffffffffffffffffffffffffffffffffff1673ffffffffffffffffffffffffffffffffffffffff1673ffffffffffffffffffffffffffffffffffffffff16815260200190815260200160002080549050811015612263578483036122425760008060028481548110611d9f57611d9e612b47565b5b9060005260206000200160009054906101000a900473ffffffffffffffffffffffffffffffffffffffff1673ffffffffffffffffffffffffffffffffffffffff1673ffffffffffffffffffffffffffffffffffffffff1681526020019081526020016000208181548110611e1657611e15612b47565b5b906000526020600020906008020160405180610100016040529081600082018054611e4090612c50565b80601f0160208091040260200160405190810160405280929190818152602001828054611e6c90612c50565b8015611eb95780601f10611e8e57610100808354040283529160200191611eb9565b820191906000526020600020905b815481529060010190602001808311611e9c57829003601f168201915b50505050508152602001600182018054611ed290612c50565b80601f0160208091040260200160405190810160405280929190818152602001828054611efe90612c50565b8015611f4b5780601f10611f2057610100808354040283529160200191611f4b565b820191906000526020600020905b815481529060010190602001808311611f2e57829003601f168201915b50505050508152602001600282018054611f6490612c50565b80601f0160208091040260200160405190810160405280929190818152602001828054611f9090612c50565b8015611fdd5780601f10611fb257610100808354040283529160200191611fdd565b820191906000526020600020905b815481529060010190602001808311611fc057829003601f168201915b50505050508152602001600382018054611ff690612c50565b80601f016020809104026020016040519081016040528092919081815260200182805461202290612c50565b801561206f5780601f106120445761010080835404028352916020019161206f565b820191906000526020600020905b81548152906001019060200180831161205257829003601f168201915b5050505050815260200160048201805461208890612c50565b80601f01602080910402602001604051908101604052809291908181526020018280546120b490612c50565b80156121015780601f106120d657610100808354040283529160200191612101565b820191906000526020600020905b8154815290600101906020018083116120e457829003601f168201915b5050505050815260200160058201805461211a90612c50565b80601f016020809104026020016040519081016040528092919081815260200182805461214690612c50565b80156121935780601f1061216857610100808354040283529160200191612193565b820191906000526020600020905b81548152906001019060200180831161217657829003601f168201915b50505050508152602001600682015481526020016007820180546121b690612c50565b80601f01602080910402602001604051908101604052809291908181526020018280546121e290612c50565b801561222f5780601f106122045761010080835404028352916020019161222f565b820191906000526020600020905b81548152906001019060200180831161221257829003601f168201915b50505050508152505093505050506122b3565b828061224d90612bd9565b935050808061225b90612bd9565b915050611cfa565b50808061226f90612bd9565b915050611cea565b506040517f08c379a00000000000000000000000000000000000000000000000000000000081526004016122aa906135fb565b60405180910390fd5b919050565b60405180610100016040528060608152602001606081526020016060815260200160608152602001606081526020016060815260200160008152602001606081525090565b50805461230990612c50565b6000825580601f1061231b575061233a565b601f016020900490600052602060002090810190612339919061233d565b5b50565b5b8082111561235657600081600090555060010161233e565b5090565b6000604051905090565b600080fd5b600080fd5b6000819050919050565b6123818161236e565b811461238c57600080fd5b50565b60008135905061239e81612378565b92915050565b6000602082840312156123ba576123b9612364565b5b60006123c88482850161238f565b91505092915050565b600073ffffffffffffffffffffffffffffffffffffffff82169050919050565b60006123fc826123d1565b9050919050565b61240c816123f1565b82525050565b60006020820190506124276000830184612403565b92915050565b600081519050919050565b600082825260208201905092915050565b6000819050602082019050919050565b600081519050919050565b600082825260208201905092915050565b60005b83811015612493578082015181840152602081019050612478565b60008484015250505050565b6000601f19601f8301169050919050565b60006124bb82612459565b6124c58185612464565b93506124d5818560208601612475565b6124de8161249f565b840191505092915050565b6124f28161236e565b82525050565b600061010083016000830151848203600086015261251682826124b0565b9150506020830151848203602086015261253082826124b0565b9150506040830151848203604086015261254a82826124b0565b9150506060830151848203606086015261256482826124b0565b9150506080830151848203608086015261257e82826124b0565b91505060a083015184820360a086015261259882826124b0565b91505060c08301516125ad60c08601826124e9565b5060e083015184820360e08601526125c582826124b0565b9150508091505092915050565b60006125de83836124f8565b905092915050565b6000602082019050919050565b60006125fe8261242d565b6126088185612438565b93508360208202850161261a85612449565b8060005b85811015612656578484038952815161263785826125d2565b9450612642836125e6565b925060208a0199505060018101905061261e565b50829750879550505050505092915050565b6000602082019050818103600083015261268281846125f3565b905092915050565b6126938161236e565b82525050565b60006020820190506126ae600083018461268a565b92915050565b60008115159050919050565b6126c9816126b4565b82525050565b60006060820190506126e46000830186612403565b6126f1602083018561268a565b6126fe60408301846126c0565b949350505050565b61270f816123f1565b811461271a57600080fd5b50565b60008135905061272c81612706565b92915050565b60006020828403121561274857612747612364565b5b60006127568482850161271d565b91505092915050565b600080fd5b600080fd5b7f4e487b7100000000000000000000000000000000000000000000000000000000600052604160045260246000fd5b6127a18261249f565b810181811067ffffffffffffffff821117156127c0576127bf612769565b5b80604052505050565b60006127d361235a565b90506127df8282612798565b919050565b600067ffffffffffffffff8211156127ff576127fe612769565b5b6128088261249f565b9050602081019050919050565b82818337600083830152505050565b6000612837612832846127e4565b6127c9565b90508281526020810184848401111561285357612852612764565b5b61285e848285612815565b509392505050565b600082601f83011261287b5761287a61275f565b5b813561288b848260208601612824565b91505092915050565b600080600080600080600080610100898b0312156128b5576128b4612364565b5b600089013567ffffffffffffffff8111156128d3576128d2612369565b5b6128df8b828c01612866565b985050602089013567ffffffffffffffff811115612900576128ff612369565b5b61290c8b828c01612866565b975050604089013567ffffffffffffffff81111561292d5761292c612369565b5b6129398b828c01612866565b965050606089013567ffffffffffffffff81111561295a57612959612369565b5b6129668b828c01612866565b955050608089013567ffffffffffffffff81111561298757612986612369565b5b6129938b828c01612866565b94505060a089013567ffffffffffffffff8111156129b4576129b3612369565b5b6129c08b828c01612866565b93505060c06129d18b828c0161238f565b92505060e089013567ffffffffffffffff8111156129f2576129f1612369565b5b6129fe8b828c01612866565b9150509295985092959890939650565b60008060408385031215612a2557612a24612364565b5b6000612a338582860161271d565b9250506020612a448582860161238f565b9150509250929050565b600082825260208201905092915050565b6000612a6a82612459565b612a748185612a4e565b9350612a84818560208601612475565b612a8d8161249f565b840191505092915050565b6000610100820190508181036000830152612ab3818b612a5f565b90508181036020830152612ac7818a612a5f565b90508181036040830152612adb8189612a5f565b90508181036060830152612aef8188612a5f565b90508181036080830152612b038187612a5f565b905081810360a0830152612b178186612a5f565b9050612b2660c083018561268a565b81810360e0830152612b388184612a5f565b90509998505050505050505050565b7f4e487b7100000000000000000000000000000000000000000000000000000000600052603260045260246000fd5b7f4e487b7100000000000000000000000000000000000000000000000000000000600052601160045260246000fd5b6000612bb08261236e565b9150612bbb8361236e565b9250828201905080821115612bd357612bd2612b76565b5b92915050565b6000612be48261236e565b91507fffffffffffffffffffffffffffffffffffffffffffffffffffffffffffffffff8203612c1657612c15612b76565b5b600182019050919050565b7f4e487b7100000000000000000000000000000000000000000000000000000000600052602260045260246000fd5b60006002820490506001821680612c6857607f821691505b602082108103612c7b57612c7a612c21565b5b50919050565b7f5365727669636520696e646578206f7574206f6620626f756e64730000000000600082015250565b6000612cb7601b83612a4e565b9150612cc282612c81565b602082019050919050565b60006020820190508181036000830152612ce681612caa565b9050919050565b6000612cf88261236e565b9150612d038361236e565b9250828203905081811115612d1b57612d1a612b76565b5b92915050565b600081549050612d3081612c50565b9050919050565b60008190508160005260206000209050919050565b60006020601f8301049050919050565b600082821b905092915050565b600060088302612d997fffffffffffffffffffffffffffffffffffffffffffffffffffffffffffffffff82612d5c565b612da38683612d5c565b95508019841693508086168417925050509392505050565b6000819050919050565b6000612de0612ddb612dd68461236e565b612dbb565b61236e565b9050919050565b6000819050919050565b612dfa83612dc5565b612e0e612e0682612de7565b848454612d69565b825550505050565b600090565b612e23612e16565b612e2e818484612df1565b505050565b5b81811015612e5257612e47600082612e1b565b600181019050612e34565b5050565b601f821115612e9757612e6881612d37565b612e7184612d4c565b81016020851015612e80578190505b612e94612e8c85612d4c565b830182612e33565b50505b505050565b600082821c905092915050565b6000612eba60001984600802612e9c565b1980831691505092915050565b6000612ed38383612ea9565b9150826002028217905092915050565b818103612ef1575050612fc9565b612efa82612d21565b67ffffffffffffffff811115612f1357612f12612769565b5b612f1d8254612c50565b612f28828285612e56565b6000601f831160018114612f575760008415612f45578287015490505b612f4f8582612ec7565b865550612fc2565b601f198416612f6587612d37565b9650612f7086612d37565b60005b82811015612f9857848901548255600182019150600185019450602081019050612f73565b86831015612fb55784890154612fb1601f891682612ea9565b8355505b6001600288020188555050505b5050505050505b565b7f4e487b7100000000000000000000000000000000000000000000000000000000600052603160045260246000fd5b6000815461300781612c50565b6130118186612a4e565b9450600182166000811461302c576001811461304257613075565b60ff198316865281151560200286019350613075565b61304b85612d37565b60005b8381101561306d5781548189015260018201915060208101905061304e565b808801955050505b50505092915050565b600060208201905081810360008301526130988184612ffa565b905092915050565b7f4f6e6c792074686520757365722077686f20706c6163656420746865206f726460008201527f65722063616e20636f6e6669726d206974000000000000000000000000000000602082015250565b60006130fc603183612a4e565b9150613107826130a0565b604082019050919050565b6000602082019050818103600083015261312b816130ef565b9050919050565b7f496e636f7272656374207061796d656e7420616d6f756e740000000000000000600082015250565b6000613168601883612a4e565b915061317382613132565b602082019050919050565b600060208201905081810360008301526131978161315b565b9050919050565b60006040820190506131b3600083018561268a565b6131c0602083018461268a565b9392505050565b7f53657276696365206e616d652072657175697265640000000000000000000000600082015250565b60006131fd601583612a4e565b9150613208826131c7565b602082019050919050565b6000602082019050818103600083015261322c816131f0565b9050919050565b7f536572766963652063617465676f727920726571756972656400000000000000600082015250565b6000613269601983612a4e565b915061327482613233565b602082019050919050565b600060208201905081810360008301526132988161325c565b9050919050565b7f4164647265737320726571756972656400000000000000000000000000000000600082015250565b60006132d5601083612a4e565b91506132e08261329f565b602082019050919050565b60006020820190508181036000830152613304816132c8565b9050919050565b7f50686f6e65206e756d6265722072657175697265640000000000000000000000600082015250565b6000613341601583612a4e565b915061334c8261330b565b602082019050919050565b6000602082019050818103600083015261337081613334565b9050919050565b7f456d61696c207265717569726564000000000000000000000000000000000000600082015250565b60006133ad600e83612a4e565b91506133b882613377565b602082019050919050565b600060208201905081810360008301526133dc816133a0565b9050919050565b7f436f7374206d7573742062652067726561746572207468616e207a65726f0000600082015250565b6000613419601e83612a4e565b9150613424826133e3565b602082019050919050565b600060208201905081810360008301526134488161340c565b9050919050565b7f43757272656e6379207265717569726564000000000000000000000000000000600082015250565b6000613485601183612a4e565b91506134908261344f565b602082019050919050565b600060208201905081810360008301526134b481613478565b9050919050565b6134c482612459565b67ffffffffffffffff8111156134dd576134dc612769565b5b6134e78254612c50565b6134f2828285612e56565b600060209050601f8311600181146135255760008415613513578287015190505b61351d8582612ec7565b865550613585565b601f19841661353386612d37565b60005b8281101561355b57848901518255600182019150602085019450602081019050613536565b868310156135785784890151613574601f891682612ea9565b8355505b6001600288020188555050505b505050505050565b600060208201905081810360008301526135a78184612a5f565b905092915050565b7f53657276696365206e6f7420666f756e64000000000000000000000000000000600082015250565b60006135e5601183612a4e565b91506135f0826135af565b602082019050919050565b60006020820190508181036000830152613614816135d8565b905091905056fea264697066735822122024ae767920e8c9c13ab18dbc21b25d1c195ddcd448f3a77edba81178c5f33dc064736f6c63430008130033",
  "immutableReferences": {},
  "source": "// SPDX-License-Identifier: MIT\r\npragma solidity >=0.8.19;\r\n\r\ncontract ServiceContract {\r\n    struct Service {\r\n        string logo;\r\n        string name;\r\n        string category;\r\n        string addressDetail;\r\n        string phoneNumber;\r\n        string email;\r\n        uint256 cost;\r\n        string currency;\r\n    }\r\n\r\n    struct Order {\r\n        address user;\r\n        uint256 serviceId;\r\n        bool isCompleted;\r\n    }\r\n\r\n    mapping(address => Service[]) public services;\r\n    mapping(uint256 => Order) public orders;\r\n    address[] public serviceProviders;\r\n    uint256 public orderCount;\r\n\r\n    event ServiceAdded(address indexed user, string name);\r\n    event ServiceDeleted(address indexed user, string name);\r\n    event OrderPlaced(address indexed user, uint256 serviceId, uint256 orderId);\r\n    event OrderCompleted(uint256 orderId);\r\n\r\n    function addService(\r\n        string memory _logo,\r\n        string memory _name,\r\n        string memory _category,\r\n        string memory _addressDetail,\r\n        string memory _phoneNumber,\r\n        string memory _email,\r\n        uint256 _cost,\r\n        string memory _currency\r\n    ) public {\r\n        require(bytes(_name).length > 0, \"Service name required\");\r\n        require(bytes(_category).length > 0, \"Service category required\");\r\n        require(bytes(_addressDetail).length > 0, \"Address required\");\r\n        require(bytes(_phoneNumber).length > 0, \"Phone number required\");\r\n        require(bytes(_email).length > 0, \"Email required\");\r\n        require(_cost > 0, \"Cost must be greater than zero\");\r\n        require(bytes(_currency).length > 0, \"Currency required\");\r\n\r\n        Service memory newService = Service({\r\n            logo: _logo,\r\n            name: _name,\r\n            category: _category,\r\n            addressDetail: _addressDetail,\r\n            phoneNumber: _phoneNumber,\r\n            email: _email,\r\n            cost: _cost,\r\n            currency: _currency\r\n        });\r\n\r\n        services[msg.sender].push(newService);\r\n        if (services[msg.sender].length == 1) {\r\n            serviceProviders.push(msg.sender);\r\n        }\r\n        emit ServiceAdded(msg.sender, _name);\r\n    }\r\n\r\n    function getServices(address _user) public view returns (Service[] memory) {\r\n        return services[_user];\r\n    }\r\n\r\n    function deleteService(uint256 index) public {\r\n        require(index < services[msg.sender].length, \"Service index out of bounds\");\r\n        Service[] storage userServices = services[msg.sender];\r\n\r\n        for (uint256 i = index; i < userServices.length - 1; i++) {\r\n            userServices[i] = userServices[i + 1];\r\n        }\r\n\r\n        userServices.pop();\r\n        emit ServiceDeleted(msg.sender, userServices[index].name);\r\n    }\r\n\r\n    function getAllServices() public view returns (Service[] memory) {\r\n        uint totalServices;\r\n        for (uint i = 0; i < serviceProviders.length; i++) {\r\n            totalServices += services[serviceProviders[i]].length;\r\n        }\r\n\r\n        Service[] memory allServices = new Service[](totalServices);\r\n        uint counter = 0;\r\n        for (uint i = 0; i < serviceProviders.length; i++) {\r\n            for (uint j = 0; j < services[serviceProviders[i]].length; j++) {\r\n                allServices[counter] = services[serviceProviders[i]][j];\r\n                counter++;\r\n            }\r\n        }\r\n\r\n        return allServices;\r\n    }\r\n\r\n    function placeOrder(uint256 serviceId) public payable {\r\n        Service memory service = getServiceById(serviceId);\r\n        require(msg.value == service.cost, \"Incorrect payment amount\");\r\n\r\n        orders[orderCount] = Order({\r\n            user: msg.sender,\r\n            serviceId: serviceId,\r\n            isCompleted: false\r\n        });\r\n\r\n        emit OrderPlaced(msg.sender, serviceId, orderCount);\r\n        orderCount++;\r\n    }\r\n\r\n    function confirmOrder(uint256 orderId) public {\r\n        Order storage order = orders[orderId];\r\n        require(order.user == msg.sender, \"Only the user who placed the order can confirm it\");\r\n\r\n        order.isCompleted = true;\r\n        Service memory service = getServiceById(order.serviceId);\r\n        payable(serviceProviders[order.serviceId]).transfer(service.cost);\r\n\r\n        emit OrderCompleted(orderId);\r\n    }\r\n\r\n    function getServiceById(uint256 serviceId) internal view returns (Service memory) {\r\n        uint counter = 0;\r\n        for (uint i = 0; i < serviceProviders.length; i++) {\r\n            for (uint j = 0; j < services[serviceProviders[i]].length; j++) {\r\n                if (counter == serviceId) {\r\n                    return services[serviceProviders[i]][j];\r\n                }\r\n                counter++;\r\n            }\r\n        }\r\n        revert(\"Service not found\");\r\n    }\r\n}\r\n",
  "sourcePath": "C:\\Users\\Kevin Sorensen\\GitHub\\Aclean\\aclean-dapps\\blockchain\\contracts\\ServiceContract.sol",
  "compiler": {
    "name": "solc",
    "version": "0.8.19+commit.7dd6d404.Emscripten.clang"
  },
  "schemaVersion": "3.4.16",
  "updatedAt": "2024-05-18T15:37:32.013Z",
  "networkType": "ethereum",
  "devdoc": {
    "kind": "dev",
    "methods": {},
    "version": 1
  },
  "userdoc": {
    "kind": "user",
    "methods": {},
    "version": 1
  }
}