{
  "contractName": "ServiceContract",
  "abi": [
    {
      "anonymous": false,
      "inputs": [
        {
          "indexed": false,
          "internalType": "uint256",
          "name": "orderId",
          "type": "uint256"
        }
      ],
      "name": "OrderCompleted",
      "type": "event"
    },
    {
      "anonymous": false,
      "inputs": [
        {
          "indexed": true,
          "internalType": "address",
          "name": "user",
          "type": "address"
        },
        {
          "indexed": false,
          "internalType": "uint256",
          "name": "serviceId",
          "type": "uint256"
        },
        {
          "indexed": false,
          "internalType": "uint256",
          "name": "orderId",
          "type": "uint256"
        }
      ],
      "name": "OrderPlaced",
      "type": "event"
    },
    {
      "anonymous": false,
      "inputs": [
        {
          "indexed": false,
          "internalType": "uint256",
          "name": "orderId",
          "type": "uint256"
        }
      ],
      "name": "OrderStarted",
      "type": "event"
    },
    {
      "anonymous": false,
      "inputs": [
        {
          "indexed": true,
          "internalType": "address",
          "name": "user",
          "type": "address"
        },
        {
          "indexed": false,
          "internalType": "string",
          "name": "name",
          "type": "string"
        }
      ],
      "name": "ServiceAdded",
      "type": "event"
    },
    {
      "anonymous": false,
      "inputs": [
        {
          "indexed": true,
          "internalType": "address",
          "name": "user",
          "type": "address"
        },
        {
          "indexed": false,
          "internalType": "string",
          "name": "name",
          "type": "string"
        }
      ],
      "name": "ServiceDeleted",
      "type": "event"
    },
    {
      "inputs": [],
      "name": "orderCount",
      "outputs": [
        {
          "internalType": "uint256",
          "name": "",
          "type": "uint256"
        }
      ],
      "stateMutability": "view",
      "type": "function",
      "constant": true
    },
    {
      "inputs": [
        {
          "internalType": "uint256",
          "name": "",
          "type": "uint256"
        }
      ],
      "name": "orders",
      "outputs": [
        {
          "internalType": "address",
          "name": "user",
          "type": "address"
        },
        {
          "internalType": "uint256",
          "name": "serviceId",
          "type": "uint256"
        },
        {
          "internalType": "bool",
          "name": "isCompleted",
          "type": "bool"
        },
        {
          "internalType": "string",
          "name": "status",
          "type": "string"
        }
      ],
      "stateMutability": "view",
      "type": "function",
      "constant": true
    },
    {
      "inputs": [
        {
          "internalType": "uint256",
          "name": "",
          "type": "uint256"
        }
      ],
      "name": "serviceProviders",
      "outputs": [
        {
          "internalType": "address",
          "name": "",
          "type": "address"
        }
      ],
      "stateMutability": "view",
      "type": "function",
      "constant": true
    },
    {
      "inputs": [
        {
          "internalType": "address",
          "name": "",
          "type": "address"
        },
        {
          "internalType": "uint256",
          "name": "",
          "type": "uint256"
        }
      ],
      "name": "services",
      "outputs": [
        {
          "internalType": "string",
          "name": "logo",
          "type": "string"
        },
        {
          "internalType": "string",
          "name": "name",
          "type": "string"
        },
        {
          "internalType": "string",
          "name": "category",
          "type": "string"
        },
        {
          "internalType": "string",
          "name": "addressDetail",
          "type": "string"
        },
        {
          "internalType": "string",
          "name": "phoneNumber",
          "type": "string"
        },
        {
          "internalType": "string",
          "name": "email",
          "type": "string"
        },
        {
          "internalType": "uint256",
          "name": "cost",
          "type": "uint256"
        },
        {
          "internalType": "string",
          "name": "currency",
          "type": "string"
        },
        {
          "internalType": "address",
          "name": "owner",
          "type": "address"
        }
      ],
      "stateMutability": "view",
      "type": "function",
      "constant": true
    },
    {
      "inputs": [
        {
          "internalType": "string",
          "name": "_logo",
          "type": "string"
        },
        {
          "internalType": "string",
          "name": "_name",
          "type": "string"
        },
        {
          "internalType": "string",
          "name": "_category",
          "type": "string"
        },
        {
          "internalType": "string",
          "name": "_addressDetail",
          "type": "string"
        },
        {
          "internalType": "string",
          "name": "_phoneNumber",
          "type": "string"
        },
        {
          "internalType": "string",
          "name": "_email",
          "type": "string"
        },
        {
          "internalType": "uint256",
          "name": "_cost",
          "type": "uint256"
        },
        {
          "internalType": "string",
          "name": "_currency",
          "type": "string"
        }
      ],
      "name": "addService",
      "outputs": [],
      "stateMutability": "nonpayable",
      "type": "function"
    },
    {
      "inputs": [
        {
          "internalType": "address",
          "name": "_user",
          "type": "address"
        }
      ],
      "name": "getServices",
      "outputs": [
        {
          "components": [
            {
              "internalType": "string",
              "name": "logo",
              "type": "string"
            },
            {
              "internalType": "string",
              "name": "name",
              "type": "string"
            },
            {
              "internalType": "string",
              "name": "category",
              "type": "string"
            },
            {
              "internalType": "string",
              "name": "addressDetail",
              "type": "string"
            },
            {
              "internalType": "string",
              "name": "phoneNumber",
              "type": "string"
            },
            {
              "internalType": "string",
              "name": "email",
              "type": "string"
            },
            {
              "internalType": "uint256",
              "name": "cost",
              "type": "uint256"
            },
            {
              "internalType": "string",
              "name": "currency",
              "type": "string"
            },
            {
              "internalType": "address",
              "name": "owner",
              "type": "address"
            }
          ],
          "internalType": "struct ServiceContract.Service[]",
          "name": "",
          "type": "tuple[]"
        }
      ],
      "stateMutability": "view",
      "type": "function",
      "constant": true
    },
    {
      "inputs": [
        {
          "internalType": "uint256",
          "name": "index",
          "type": "uint256"
        }
      ],
      "name": "deleteService",
      "outputs": [],
      "stateMutability": "nonpayable",
      "type": "function"
    },
    {
      "inputs": [],
      "name": "getAllServices",
      "outputs": [
        {
          "components": [
            {
              "internalType": "string",
              "name": "logo",
              "type": "string"
            },
            {
              "internalType": "string",
              "name": "name",
              "type": "string"
            },
            {
              "internalType": "string",
              "name": "category",
              "type": "string"
            },
            {
              "internalType": "string",
              "name": "addressDetail",
              "type": "string"
            },
            {
              "internalType": "string",
              "name": "phoneNumber",
              "type": "string"
            },
            {
              "internalType": "string",
              "name": "email",
              "type": "string"
            },
            {
              "internalType": "uint256",
              "name": "cost",
              "type": "uint256"
            },
            {
              "internalType": "string",
              "name": "currency",
              "type": "string"
            },
            {
              "internalType": "address",
              "name": "owner",
              "type": "address"
            }
          ],
          "internalType": "struct ServiceContract.Service[]",
          "name": "",
          "type": "tuple[]"
        }
      ],
      "stateMutability": "view",
      "type": "function",
      "constant": true
    },
    {
      "inputs": [
        {
          "internalType": "uint256",
          "name": "serviceId",
          "type": "uint256"
        }
      ],
      "name": "placeOrder",
      "outputs": [],
      "stateMutability": "payable",
      "type": "function",
      "payable": true
    },
    {
      "inputs": [
        {
          "internalType": "uint256",
          "name": "orderId",
          "type": "uint256"
        }
      ],
      "name": "startOrder",
      "outputs": [],
      "stateMutability": "nonpayable",
      "type": "function"
    },
    {
      "inputs": [
        {
          "internalType": "uint256",
          "name": "orderId",
          "type": "uint256"
        }
      ],
      "name": "confirmOrder",
      "outputs": [],
      "stateMutability": "nonpayable",
      "type": "function"
    },
    {
      "inputs": [
        {
          "internalType": "uint256",
          "name": "serviceId",
          "type": "uint256"
        }
      ],
      "name": "getServiceById",
      "outputs": [
        {
          "components": [
            {
              "internalType": "string",
              "name": "logo",
              "type": "string"
            },
            {
              "internalType": "string",
              "name": "name",
              "type": "string"
            },
            {
              "internalType": "string",
              "name": "category",
              "type": "string"
            },
            {
              "internalType": "string",
              "name": "addressDetail",
              "type": "string"
            },
            {
              "internalType": "string",
              "name": "phoneNumber",
              "type": "string"
            },
            {
              "internalType": "string",
              "name": "email",
              "type": "string"
            },
            {
              "internalType": "uint256",
              "name": "cost",
              "type": "uint256"
            },
            {
              "internalType": "string",
              "name": "currency",
              "type": "string"
            },
            {
              "internalType": "address",
              "name": "owner",
              "type": "address"
            }
          ],
          "internalType": "struct ServiceContract.Service",
          "name": "",
          "type": "tuple"
        }
      ],
      "stateMutability": "view",
      "type": "function",
      "constant": true
    },
    {
      "inputs": [],
      "name": "getAllOrders",
      "outputs": [
        {
          "components": [
            {
              "internalType": "address",
              "name": "user",
              "type": "address"
            },
            {
              "internalType": "uint256",
              "name": "serviceId",
              "type": "uint256"
            },
            {
              "internalType": "bool",
              "name": "isCompleted",
              "type": "bool"
            },
            {
              "internalType": "string",
              "name": "status",
              "type": "string"
            }
          ],
          "internalType": "struct ServiceContract.Order[]",
          "name": "",
          "type": "tuple[]"
        }
      ],
      "stateMutability": "view",
      "type": "function",
      "constant": true
    },
    {
      "inputs": [
        {
          "internalType": "bool",
          "name": "isCompleted",
          "type": "bool"
        }
      ],
      "name": "getOrdersByStatus",
      "outputs": [
        {
          "components": [
            {
              "internalType": "address",
              "name": "user",
              "type": "address"
            },
            {
              "internalType": "uint256",
              "name": "serviceId",
              "type": "uint256"
            },
            {
              "internalType": "bool",
              "name": "isCompleted",
              "type": "bool"
            },
            {
              "internalType": "string",
              "name": "status",
              "type": "string"
            }
          ],
          "internalType": "struct ServiceContract.Order[]",
          "name": "",
          "type": "tuple[]"
        }
      ],
      "stateMutability": "view",
      "type": "function",
      "constant": true
    }
  ],
  "bytecode": "0x608060405234801561001057600080fd5b50614615806100206000396000f3fe6080604052600436106100dd5760003560e01c8063a85c38ef1161007f578063bbd882f011610059578063bbd882f0146102b4578063c134f17e146102dd578063ceb27daa14610322578063d7e611631461035f576100dd565b8063a85c38ef1461021b578063b2532a451461025b578063ba2255f414610298576100dd565b806374e29ee6116100bb57806374e29ee6146101755780637bea0d1c1461019e5780637d41fdd9146101c95780638ac7d79c146101f2576100dd565b80630a02dcc7146100e257806321fe0f301461011f5780632453ffa81461014a575b600080fd5b3480156100ee57600080fd5b5061010960048036038101906101049190612f4e565b61039c565b6040516101169190612fbc565b60405180910390f35b34801561012b57600080fd5b506101346103db565b6040516101419190613236565b60405180910390f35b34801561015657600080fd5b5061015f610ae9565b60405161016c9190613267565b60405180910390f35b34801561018157600080fd5b5061019c60048036038101906101979190612f4e565b610aef565b005b3480156101aa57600080fd5b506101b3610f08565b6040516101c091906133c2565b60405180910390f35b3480156101d557600080fd5b506101f060048036038101906101eb9190612f4e565b6110e4565b005b3480156101fe57600080fd5b5061021960048036038101906102149190612f4e565b6112a7565b005b34801561022757600080fd5b50610242600480360381019061023d9190612f4e565b6114d9565b604051610252949392919061343d565b60405180910390f35b34801561026757600080fd5b50610282600480360381019061027d91906134b5565b6115ce565b60405161028f9190613236565b60405180910390f35b6102b260048036038101906102ad9190612f4e565b611aca565b005b3480156102c057600080fd5b506102db60048036038101906102d69190613617565b611c68565b005b3480156102e957600080fd5b5061030460048036038101906102ff9190613791565b6120f9565b604051610319999897969594939291906137d1565b60405180910390f35b34801561032e57600080fd5b50610349600480360381019061034491906138bb565b61253c565b60405161035691906133c2565b60405180910390f35b34801561036b57600080fd5b5061038660048036038101906103819190612f4e565b6127d5565b60405161039391906139d7565b60405180910390f35b600281815481106103ac57600080fd5b906000526020600020016000915054906101000a900473ffffffffffffffffffffffffffffffffffffffff1681565b6060600080600090505b6002805490508110156104925760008060028381548110610409576104086139f9565b5b9060005260206000200160009054906101000a900473ffffffffffffffffffffffffffffffffffffffff1673ffffffffffffffffffffffffffffffffffffffff1673ffffffffffffffffffffffffffffffffffffffff168152602001908152602001600020805490508261047d9190613a57565b9150808061048a90613a8b565b9150506103e5565b5060008167ffffffffffffffff8111156104af576104ae6134ec565b5b6040519080825280602002602001820160405280156104e857816020015b6104d5612e05565b8152602001906001900390816104cd5790505b5090506000805b600280549050811015610adf5760005b60008060028481548110610516576105156139f9565b5b9060005260206000200160009054906101000a900473ffffffffffffffffffffffffffffffffffffffff1673ffffffffffffffffffffffffffffffffffffffff1673ffffffffffffffffffffffffffffffffffffffff16815260200190815260200160002080549050811015610acb576000806002848154811061059d5761059c6139f9565b5b9060005260206000200160009054906101000a900473ffffffffffffffffffffffffffffffffffffffff1673ffffffffffffffffffffffffffffffffffffffff1673ffffffffffffffffffffffffffffffffffffffff1681526020019081526020016000208181548110610614576106136139f9565b5b90600052602060002090600902016040518061012001604052908160008201805461063e90613b02565b80601f016020809104026020016040519081016040528092919081815260200182805461066a90613b02565b80156106b75780601f1061068c576101008083540402835291602001916106b7565b820191906000526020600020905b81548152906001019060200180831161069a57829003601f168201915b505050505081526020016001820180546106d090613b02565b80601f01602080910402602001604051908101604052809291908181526020018280546106fc90613b02565b80156107495780601f1061071e57610100808354040283529160200191610749565b820191906000526020600020905b81548152906001019060200180831161072c57829003601f168201915b5050505050815260200160028201805461076290613b02565b80601f016020809104026020016040519081016040528092919081815260200182805461078e90613b02565b80156107db5780601f106107b0576101008083540402835291602001916107db565b820191906000526020600020905b8154815290600101906020018083116107be57829003601f168201915b505050505081526020016003820180546107f490613b02565b80601f016020809104026020016040519081016040528092919081815260200182805461082090613b02565b801561086d5780601f106108425761010080835404028352916020019161086d565b820191906000526020600020905b81548152906001019060200180831161085057829003601f168201915b5050505050815260200160048201805461088690613b02565b80601f01602080910402602001604051908101604052809291908181526020018280546108b290613b02565b80156108ff5780601f106108d4576101008083540402835291602001916108ff565b820191906000526020600020905b8154815290600101906020018083116108e257829003601f168201915b5050505050815260200160058201805461091890613b02565b80601f016020809104026020016040519081016040528092919081815260200182805461094490613b02565b80156109915780601f1061096657610100808354040283529160200191610991565b820191906000526020600020905b81548152906001019060200180831161097457829003601f168201915b50505050508152602001600682015481526020016007820180546109b490613b02565b80601f01602080910402602001604051908101604052809291908181526020018280546109e090613b02565b8015610a2d5780601f10610a0257610100808354040283529160200191610a2d565b820191906000526020600020905b815481529060010190602001808311610a1057829003601f168201915b505050505081526020016008820160009054906101000a900473ffffffffffffffffffffffffffffffffffffffff1673ffffffffffffffffffffffffffffffffffffffff1673ffffffffffffffffffffffffffffffffffffffff1681525050848481518110610a9f57610a9e6139f9565b5b60200260200101819052508280610ab590613a8b565b9350508080610ac390613a8b565b9150506104ff565b508080610ad790613a8b565b9150506104ef565b5081935050505090565b60035481565b6000803373ffffffffffffffffffffffffffffffffffffffff1673ffffffffffffffffffffffffffffffffffffffff168152602001908152602001600020805490508110610b72576040517f08c379a0000000000000000000000000000000000000000000000000000000008152600401610b6990613b7f565b60405180910390fd5b60008060003373ffffffffffffffffffffffffffffffffffffffff1673ffffffffffffffffffffffffffffffffffffffff16815260200190815260200160002090506000818381548110610bc957610bc86139f9565b5b90600052602060002090600902016001018054610be590613b02565b80601f0160208091040260200160405190810160405280929190818152602001828054610c1190613b02565b8015610c5e5780601f10610c3357610100808354040283529160200191610c5e565b820191906000526020600020905b815481529060010190602001808311610c4157829003601f168201915b5050505050905060008390505b60018380549050610c7c9190613b9f565b811015610deb5782600182610c919190613a57565b81548110610ca257610ca16139f9565b5b9060005260206000209060090201838281548110610cc357610cc26139f9565b5b906000526020600020906009020160008201816000019081610ce59190613d95565b5060018201816001019081610cfa9190613d95565b5060028201816002019081610d0f9190613d95565b5060038201816003019081610d249190613d95565b5060048201816004019081610d399190613d95565b5060058201816005019081610d4e9190613d95565b506006820154816006015560078201816007019081610d6d9190613d95565b506008820160009054906101000a900473ffffffffffffffffffffffffffffffffffffffff168160080160006101000a81548173ffffffffffffffffffffffffffffffffffffffff021916908373ffffffffffffffffffffffffffffffffffffffff1602179055509050508080610de390613a8b565b915050610c6b565b5081805480610dfd57610dfc613e7d565b5b600190038181906000526020600020906009020160008082016000610e229190612e67565b600182016000610e329190612e67565b600282016000610e429190612e67565b600382016000610e529190612e67565b600482016000610e629190612e67565b600582016000610e729190612e67565b6006820160009055600782016000610e8a9190612e67565b6008820160006101000a81549073ffffffffffffffffffffffffffffffffffffffff0219169055505090553373ffffffffffffffffffffffffffffffffffffffff167f970480f79372727bc0f144df151fd4335131d28955ae2cbabd6c79326917a6d682604051610efb9190613eac565b60405180910390a2505050565b6060600060035467ffffffffffffffff811115610f2857610f276134ec565b5b604051908082528060200260200182016040528015610f6157816020015b610f4e612ea7565b815260200190600190039081610f465790505b50905060005b6003548110156110dc5760018181548110610f8557610f846139f9565b5b90600052602060002090600402016040518060800160405290816000820160009054906101000a900473ffffffffffffffffffffffffffffffffffffffff1673ffffffffffffffffffffffffffffffffffffffff1673ffffffffffffffffffffffffffffffffffffffff168152602001600182015481526020016002820160009054906101000a900460ff1615151515815260200160038201805461102990613b02565b80601f016020809104026020016040519081016040528092919081815260200182805461105590613b02565b80156110a25780601f10611077576101008083540402835291602001916110a2565b820191906000526020600020905b81548152906001019060200180831161108557829003601f168201915b5050505050815250508282815181106110be576110bd6139f9565b5b602002602001018190525080806110d490613a8b565b915050610f67565b508091505090565b6000600182815481106110fa576110f96139f9565b5b906000526020600020906004020190506040518060400160405280600781526020017f50656e64696e670000000000000000000000000000000000000000000000000081525080519060200120816003016040516111589190613f71565b6040518091039020146111a0576040517f08c379a000000000000000000000000000000000000000000000000000000000815260040161119790613fd4565b60405180910390fd5b60006111af82600101546127d5565b90503373ffffffffffffffffffffffffffffffffffffffff1681610100015173ffffffffffffffffffffffffffffffffffffffff1614611224576040517f08c379a000000000000000000000000000000000000000000000000000000000815260040161121b90614066565b60405180910390fd5b6040518060400160405280600b81526020017f496e2050726f677265737300000000000000000000000000000000000000000081525082600301908161126a9190614086565b507f47bcc645b6943f52356a519ca40878cc505371af5b73b2457595edfe969e1ae68360405161129a9190613267565b60405180910390a1505050565b6000600182815481106112bd576112bc6139f9565b5b906000526020600020906004020190506040518060400160405280600b81526020017f496e2050726f6772657373000000000000000000000000000000000000000000815250805190602001208160030160405161131b9190613f71565b604051809103902014611363576040517f08c379a000000000000000000000000000000000000000000000000000000000815260040161135a906141a4565b60405180910390fd5b3373ffffffffffffffffffffffffffffffffffffffff168160000160009054906101000a900473ffffffffffffffffffffffffffffffffffffffff1673ffffffffffffffffffffffffffffffffffffffff16146113f5576040517f08c379a00000000000000000000000000000000000000000000000000000000081526004016113ec90614236565b60405180910390fd5b6040518060400160405280600981526020017f436f6d706c65746564000000000000000000000000000000000000000000000081525081600301908161143b9190614086565b50600061144b82600101546127d5565b905080610100015173ffffffffffffffffffffffffffffffffffffffff166108fc8260c001519081150290604051600060405180830381858888f1935050505015801561149c573d6000803e3d6000fd5b507f02a7d4d9472af7118644884b9a0ee443540c0027e938dd0aa35be8ecbe946c0a836040516114cc9190613267565b60405180910390a1505050565b600181815481106114e957600080fd5b90600052602060002090600402016000915090508060000160009054906101000a900473ffffffffffffffffffffffffffffffffffffffff16908060010154908060020160009054906101000a900460ff169080600301805461154b90613b02565b80601f016020809104026020016040519081016040528092919081815260200182805461157790613b02565b80156115c45780601f10611599576101008083540402835291602001916115c4565b820191906000526020600020905b8154815290600101906020018083116115a757829003601f168201915b5050505050905084565b60606000808373ffffffffffffffffffffffffffffffffffffffff1673ffffffffffffffffffffffffffffffffffffffff168152602001908152602001600020805480602002602001604051908101604052809291908181526020016000905b82821015611abf57838290600052602060002090600902016040518061012001604052908160008201805461166290613b02565b80601f016020809104026020016040519081016040528092919081815260200182805461168e90613b02565b80156116db5780601f106116b0576101008083540402835291602001916116db565b820191906000526020600020905b8154815290600101906020018083116116be57829003601f168201915b505050505081526020016001820180546116f490613b02565b80601f016020809104026020016040519081016040528092919081815260200182805461172090613b02565b801561176d5780601f106117425761010080835404028352916020019161176d565b820191906000526020600020905b81548152906001019060200180831161175057829003601f168201915b5050505050815260200160028201805461178690613b02565b80601f01602080910402602001604051908101604052809291908181526020018280546117b290613b02565b80156117ff5780601f106117d4576101008083540402835291602001916117ff565b820191906000526020600020905b8154815290600101906020018083116117e257829003601f168201915b5050505050815260200160038201805461181890613b02565b80601f016020809104026020016040519081016040528092919081815260200182805461184490613b02565b80156118915780601f1061186657610100808354040283529160200191611891565b820191906000526020600020905b81548152906001019060200180831161187457829003601f168201915b505050505081526020016004820180546118aa90613b02565b80601f01602080910402602001604051908101604052809291908181526020018280546118d690613b02565b80156119235780601f106118f857610100808354040283529160200191611923565b820191906000526020600020905b81548152906001019060200180831161190657829003601f168201915b5050505050815260200160058201805461193c90613b02565b80601f016020809104026020016040519081016040528092919081815260200182805461196890613b02565b80156119b55780601f1061198a576101008083540402835291602001916119b5565b820191906000526020600020905b81548152906001019060200180831161199857829003601f168201915b50505050508152602001600682015481526020016007820180546119d890613b02565b80601f0160208091040260200160405190810160405280929190818152602001828054611a0490613b02565b8015611a515780601f10611a2657610100808354040283529160200191611a51565b820191906000526020600020905b815481529060010190602001808311611a3457829003601f168201915b505050505081526020016008820160009054906101000a900473ffffffffffffffffffffffffffffffffffffffff1673ffffffffffffffffffffffffffffffffffffffff1673ffffffffffffffffffffffffffffffffffffffff16815250508152602001906001019061162e565b505050509050919050565b6000611ad5826127d5565b9050600160405180608001604052803373ffffffffffffffffffffffffffffffffffffffff1681526020018481526020016000151581526020016040518060400160405280600781526020017f50656e64696e6700000000000000000000000000000000000000000000000000815250815250908060018154018082558091505060019003906000526020600020906004020160009091909190915060008201518160000160006101000a81548173ffffffffffffffffffffffffffffffffffffffff021916908373ffffffffffffffffffffffffffffffffffffffff1602179055506020820151816001015560408201518160020160006101000a81548160ff0219169083151502179055506060820151816003019081611bf79190614086565b5050503373ffffffffffffffffffffffffffffffffffffffff167f03f23a9b67af957c8605376a4f515b53f102d4ad7f4da099bd1aff8e3ee13fec83600354604051611c44929190614256565b60405180910390a260036000815480929190611c5f90613a8b565b91905055505050565b6000875111611cac576040517f08c379a0000000000000000000000000000000000000000000000000000000008152600401611ca3906142cb565b60405180910390fd5b6000865111611cf0576040517f08c379a0000000000000000000000000000000000000000000000000000000008152600401611ce790614337565b60405180910390fd5b6000855111611d34576040517f08c379a0000000000000000000000000000000000000000000000000000000008152600401611d2b906143a3565b60405180910390fd5b6000845111611d78576040517f08c379a0000000000000000000000000000000000000000000000000000000008152600401611d6f9061440f565b60405180910390fd5b6000835111611dbc576040517f08c379a0000000000000000000000000000000000000000000000000000000008152600401611db39061447b565b60405180910390fd5b60008211611dff576040517f08c379a0000000000000000000000000000000000000000000000000000000008152600401611df6906144e7565b60405180910390fd5b6000815111611e43576040517f08c379a0000000000000000000000000000000000000000000000000000000008152600401611e3a90614553565b60405180910390fd5b60006040518061012001604052808a81526020018981526020018881526020018781526020018681526020018581526020018481526020018381526020013373ffffffffffffffffffffffffffffffffffffffff1681525090506000803373ffffffffffffffffffffffffffffffffffffffff1673ffffffffffffffffffffffffffffffffffffffff1681526020019081526020016000208190806001815401808255809150506001900390600052602060002090600902016000909190919091506000820151816000019081611f1a9190614086565b506020820151816001019081611f309190614086565b506040820151816002019081611f469190614086565b506060820151816003019081611f5c9190614086565b506080820151816004019081611f729190614086565b5060a0820151816005019081611f889190614086565b5060c0820151816006015560e0820151816007019081611fa89190614086565b506101008201518160080160006101000a81548173ffffffffffffffffffffffffffffffffffffffff021916908373ffffffffffffffffffffffffffffffffffffffff160217905550505060016000803373ffffffffffffffffffffffffffffffffffffffff1673ffffffffffffffffffffffffffffffffffffffff16815260200190815260200160002080549050036120a0576002339080600181540180825580915050600190039060005260206000200160009091909190916101000a81548173ffffffffffffffffffffffffffffffffffffffff021916908373ffffffffffffffffffffffffffffffffffffffff1602179055505b3373ffffffffffffffffffffffffffffffffffffffff167fb33be4898b3eae72be50da48dea4d99c1e830cd6f31f9d534998c4fcaa91b62e896040516120e69190613eac565b60405180910390a2505050505050505050565b6000602052816000526040600020818154811061211557600080fd5b90600052602060002090600902016000915091505080600001805461213990613b02565b80601f016020809104026020016040519081016040528092919081815260200182805461216590613b02565b80156121b25780601f10612187576101008083540402835291602001916121b2565b820191906000526020600020905b81548152906001019060200180831161219557829003601f168201915b5050505050908060010180546121c790613b02565b80601f01602080910402602001604051908101604052809291908181526020018280546121f390613b02565b80156122405780601f1061221557610100808354040283529160200191612240565b820191906000526020600020905b81548152906001019060200180831161222357829003601f168201915b50505050509080600201805461225590613b02565b80601f016020809104026020016040519081016040528092919081815260200182805461228190613b02565b80156122ce5780601f106122a3576101008083540402835291602001916122ce565b820191906000526020600020905b8154815290600101906020018083116122b157829003601f168201915b5050505050908060030180546122e390613b02565b80601f016020809104026020016040519081016040528092919081815260200182805461230f90613b02565b801561235c5780601f106123315761010080835404028352916020019161235c565b820191906000526020600020905b81548152906001019060200180831161233f57829003601f168201915b50505050509080600401805461237190613b02565b80601f016020809104026020016040519081016040528092919081815260200182805461239d90613b02565b80156123ea5780601f106123bf576101008083540402835291602001916123ea565b820191906000526020600020905b8154815290600101906020018083116123cd57829003601f168201915b5050505050908060050180546123ff90613b02565b80601f016020809104026020016040519081016040528092919081815260200182805461242b90613b02565b80156124785780601f1061244d57610100808354040283529160200191612478565b820191906000526020600020905b81548152906001019060200180831161245b57829003601f168201915b50505050509080600601549080600701805461249390613b02565b80601f01602080910402602001604051908101604052809291908181526020018280546124bf90613b02565b801561250c5780601f106124e15761010080835404028352916020019161250c565b820191906000526020600020905b8154815290600101906020018083116124ef57829003601f168201915b5050505050908060080160009054906101000a900473ffffffffffffffffffffffffffffffffffffffff16905089565b60606000805b6003548110156125ab5783151560018281548110612563576125626139f9565b5b906000526020600020906004020160020160009054906101000a900460ff1615150361259857818061259490613a8b565b9250505b80806125a390613a8b565b915050612542565b5060008167ffffffffffffffff8111156125c8576125c76134ec565b5b60405190808252806020026020018201604052801561260157816020015b6125ee612ea7565b8152602001906001900390816125e65790505b5090506000805b6003548110156127c95785151560018281548110612629576126286139f9565b5b906000526020600020906004020160020160009054906101000a900460ff161515036127b65760018181548110612663576126626139f9565b5b90600052602060002090600402016040518060800160405290816000820160009054906101000a900473ffffffffffffffffffffffffffffffffffffffff1673ffffffffffffffffffffffffffffffffffffffff1673ffffffffffffffffffffffffffffffffffffffff168152602001600182015481526020016002820160009054906101000a900460ff1615151515815260200160038201805461270790613b02565b80601f016020809104026020016040519081016040528092919081815260200182805461273390613b02565b80156127805780601f1061275557610100808354040283529160200191612780565b820191906000526020600020905b81548152906001019060200180831161276357829003601f168201915b50505050508152505083838151811061279c5761279b6139f9565b5b602002602001018190525081806127b290613a8b565b9250505b80806127c190613a8b565b915050612608565b50819350505050919050565b6127dd612e05565b6000805b600280549050811015612dc45760005b60008060028481548110612808576128076139f9565b5b9060005260206000200160009054906101000a900473ffffffffffffffffffffffffffffffffffffffff1673ffffffffffffffffffffffffffffffffffffffff1673ffffffffffffffffffffffffffffffffffffffff16815260200190815260200160002080549050811015612db057848303612d8f5760008060028481548110612896576128956139f9565b5b9060005260206000200160009054906101000a900473ffffffffffffffffffffffffffffffffffffffff1673ffffffffffffffffffffffffffffffffffffffff1673ffffffffffffffffffffffffffffffffffffffff168152602001908152602001600020818154811061290d5761290c6139f9565b5b90600052602060002090600902016040518061012001604052908160008201805461293790613b02565b80601f016020809104026020016040519081016040528092919081815260200182805461296390613b02565b80156129b05780601f10612985576101008083540402835291602001916129b0565b820191906000526020600020905b81548152906001019060200180831161299357829003601f168201915b505050505081526020016001820180546129c990613b02565b80601f01602080910402602001604051908101604052809291908181526020018280546129f590613b02565b8015612a425780601f10612a1757610100808354040283529160200191612a42565b820191906000526020600020905b815481529060010190602001808311612a2557829003601f168201915b50505050508152602001600282018054612a5b90613b02565b80601f0160208091040260200160405190810160405280929190818152602001828054612a8790613b02565b8015612ad45780601f10612aa957610100808354040283529160200191612ad4565b820191906000526020600020905b815481529060010190602001808311612ab757829003601f168201915b50505050508152602001600382018054612aed90613b02565b80601f0160208091040260200160405190810160405280929190818152602001828054612b1990613b02565b8015612b665780601f10612b3b57610100808354040283529160200191612b66565b820191906000526020600020905b815481529060010190602001808311612b4957829003601f168201915b50505050508152602001600482018054612b7f90613b02565b80601f0160208091040260200160405190810160405280929190818152602001828054612bab90613b02565b8015612bf85780601f10612bcd57610100808354040283529160200191612bf8565b820191906000526020600020905b815481529060010190602001808311612bdb57829003601f168201915b50505050508152602001600582018054612c1190613b02565b80601f0160208091040260200160405190810160405280929190818152602001828054612c3d90613b02565b8015612c8a5780601f10612c5f57610100808354040283529160200191612c8a565b820191906000526020600020905b815481529060010190602001808311612c6d57829003601f168201915b5050505050815260200160068201548152602001600782018054612cad90613b02565b80601f0160208091040260200160405190810160405280929190818152602001828054612cd990613b02565b8015612d265780601f10612cfb57610100808354040283529160200191612d26565b820191906000526020600020905b815481529060010190602001808311612d0957829003601f168201915b505050505081526020016008820160009054906101000a900473ffffffffffffffffffffffffffffffffffffffff1673ffffffffffffffffffffffffffffffffffffffff1673ffffffffffffffffffffffffffffffffffffffff16815250509350505050612e00565b8280612d9a90613a8b565b9350508080612da890613a8b565b9150506127f1565b508080612dbc90613a8b565b9150506127e1565b506040517f08c379a0000000000000000000000000000000000000000000000000000000008152600401612df7906145bf565b60405180910390fd5b919050565b6040518061012001604052806060815260200160608152602001606081526020016060815260200160608152602001606081526020016000815260200160608152602001600073ffffffffffffffffffffffffffffffffffffffff1681525090565b508054612e7390613b02565b6000825580601f10612e855750612ea4565b601f016020900490600052602060002090810190612ea39190612ee7565b5b50565b6040518060800160405280600073ffffffffffffffffffffffffffffffffffffffff16815260200160008152602001600015158152602001606081525090565b5b80821115612f00576000816000905550600101612ee8565b5090565b6000604051905090565b600080fd5b600080fd5b6000819050919050565b612f2b81612f18565b8114612f3657600080fd5b50565b600081359050612f4881612f22565b92915050565b600060208284031215612f6457612f63612f0e565b5b6000612f7284828501612f39565b91505092915050565b600073ffffffffffffffffffffffffffffffffffffffff82169050919050565b6000612fa682612f7b565b9050919050565b612fb681612f9b565b82525050565b6000602082019050612fd16000830184612fad565b92915050565b600081519050919050565b600082825260208201905092915050565b6000819050602082019050919050565b600081519050919050565b600082825260208201905092915050565b60005b8381101561303d578082015181840152602081019050613022565b60008484015250505050565b6000601f19601f8301169050919050565b600061306582613003565b61306f818561300e565b935061307f81856020860161301f565b61308881613049565b840191505092915050565b61309c81612f18565b82525050565b6130ab81612f9b565b82525050565b60006101208301600083015184820360008601526130cf828261305a565b915050602083015184820360208601526130e9828261305a565b91505060408301518482036040860152613103828261305a565b9150506060830151848203606086015261311d828261305a565b91505060808301518482036080860152613137828261305a565b91505060a083015184820360a0860152613151828261305a565b91505060c083015161316660c0860182613093565b5060e083015184820360e086015261317e828261305a565b9150506101008301516131956101008601826130a2565b508091505092915050565b60006131ac83836130b1565b905092915050565b6000602082019050919050565b60006131cc82612fd7565b6131d68185612fe2565b9350836020820285016131e885612ff3565b8060005b85811015613224578484038952815161320585826131a0565b9450613210836131b4565b925060208a019950506001810190506131ec565b50829750879550505050505092915050565b6000602082019050818103600083015261325081846131c1565b905092915050565b61326181612f18565b82525050565b600060208201905061327c6000830184613258565b92915050565b600081519050919050565b600082825260208201905092915050565b6000819050602082019050919050565b60008115159050919050565b6132c3816132ae565b82525050565b60006080830160008301516132e160008601826130a2565b5060208301516132f46020860182613093565b50604083015161330760408601826132ba565b506060830151848203606086015261331f828261305a565b9150508091505092915050565b600061333883836132c9565b905092915050565b6000602082019050919050565b600061335882613282565b613362818561328d565b9350836020820285016133748561329e565b8060005b858110156133b05784840389528151613391858261332c565b945061339c83613340565b925060208a01995050600181019050613378565b50829750879550505050505092915050565b600060208201905081810360008301526133dc818461334d565b905092915050565b6133ed816132ae565b82525050565b600082825260208201905092915050565b600061340f82613003565b61341981856133f3565b935061342981856020860161301f565b61343281613049565b840191505092915050565b60006080820190506134526000830187612fad565b61345f6020830186613258565b61346c60408301856133e4565b818103606083015261347e8184613404565b905095945050505050565b61349281612f9b565b811461349d57600080fd5b50565b6000813590506134af81613489565b92915050565b6000602082840312156134cb576134ca612f0e565b5b60006134d9848285016134a0565b91505092915050565b600080fd5b600080fd5b7f4e487b7100000000000000000000000000000000000000000000000000000000600052604160045260246000fd5b61352482613049565b810181811067ffffffffffffffff82111715613543576135426134ec565b5b80604052505050565b6000613556612f04565b9050613562828261351b565b919050565b600067ffffffffffffffff821115613582576135816134ec565b5b61358b82613049565b9050602081019050919050565b82818337600083830152505050565b60006135ba6135b584613567565b61354c565b9050828152602081018484840111156135d6576135d56134e7565b5b6135e1848285613598565b509392505050565b600082601f8301126135fe576135fd6134e2565b5b813561360e8482602086016135a7565b91505092915050565b600080600080600080600080610100898b03121561363857613637612f0e565b5b600089013567ffffffffffffffff81111561365657613655612f13565b5b6136628b828c016135e9565b985050602089013567ffffffffffffffff81111561368357613682612f13565b5b61368f8b828c016135e9565b975050604089013567ffffffffffffffff8111156136b0576136af612f13565b5b6136bc8b828c016135e9565b965050606089013567ffffffffffffffff8111156136dd576136dc612f13565b5b6136e98b828c016135e9565b955050608089013567ffffffffffffffff81111561370a57613709612f13565b5b6137168b828c016135e9565b94505060a089013567ffffffffffffffff81111561373757613736612f13565b5b6137438b828c016135e9565b93505060c06137548b828c01612f39565b92505060e089013567ffffffffffffffff81111561377557613774612f13565b5b6137818b828c016135e9565b9150509295985092959890939650565b600080604083850312156137a8576137a7612f0e565b5b60006137b6858286016134a0565b92505060206137c785828601612f39565b9150509250929050565b60006101208201905081810360008301526137ec818c613404565b90508181036020830152613800818b613404565b90508181036040830152613814818a613404565b905081810360608301526138288189613404565b9050818103608083015261383c8188613404565b905081810360a08301526138508187613404565b905061385f60c0830186613258565b81810360e08301526138718185613404565b9050613881610100830184612fad565b9a9950505050505050505050565b613898816132ae565b81146138a357600080fd5b50565b6000813590506138b58161388f565b92915050565b6000602082840312156138d1576138d0612f0e565b5b60006138df848285016138a6565b91505092915050565b6000610120830160008301518482036000860152613906828261305a565b91505060208301518482036020860152613920828261305a565b9150506040830151848203604086015261393a828261305a565b91505060608301518482036060860152613954828261305a565b9150506080830151848203608086015261396e828261305a565b91505060a083015184820360a0860152613988828261305a565b91505060c083015161399d60c0860182613093565b5060e083015184820360e08601526139b5828261305a565b9150506101008301516139cc6101008601826130a2565b508091505092915050565b600060208201905081810360008301526139f181846138e8565b905092915050565b7f4e487b7100000000000000000000000000000000000000000000000000000000600052603260045260246000fd5b7f4e487b7100000000000000000000000000000000000000000000000000000000600052601160045260246000fd5b6000613a6282612f18565b9150613a6d83612f18565b9250828201905080821115613a8557613a84613a28565b5b92915050565b6000613a9682612f18565b91507fffffffffffffffffffffffffffffffffffffffffffffffffffffffffffffffff8203613ac857613ac7613a28565b5b600182019050919050565b7f4e487b7100000000000000000000000000000000000000000000000000000000600052602260045260246000fd5b60006002820490506001821680613b1a57607f821691505b602082108103613b2d57613b2c613ad3565b5b50919050565b7f5365727669636520696e646578206f7574206f6620626f756e64730000000000600082015250565b6000613b69601b836133f3565b9150613b7482613b33565b602082019050919050565b60006020820190508181036000830152613b9881613b5c565b9050919050565b6000613baa82612f18565b9150613bb583612f18565b9250828203905081811115613bcd57613bcc613a28565b5b92915050565b600081549050613be281613b02565b9050919050565b60008190508160005260206000209050919050565b60006020601f8301049050919050565b600082821b905092915050565b600060088302613c4b7fffffffffffffffffffffffffffffffffffffffffffffffffffffffffffffffff82613c0e565b613c558683613c0e565b95508019841693508086168417925050509392505050565b6000819050919050565b6000613c92613c8d613c8884612f18565b613c6d565b612f18565b9050919050565b6000819050919050565b613cac83613c77565b613cc0613cb882613c99565b848454613c1b565b825550505050565b600090565b613cd5613cc8565b613ce0818484613ca3565b505050565b5b81811015613d0457613cf9600082613ccd565b600181019050613ce6565b5050565b601f821115613d4957613d1a81613be9565b613d2384613bfe565b81016020851015613d32578190505b613d46613d3e85613bfe565b830182613ce5565b50505b505050565b600082821c905092915050565b6000613d6c60001984600802613d4e565b1980831691505092915050565b6000613d858383613d5b565b9150826002028217905092915050565b818103613da3575050613e7b565b613dac82613bd3565b67ffffffffffffffff811115613dc557613dc46134ec565b5b613dcf8254613b02565b613dda828285613d08565b6000601f831160018114613e095760008415613df7578287015490505b613e018582613d79565b865550613e74565b601f198416613e1787613be9565b9650613e2286613be9565b60005b82811015613e4a57848901548255600182019150600185019450602081019050613e25565b86831015613e675784890154613e63601f891682613d5b565b8355505b6001600288020188555050505b5050505050505b565b7f4e487b7100000000000000000000000000000000000000000000000000000000600052603160045260246000fd5b60006020820190508181036000830152613ec68184613404565b905092915050565b600081905092915050565b60008190508160005260206000209050919050565b60008154613efb81613b02565b613f058186613ece565b94506001821660008114613f205760018114613f3557613f68565b60ff1983168652811515820286019350613f68565b613f3e85613ed9565b60005b83811015613f6057815481890152600182019150602081019050613f41565b838801955050505b50505092915050565b6000613f7d8284613eee565b915081905092915050565b7f4f72646572206d7573742062652070656e64696e670000000000000000000000600082015250565b6000613fbe6015836133f3565b9150613fc982613f88565b602082019050919050565b60006020820190508181036000830152613fed81613fb1565b9050919050565b7f4f6e6c792074686520736572766963652070726f76696465722063616e20737460008201527f61727420746865206f7264657200000000000000000000000000000000000000602082015250565b6000614050602d836133f3565b915061405b82613ff4565b604082019050919050565b6000602082019050818103600083015261407f81614043565b9050919050565b61408f82613003565b67ffffffffffffffff8111156140a8576140a76134ec565b5b6140b28254613b02565b6140bd828285613d08565b600060209050601f8311600181146140f057600084156140de578287015190505b6140e88582613d79565b865550614150565b601f1984166140fe86613be9565b60005b8281101561412657848901518255600182019150602085019450602081019050614101565b86831015614143578489015161413f601f891682613d5b565b8355505b6001600288020188555050505b505050505050565b7f4f72646572206d75737420626520696e2070726f677265737300000000000000600082015250565b600061418e6019836133f3565b915061419982614158565b602082019050919050565b600060208201905081810360008301526141bd81614181565b9050919050565b7f4f6e6c792074686520637573746f6d65722063616e20636f6e6669726d20746860008201527f65206f7264657200000000000000000000000000000000000000000000000000602082015250565b60006142206027836133f3565b915061422b826141c4565b604082019050919050565b6000602082019050818103600083015261424f81614213565b9050919050565b600060408201905061426b6000830185613258565b6142786020830184613258565b9392505050565b7f53657276696365206e616d652072657175697265640000000000000000000000600082015250565b60006142b56015836133f3565b91506142c08261427f565b602082019050919050565b600060208201905081810360008301526142e4816142a8565b9050919050565b7f536572766963652063617465676f727920726571756972656400000000000000600082015250565b60006143216019836133f3565b915061432c826142eb565b602082019050919050565b6000602082019050818103600083015261435081614314565b9050919050565b7f4164647265737320726571756972656400000000000000000000000000000000600082015250565b600061438d6010836133f3565b915061439882614357565b602082019050919050565b600060208201905081810360008301526143bc81614380565b9050919050565b7f50686f6e65206e756d6265722072657175697265640000000000000000000000600082015250565b60006143f96015836133f3565b9150614404826143c3565b602082019050919050565b60006020820190508181036000830152614428816143ec565b9050919050565b7f456d61696c207265717569726564000000000000000000000000000000000000600082015250565b6000614465600e836133f3565b91506144708261442f565b602082019050919050565b6000602082019050818103600083015261449481614458565b9050919050565b7f436f7374206d7573742062652067726561746572207468616e207a65726f0000600082015250565b60006144d1601e836133f3565b91506144dc8261449b565b602082019050919050565b60006020820190508181036000830152614500816144c4565b9050919050565b7f43757272656e6379207265717569726564000000000000000000000000000000600082015250565b600061453d6011836133f3565b915061454882614507565b602082019050919050565b6000602082019050818103600083015261456c81614530565b9050919050565b7f53657276696365206e6f7420666f756e64000000000000000000000000000000600082015250565b60006145a96011836133f3565b91506145b482614573565b602082019050919050565b600060208201905081810360008301526145d88161459c565b905091905056fea2646970667358221220a0466672bb328949bc5fdaf60f7c40ed1ab4e2df984ee0637fbe2b24e9cfbabe64736f6c63430008130033",
  "immutableReferences": {},
  "source": "// SPDX-License-Identifier: MIT\r\npragma solidity >=0.8.19;\r\n\r\ncontract ServiceContract {\r\n    struct Service {\r\n        string logo;\r\n        string name;\r\n        string category;\r\n        string addressDetail;\r\n        string phoneNumber;\r\n        string email;\r\n        uint256 cost;\r\n        string currency;\r\n        address owner;\r\n    }\r\n\r\n    struct Order {\r\n        address user;\r\n        uint256 serviceId;\r\n        bool isCompleted;\r\n        string status;\r\n    }\r\n\r\n    mapping(address => Service[]) public services;\r\n    Order[] public orders;\r\n    address[] public serviceProviders;\r\n    uint256 public orderCount;\r\n\r\n    event ServiceAdded(address indexed user, string name);\r\n    event ServiceDeleted(address indexed user, string name);\r\n    event OrderPlaced(address indexed user, uint256 serviceId, uint256 orderId);\r\n    event OrderCompleted(uint256 orderId);\r\n    event OrderStarted(uint256 orderId);\r\n\r\n    function addService(\r\n        string memory _logo,\r\n        string memory _name,\r\n        string memory _category,\r\n        string memory _addressDetail,\r\n        string memory _phoneNumber,\r\n        string memory _email,\r\n        uint256 _cost,\r\n        string memory _currency\r\n    ) public {\r\n        require(bytes(_name).length > 0, \"Service name required\");\r\n        require(bytes(_category).length > 0, \"Service category required\");\r\n        require(bytes(_addressDetail).length > 0, \"Address required\");\r\n        require(bytes(_phoneNumber).length > 0, \"Phone number required\");\r\n        require(bytes(_email).length > 0, \"Email required\");\r\n        require(_cost > 0, \"Cost must be greater than zero\");\r\n        require(bytes(_currency).length > 0, \"Currency required\");\r\n\r\n        Service memory newService = Service({\r\n            logo: _logo,\r\n            name: _name,\r\n            category: _category,\r\n            addressDetail: _addressDetail,\r\n            phoneNumber: _phoneNumber,\r\n            email: _email,\r\n            cost: _cost,\r\n            currency: _currency,\r\n            owner: msg.sender\r\n        });\r\n\r\n        services[msg.sender].push(newService);\r\n        if (services[msg.sender].length == 1) {\r\n            serviceProviders.push(msg.sender);\r\n        }\r\n        emit ServiceAdded(msg.sender, _name);\r\n    }\r\n\r\n    function getServices(address _user) public view returns (Service[] memory) {\r\n        return services[_user];\r\n    }\r\n\r\n    function deleteService(uint256 index) public {\r\n        require(index < services[msg.sender].length, \"Service index out of bounds\");\r\n        Service[] storage userServices = services[msg.sender];\r\n\r\n        string memory serviceName = userServices[index].name;\r\n\r\n        for (uint256 i = index; i < userServices.length - 1; i++) {\r\n            userServices[i] = userServices[i + 1];\r\n        }\r\n        userServices.pop();\r\n        emit ServiceDeleted(msg.sender, serviceName);\r\n    }\r\n\r\n    function getAllServices() public view returns (Service[] memory) {\r\n        uint totalServices;\r\n        for (uint i = 0; i < serviceProviders.length; i++) {\r\n            totalServices += services[serviceProviders[i]].length;\r\n        }\r\n\r\n        Service[] memory allServices = new Service[](totalServices);\r\n        uint counter = 0;\r\n        for (uint i = 0; i < serviceProviders.length; i++) {\r\n            for (uint j = 0; j < services[serviceProviders[i]].length; j++) {\r\n                allServices[counter] = services[serviceProviders[i]][j];\r\n                counter++;\r\n            }\r\n        }\r\n\r\n        return allServices;\r\n    }\r\n\r\n    function placeOrder(uint256 serviceId) public payable {\r\n        Service memory service = getServiceById(serviceId);\r\n\r\n        orders.push(Order({\r\n            user: msg.sender,\r\n            serviceId: serviceId,\r\n            isCompleted: false,\r\n            status: \"Pending\"\r\n        }));\r\n\r\n        emit OrderPlaced(msg.sender, serviceId, orderCount);\r\n        orderCount++;\r\n    }\r\n\r\n    function startOrder(uint256 orderId) public {\r\n        Order storage order = orders[orderId];\r\n        require(keccak256(bytes(order.status)) == keccak256(bytes(\"Pending\")), \"Order must be pending\");\r\n        Service memory service = getServiceById(order.serviceId);\r\n        require(service.owner == msg.sender, \"Only the service provider can start the order\");\r\n        order.status = \"In Progress\";\r\n        emit OrderStarted(orderId);\r\n    }\r\n\r\n    function confirmOrder(uint256 orderId) public {\r\n        Order storage order = orders[orderId];\r\n        require(keccak256(bytes(order.status)) == keccak256(bytes(\"In Progress\")), \"Order must be in progress\");\r\n        require(order.user == msg.sender, \"Only the customer can confirm the order\");\r\n        order.status = \"Completed\";\r\n        Service memory service = getServiceById(order.serviceId);\r\n        payable(service.owner).transfer(service.cost);\r\n        emit OrderCompleted(orderId);\r\n    }\r\n\r\n    function getServiceById(uint256 serviceId) public view returns (Service memory) {\r\n        uint counter = 0;\r\n        for (uint i = 0; i < serviceProviders.length; i++) {\r\n            for (uint j = 0; j < services[serviceProviders[i]].length; j++) {\r\n                if (counter == serviceId) {\r\n                    return services[serviceProviders[i]][j];\r\n                }\r\n                counter++;\r\n            }\r\n        }\r\n        revert(\"Service not found\");\r\n    }\r\n\r\n    function getAllOrders() public view returns (Order[] memory) {\r\n        Order[] memory allOrders = new Order[](orderCount);\r\n        for (uint i = 0; i < orderCount; i++) {\r\n            allOrders[i] = orders[i];\r\n        }\r\n        return allOrders;\r\n    }\r\n\r\n    function getOrdersByStatus(bool isCompleted) public view returns (Order[] memory) {\r\n        uint count = 0;\r\n        for (uint i = 0; i < orderCount; i++) {\r\n            if (orders[i].isCompleted == isCompleted) {\r\n                count++;\r\n            }\r\n        }\r\n\r\n        Order[] memory filteredOrders = new Order[](count);\r\n        uint index = 0;\r\n        for (uint i = 0; i < orderCount; i++) {\r\n            if (orders[i].isCompleted == isCompleted) {\r\n                filteredOrders[index] = orders[i];\r\n                index++;\r\n            }\r\n        }\r\n        return filteredOrders;\r\n    }\r\n}\r\n",
  "sourcePath": "C:\\Users\\Kevin Sorensen\\GitHub\\Aclean\\aclean-dapps\\blockchain\\contracts\\ServiceContract.sol",
  "compiler": {
    "name": "solc",
    "version": "0.8.19+commit.7dd6d404.Emscripten.clang"
  },
  "schemaVersion": "3.4.16",
  "updatedAt": "2024-05-19T15:32:13.801Z",
  "networkType": "ethereum",
  "devdoc": {
    "kind": "dev",
    "methods": {},
    "version": 1
  },
  "userdoc": {
    "kind": "user",
    "methods": {},
    "version": 1
  }
}