{
  "contractName": "ServiceContract",
  "abi": [
    {
      "anonymous": false,
      "inputs": [
        {
          "indexed": false,
          "internalType": "uint256",
          "name": "orderId",
          "type": "uint256"
        }
      ],
      "name": "OrderCompleted",
      "type": "event"
    },
    {
      "anonymous": false,
      "inputs": [
        {
          "indexed": true,
          "internalType": "address",
          "name": "user",
          "type": "address"
        },
        {
          "indexed": false,
          "internalType": "uint256",
          "name": "serviceId",
          "type": "uint256"
        },
        {
          "indexed": false,
          "internalType": "uint256",
          "name": "orderId",
          "type": "uint256"
        }
      ],
      "name": "OrderPlaced",
      "type": "event"
    },
    {
      "anonymous": false,
      "inputs": [
        {
          "indexed": true,
          "internalType": "address",
          "name": "user",
          "type": "address"
        },
        {
          "indexed": false,
          "internalType": "string",
          "name": "name",
          "type": "string"
        }
      ],
      "name": "ServiceAdded",
      "type": "event"
    },
    {
      "anonymous": false,
      "inputs": [
        {
          "indexed": true,
          "internalType": "address",
          "name": "user",
          "type": "address"
        },
        {
          "indexed": false,
          "internalType": "string",
          "name": "name",
          "type": "string"
        }
      ],
      "name": "ServiceDeleted",
      "type": "event"
    },
    {
      "inputs": [],
      "name": "orderCount",
      "outputs": [
        {
          "internalType": "uint256",
          "name": "",
          "type": "uint256"
        }
      ],
      "stateMutability": "view",
      "type": "function",
      "constant": true
    },
    {
      "inputs": [
        {
          "internalType": "uint256",
          "name": "",
          "type": "uint256"
        }
      ],
      "name": "orders",
      "outputs": [
        {
          "internalType": "address",
          "name": "user",
          "type": "address"
        },
        {
          "internalType": "uint256",
          "name": "serviceId",
          "type": "uint256"
        },
        {
          "internalType": "bool",
          "name": "isCompleted",
          "type": "bool"
        },
        {
          "internalType": "string",
          "name": "serviceName",
          "type": "string"
        },
        {
          "internalType": "uint256",
          "name": "serviceCost",
          "type": "uint256"
        },
        {
          "internalType": "string",
          "name": "serviceCurrency",
          "type": "string"
        }
      ],
      "stateMutability": "view",
      "type": "function",
      "constant": true
    },
    {
      "inputs": [
        {
          "internalType": "uint256",
          "name": "",
          "type": "uint256"
        }
      ],
      "name": "serviceProviders",
      "outputs": [
        {
          "internalType": "address",
          "name": "",
          "type": "address"
        }
      ],
      "stateMutability": "view",
      "type": "function",
      "constant": true
    },
    {
      "inputs": [
        {
          "internalType": "address",
          "name": "",
          "type": "address"
        },
        {
          "internalType": "uint256",
          "name": "",
          "type": "uint256"
        }
      ],
      "name": "services",
      "outputs": [
        {
          "internalType": "string",
          "name": "logo",
          "type": "string"
        },
        {
          "internalType": "string",
          "name": "name",
          "type": "string"
        },
        {
          "internalType": "string",
          "name": "category",
          "type": "string"
        },
        {
          "internalType": "string",
          "name": "addressDetail",
          "type": "string"
        },
        {
          "internalType": "string",
          "name": "phoneNumber",
          "type": "string"
        },
        {
          "internalType": "string",
          "name": "email",
          "type": "string"
        },
        {
          "internalType": "uint256",
          "name": "cost",
          "type": "uint256"
        },
        {
          "internalType": "string",
          "name": "currency",
          "type": "string"
        },
        {
          "internalType": "address",
          "name": "owner",
          "type": "address"
        }
      ],
      "stateMutability": "view",
      "type": "function",
      "constant": true
    },
    {
      "inputs": [
        {
          "internalType": "string",
          "name": "_logo",
          "type": "string"
        },
        {
          "internalType": "string",
          "name": "_name",
          "type": "string"
        },
        {
          "internalType": "string",
          "name": "_category",
          "type": "string"
        },
        {
          "internalType": "string",
          "name": "_addressDetail",
          "type": "string"
        },
        {
          "internalType": "string",
          "name": "_phoneNumber",
          "type": "string"
        },
        {
          "internalType": "string",
          "name": "_email",
          "type": "string"
        },
        {
          "internalType": "uint256",
          "name": "_cost",
          "type": "uint256"
        },
        {
          "internalType": "string",
          "name": "_currency",
          "type": "string"
        }
      ],
      "name": "addService",
      "outputs": [],
      "stateMutability": "nonpayable",
      "type": "function"
    },
    {
      "inputs": [
        {
          "internalType": "address",
          "name": "_user",
          "type": "address"
        }
      ],
      "name": "getServices",
      "outputs": [
        {
          "components": [
            {
              "internalType": "string",
              "name": "logo",
              "type": "string"
            },
            {
              "internalType": "string",
              "name": "name",
              "type": "string"
            },
            {
              "internalType": "string",
              "name": "category",
              "type": "string"
            },
            {
              "internalType": "string",
              "name": "addressDetail",
              "type": "string"
            },
            {
              "internalType": "string",
              "name": "phoneNumber",
              "type": "string"
            },
            {
              "internalType": "string",
              "name": "email",
              "type": "string"
            },
            {
              "internalType": "uint256",
              "name": "cost",
              "type": "uint256"
            },
            {
              "internalType": "string",
              "name": "currency",
              "type": "string"
            },
            {
              "internalType": "address",
              "name": "owner",
              "type": "address"
            }
          ],
          "internalType": "struct ServiceContract.Service[]",
          "name": "",
          "type": "tuple[]"
        }
      ],
      "stateMutability": "view",
      "type": "function",
      "constant": true
    },
    {
      "inputs": [
        {
          "internalType": "uint256",
          "name": "index",
          "type": "uint256"
        }
      ],
      "name": "deleteService",
      "outputs": [],
      "stateMutability": "nonpayable",
      "type": "function"
    },
    {
      "inputs": [],
      "name": "getAllServices",
      "outputs": [
        {
          "components": [
            {
              "internalType": "string",
              "name": "logo",
              "type": "string"
            },
            {
              "internalType": "string",
              "name": "name",
              "type": "string"
            },
            {
              "internalType": "string",
              "name": "category",
              "type": "string"
            },
            {
              "internalType": "string",
              "name": "addressDetail",
              "type": "string"
            },
            {
              "internalType": "string",
              "name": "phoneNumber",
              "type": "string"
            },
            {
              "internalType": "string",
              "name": "email",
              "type": "string"
            },
            {
              "internalType": "uint256",
              "name": "cost",
              "type": "uint256"
            },
            {
              "internalType": "string",
              "name": "currency",
              "type": "string"
            },
            {
              "internalType": "address",
              "name": "owner",
              "type": "address"
            }
          ],
          "internalType": "struct ServiceContract.Service[]",
          "name": "",
          "type": "tuple[]"
        }
      ],
      "stateMutability": "view",
      "type": "function",
      "constant": true
    },
    {
      "inputs": [
        {
          "internalType": "uint256",
          "name": "serviceId",
          "type": "uint256"
        }
      ],
      "name": "placeOrder",
      "outputs": [],
      "stateMutability": "payable",
      "type": "function",
      "payable": true
    },
    {
      "inputs": [
        {
          "internalType": "uint256",
          "name": "orderId",
          "type": "uint256"
        }
      ],
      "name": "confirmOrder",
      "outputs": [],
      "stateMutability": "nonpayable",
      "type": "function"
    },
    {
      "inputs": [
        {
          "internalType": "uint256",
          "name": "serviceId",
          "type": "uint256"
        }
      ],
      "name": "getServiceById",
      "outputs": [
        {
          "components": [
            {
              "internalType": "string",
              "name": "logo",
              "type": "string"
            },
            {
              "internalType": "string",
              "name": "name",
              "type": "string"
            },
            {
              "internalType": "string",
              "name": "category",
              "type": "string"
            },
            {
              "internalType": "string",
              "name": "addressDetail",
              "type": "string"
            },
            {
              "internalType": "string",
              "name": "phoneNumber",
              "type": "string"
            },
            {
              "internalType": "string",
              "name": "email",
              "type": "string"
            },
            {
              "internalType": "uint256",
              "name": "cost",
              "type": "uint256"
            },
            {
              "internalType": "string",
              "name": "currency",
              "type": "string"
            },
            {
              "internalType": "address",
              "name": "owner",
              "type": "address"
            }
          ],
          "internalType": "struct ServiceContract.Service",
          "name": "",
          "type": "tuple"
        }
      ],
      "stateMutability": "view",
      "type": "function",
      "constant": true
    },
    {
      "inputs": [],
      "name": "getAllOrders",
      "outputs": [
        {
          "components": [
            {
              "internalType": "address",
              "name": "user",
              "type": "address"
            },
            {
              "internalType": "uint256",
              "name": "serviceId",
              "type": "uint256"
            },
            {
              "internalType": "bool",
              "name": "isCompleted",
              "type": "bool"
            },
            {
              "internalType": "string",
              "name": "serviceName",
              "type": "string"
            },
            {
              "internalType": "uint256",
              "name": "serviceCost",
              "type": "uint256"
            },
            {
              "internalType": "string",
              "name": "serviceCurrency",
              "type": "string"
            }
          ],
          "internalType": "struct ServiceContract.Order[]",
          "name": "",
          "type": "tuple[]"
        }
      ],
      "stateMutability": "view",
      "type": "function",
      "constant": true
    },
    {
      "inputs": [
        {
          "internalType": "bool",
          "name": "isCompleted",
          "type": "bool"
        }
      ],
      "name": "getOrdersByStatus",
      "outputs": [
        {
          "components": [
            {
              "internalType": "address",
              "name": "user",
              "type": "address"
            },
            {
              "internalType": "uint256",
              "name": "serviceId",
              "type": "uint256"
            },
            {
              "internalType": "bool",
              "name": "isCompleted",
              "type": "bool"
            },
            {
              "internalType": "string",
              "name": "serviceName",
              "type": "string"
            },
            {
              "internalType": "uint256",
              "name": "serviceCost",
              "type": "uint256"
            },
            {
              "internalType": "string",
              "name": "serviceCurrency",
              "type": "string"
            }
          ],
          "internalType": "struct ServiceContract.Order[]",
          "name": "",
          "type": "tuple[]"
        }
      ],
      "stateMutability": "view",
      "type": "function",
      "constant": true
    }
  ],
  "bytecode": "0x608060405234801561001057600080fd5b50614359806100206000396000f3fe6080604052600436106100c25760003560e01c8063a85c38ef1161007f578063bbd882f011610059578063bbd882f014610272578063c134f17e1461029b578063ceb27daa146102e0578063d7e611631461031d576100c2565b8063a85c38ef146101d7578063b2532a4514610219578063ba2255f414610256576100c2565b80630a02dcc7146100c757806321fe0f30146101045780632453ffa81461012f57806374e29ee61461015a5780637bea0d1c146101835780638ac7d79c146101ae575b600080fd5b3480156100d357600080fd5b506100ee60048036038101906100e99190612e66565b61035a565b6040516100fb9190612ed4565b60405180910390f35b34801561011057600080fd5b50610119610399565b604051610126919061314e565b60405180910390f35b34801561013b57600080fd5b50610144610aa7565b604051610151919061317f565b60405180910390f35b34801561016657600080fd5b50610181600480360381019061017c9190612e66565b610aad565b005b34801561018f57600080fd5b50610198610ec6565b6040516101a59190613307565b60405180910390f35b3480156101ba57600080fd5b506101d560048036038101906101d09190612e66565b61113e565b005b3480156101e357600080fd5b506101fe60048036038101906101f99190612e66565b6112b0565b60405161021096959493929190613382565b60405180910390f35b34801561022557600080fd5b50610240600480360381019061023b919061341d565b611439565b60405161024d919061314e565b60405180910390f35b610270600480360381019061026b9190612e66565b611935565b005b34801561027e57600080fd5b506102996004803603810190610294919061357f565b611ad6565b005b3480156102a757600080fd5b506102c260048036038101906102bd91906136f9565b611f67565b6040516102d799989796959493929190613739565b60405180910390f35b3480156102ec57600080fd5b5061030760048036038101906103029190613823565b6123aa565b6040516103149190613307565b60405180910390f35b34801561032957600080fd5b50610344600480360381019061033f9190612e66565b6126df565b604051610351919061393f565b60405180910390f35b6002818154811061036a57600080fd5b906000526020600020016000915054906101000a900473ffffffffffffffffffffffffffffffffffffffff1681565b6060600080600090505b60028054905081101561045057600080600283815481106103c7576103c6613961565b5b9060005260206000200160009054906101000a900473ffffffffffffffffffffffffffffffffffffffff1673ffffffffffffffffffffffffffffffffffffffff1673ffffffffffffffffffffffffffffffffffffffff168152602001908152602001600020805490508261043b91906139bf565b91508080610448906139f3565b9150506103a3565b5060008167ffffffffffffffff81111561046d5761046c613454565b5b6040519080825280602002602001820160405280156104a657816020015b610493612d0f565b81526020019060019003908161048b5790505b5090506000805b600280549050811015610a9d5760005b600080600284815481106104d4576104d3613961565b5b9060005260206000200160009054906101000a900473ffffffffffffffffffffffffffffffffffffffff1673ffffffffffffffffffffffffffffffffffffffff1673ffffffffffffffffffffffffffffffffffffffff16815260200190815260200160002080549050811015610a89576000806002848154811061055b5761055a613961565b5b9060005260206000200160009054906101000a900473ffffffffffffffffffffffffffffffffffffffff1673ffffffffffffffffffffffffffffffffffffffff1673ffffffffffffffffffffffffffffffffffffffff16815260200190815260200160002081815481106105d2576105d1613961565b5b9060005260206000209060090201604051806101200160405290816000820180546105fc90613a6a565b80601f016020809104026020016040519081016040528092919081815260200182805461062890613a6a565b80156106755780601f1061064a57610100808354040283529160200191610675565b820191906000526020600020905b81548152906001019060200180831161065857829003601f168201915b5050505050815260200160018201805461068e90613a6a565b80601f01602080910402602001604051908101604052809291908181526020018280546106ba90613a6a565b80156107075780601f106106dc57610100808354040283529160200191610707565b820191906000526020600020905b8154815290600101906020018083116106ea57829003601f168201915b5050505050815260200160028201805461072090613a6a565b80601f016020809104026020016040519081016040528092919081815260200182805461074c90613a6a565b80156107995780601f1061076e57610100808354040283529160200191610799565b820191906000526020600020905b81548152906001019060200180831161077c57829003601f168201915b505050505081526020016003820180546107b290613a6a565b80601f01602080910402602001604051908101604052809291908181526020018280546107de90613a6a565b801561082b5780601f106108005761010080835404028352916020019161082b565b820191906000526020600020905b81548152906001019060200180831161080e57829003601f168201915b5050505050815260200160048201805461084490613a6a565b80601f016020809104026020016040519081016040528092919081815260200182805461087090613a6a565b80156108bd5780601f10610892576101008083540402835291602001916108bd565b820191906000526020600020905b8154815290600101906020018083116108a057829003601f168201915b505050505081526020016005820180546108d690613a6a565b80601f016020809104026020016040519081016040528092919081815260200182805461090290613a6a565b801561094f5780601f106109245761010080835404028352916020019161094f565b820191906000526020600020905b81548152906001019060200180831161093257829003601f168201915b505050505081526020016006820154815260200160078201805461097290613a6a565b80601f016020809104026020016040519081016040528092919081815260200182805461099e90613a6a565b80156109eb5780601f106109c0576101008083540402835291602001916109eb565b820191906000526020600020905b8154815290600101906020018083116109ce57829003601f168201915b505050505081526020016008820160009054906101000a900473ffffffffffffffffffffffffffffffffffffffff1673ffffffffffffffffffffffffffffffffffffffff1673ffffffffffffffffffffffffffffffffffffffff1681525050848481518110610a5d57610a5c613961565b5b60200260200101819052508280610a73906139f3565b9350508080610a81906139f3565b9150506104bd565b508080610a95906139f3565b9150506104ad565b5081935050505090565b60035481565b6000803373ffffffffffffffffffffffffffffffffffffffff1673ffffffffffffffffffffffffffffffffffffffff168152602001908152602001600020805490508110610b30576040517f08c379a0000000000000000000000000000000000000000000000000000000008152600401610b2790613ae7565b60405180910390fd5b60008060003373ffffffffffffffffffffffffffffffffffffffff1673ffffffffffffffffffffffffffffffffffffffff16815260200190815260200160002090506000818381548110610b8757610b86613961565b5b90600052602060002090600902016001018054610ba390613a6a565b80601f0160208091040260200160405190810160405280929190818152602001828054610bcf90613a6a565b8015610c1c5780601f10610bf157610100808354040283529160200191610c1c565b820191906000526020600020905b815481529060010190602001808311610bff57829003601f168201915b5050505050905060008390505b60018380549050610c3a9190613b07565b811015610da95782600182610c4f91906139bf565b81548110610c6057610c5f613961565b5b9060005260206000209060090201838281548110610c8157610c80613961565b5b906000526020600020906009020160008201816000019081610ca39190613cfd565b5060018201816001019081610cb89190613cfd565b5060028201816002019081610ccd9190613cfd565b5060038201816003019081610ce29190613cfd565b5060048201816004019081610cf79190613cfd565b5060058201816005019081610d0c9190613cfd565b506006820154816006015560078201816007019081610d2b9190613cfd565b506008820160009054906101000a900473ffffffffffffffffffffffffffffffffffffffff168160080160006101000a81548173ffffffffffffffffffffffffffffffffffffffff021916908373ffffffffffffffffffffffffffffffffffffffff1602179055509050508080610da1906139f3565b915050610c29565b5081805480610dbb57610dba613de5565b5b600190038181906000526020600020906009020160008082016000610de09190612d71565b600182016000610df09190612d71565b600282016000610e009190612d71565b600382016000610e109190612d71565b600482016000610e209190612d71565b600582016000610e309190612d71565b6006820160009055600782016000610e489190612d71565b6008820160006101000a81549073ffffffffffffffffffffffffffffffffffffffff0219169055505090553373ffffffffffffffffffffffffffffffffffffffff167f970480f79372727bc0f144df151fd4335131d28955ae2cbabd6c79326917a6d682604051610eb99190613e14565b60405180910390a2505050565b6060600060035467ffffffffffffffff811115610ee657610ee5613454565b5b604051908082528060200260200182016040528015610f1f57816020015b610f0c612db1565b815260200190600190039081610f045790505b50905060005b6003548110156111365760018181548110610f4357610f42613961565b5b90600052602060002090600602016040518060c00160405290816000820160009054906101000a900473ffffffffffffffffffffffffffffffffffffffff1673ffffffffffffffffffffffffffffffffffffffff1673ffffffffffffffffffffffffffffffffffffffff168152602001600182015481526020016002820160009054906101000a900460ff16151515158152602001600382018054610fe790613a6a565b80601f016020809104026020016040519081016040528092919081815260200182805461101390613a6a565b80156110605780601f1061103557610100808354040283529160200191611060565b820191906000526020600020905b81548152906001019060200180831161104357829003601f168201915b505050505081526020016004820154815260200160058201805461108390613a6a565b80601f01602080910402602001604051908101604052809291908181526020018280546110af90613a6a565b80156110fc5780601f106110d1576101008083540402835291602001916110fc565b820191906000526020600020905b8154815290600101906020018083116110df57829003601f168201915b50505050508152505082828151811061111857611117613961565b5b6020026020010181905250808061112e906139f3565b915050610f25565b508091505090565b60006001828154811061115457611153613961565b5b906000526020600020906006020190503373ffffffffffffffffffffffffffffffffffffffff168160000160009054906101000a900473ffffffffffffffffffffffffffffffffffffffff1673ffffffffffffffffffffffffffffffffffffffff16146111f6576040517f08c379a00000000000000000000000000000000000000000000000000000000081526004016111ed90613ea8565b60405180910390fd5b60018160020160006101000a81548160ff021916908315150217905550600061122282600101546126df565b905080610100015173ffffffffffffffffffffffffffffffffffffffff166108fc8260c001519081150290604051600060405180830381858888f19350505050158015611273573d6000803e3d6000fd5b507f02a7d4d9472af7118644884b9a0ee443540c0027e938dd0aa35be8ecbe946c0a836040516112a3919061317f565b60405180910390a1505050565b600181815481106112c057600080fd5b90600052602060002090600602016000915090508060000160009054906101000a900473ffffffffffffffffffffffffffffffffffffffff16908060010154908060020160009054906101000a900460ff169080600301805461132290613a6a565b80601f016020809104026020016040519081016040528092919081815260200182805461134e90613a6a565b801561139b5780601f106113705761010080835404028352916020019161139b565b820191906000526020600020905b81548152906001019060200180831161137e57829003601f168201915b5050505050908060040154908060050180546113b690613a6a565b80601f01602080910402602001604051908101604052809291908181526020018280546113e290613a6a565b801561142f5780601f106114045761010080835404028352916020019161142f565b820191906000526020600020905b81548152906001019060200180831161141257829003601f168201915b5050505050905086565b60606000808373ffffffffffffffffffffffffffffffffffffffff1673ffffffffffffffffffffffffffffffffffffffff168152602001908152602001600020805480602002602001604051908101604052809291908181526020016000905b8282101561192a5783829060005260206000209060090201604051806101200160405290816000820180546114cd90613a6a565b80601f01602080910402602001604051908101604052809291908181526020018280546114f990613a6a565b80156115465780601f1061151b57610100808354040283529160200191611546565b820191906000526020600020905b81548152906001019060200180831161152957829003601f168201915b5050505050815260200160018201805461155f90613a6a565b80601f016020809104026020016040519081016040528092919081815260200182805461158b90613a6a565b80156115d85780601f106115ad576101008083540402835291602001916115d8565b820191906000526020600020905b8154815290600101906020018083116115bb57829003601f168201915b505050505081526020016002820180546115f190613a6a565b80601f016020809104026020016040519081016040528092919081815260200182805461161d90613a6a565b801561166a5780601f1061163f5761010080835404028352916020019161166a565b820191906000526020600020905b81548152906001019060200180831161164d57829003601f168201915b5050505050815260200160038201805461168390613a6a565b80601f01602080910402602001604051908101604052809291908181526020018280546116af90613a6a565b80156116fc5780601f106116d1576101008083540402835291602001916116fc565b820191906000526020600020905b8154815290600101906020018083116116df57829003601f168201915b5050505050815260200160048201805461171590613a6a565b80601f016020809104026020016040519081016040528092919081815260200182805461174190613a6a565b801561178e5780601f106117635761010080835404028352916020019161178e565b820191906000526020600020905b81548152906001019060200180831161177157829003601f168201915b505050505081526020016005820180546117a790613a6a565b80601f01602080910402602001604051908101604052809291908181526020018280546117d390613a6a565b80156118205780601f106117f557610100808354040283529160200191611820565b820191906000526020600020905b81548152906001019060200180831161180357829003601f168201915b505050505081526020016006820154815260200160078201805461184390613a6a565b80601f016020809104026020016040519081016040528092919081815260200182805461186f90613a6a565b80156118bc5780601f10611891576101008083540402835291602001916118bc565b820191906000526020600020905b81548152906001019060200180831161189f57829003601f168201915b505050505081526020016008820160009054906101000a900473ffffffffffffffffffffffffffffffffffffffff1673ffffffffffffffffffffffffffffffffffffffff1673ffffffffffffffffffffffffffffffffffffffff168152505081526020019060010190611499565b505050509050919050565b6000611940826126df565b905060016040518060c001604052803373ffffffffffffffffffffffffffffffffffffffff168152602001848152602001600015158152602001836020015181526020018360c0015181526020018360e00151815250908060018154018082558091505060019003906000526020600020906006020160009091909190915060008201518160000160006101000a81548173ffffffffffffffffffffffffffffffffffffffff021916908373ffffffffffffffffffffffffffffffffffffffff1602179055506020820151816001015560408201518160020160006101000a81548160ff0219169083151502179055506060820151816003019081611a459190613ec8565b506080820151816004015560a0820151816005019081611a659190613ec8565b5050503373ffffffffffffffffffffffffffffffffffffffff167f03f23a9b67af957c8605376a4f515b53f102d4ad7f4da099bd1aff8e3ee13fec83600354604051611ab2929190613f9a565b60405180910390a260036000815480929190611acd906139f3565b91905055505050565b6000875111611b1a576040517f08c379a0000000000000000000000000000000000000000000000000000000008152600401611b119061400f565b60405180910390fd5b6000865111611b5e576040517f08c379a0000000000000000000000000000000000000000000000000000000008152600401611b559061407b565b60405180910390fd5b6000855111611ba2576040517f08c379a0000000000000000000000000000000000000000000000000000000008152600401611b99906140e7565b60405180910390fd5b6000845111611be6576040517f08c379a0000000000000000000000000000000000000000000000000000000008152600401611bdd90614153565b60405180910390fd5b6000835111611c2a576040517f08c379a0000000000000000000000000000000000000000000000000000000008152600401611c21906141bf565b60405180910390fd5b60008211611c6d576040517f08c379a0000000000000000000000000000000000000000000000000000000008152600401611c649061422b565b60405180910390fd5b6000815111611cb1576040517f08c379a0000000000000000000000000000000000000000000000000000000008152600401611ca890614297565b60405180910390fd5b60006040518061012001604052808a81526020018981526020018881526020018781526020018681526020018581526020018481526020018381526020013373ffffffffffffffffffffffffffffffffffffffff1681525090506000803373ffffffffffffffffffffffffffffffffffffffff1673ffffffffffffffffffffffffffffffffffffffff1681526020019081526020016000208190806001815401808255809150506001900390600052602060002090600902016000909190919091506000820151816000019081611d889190613ec8565b506020820151816001019081611d9e9190613ec8565b506040820151816002019081611db49190613ec8565b506060820151816003019081611dca9190613ec8565b506080820151816004019081611de09190613ec8565b5060a0820151816005019081611df69190613ec8565b5060c0820151816006015560e0820151816007019081611e169190613ec8565b506101008201518160080160006101000a81548173ffffffffffffffffffffffffffffffffffffffff021916908373ffffffffffffffffffffffffffffffffffffffff160217905550505060016000803373ffffffffffffffffffffffffffffffffffffffff1673ffffffffffffffffffffffffffffffffffffffff1681526020019081526020016000208054905003611f0e576002339080600181540180825580915050600190039060005260206000200160009091909190916101000a81548173ffffffffffffffffffffffffffffffffffffffff021916908373ffffffffffffffffffffffffffffffffffffffff1602179055505b3373ffffffffffffffffffffffffffffffffffffffff167fb33be4898b3eae72be50da48dea4d99c1e830cd6f31f9d534998c4fcaa91b62e89604051611f549190613e14565b60405180910390a2505050505050505050565b60006020528160005260406000208181548110611f8357600080fd5b906000526020600020906009020160009150915050806000018054611fa790613a6a565b80601f0160208091040260200160405190810160405280929190818152602001828054611fd390613a6a565b80156120205780601f10611ff557610100808354040283529160200191612020565b820191906000526020600020905b81548152906001019060200180831161200357829003601f168201915b50505050509080600101805461203590613a6a565b80601f016020809104026020016040519081016040528092919081815260200182805461206190613a6a565b80156120ae5780601f10612083576101008083540402835291602001916120ae565b820191906000526020600020905b81548152906001019060200180831161209157829003601f168201915b5050505050908060020180546120c390613a6a565b80601f01602080910402602001604051908101604052809291908181526020018280546120ef90613a6a565b801561213c5780601f106121115761010080835404028352916020019161213c565b820191906000526020600020905b81548152906001019060200180831161211f57829003601f168201915b50505050509080600301805461215190613a6a565b80601f016020809104026020016040519081016040528092919081815260200182805461217d90613a6a565b80156121ca5780601f1061219f576101008083540402835291602001916121ca565b820191906000526020600020905b8154815290600101906020018083116121ad57829003601f168201915b5050505050908060040180546121df90613a6a565b80601f016020809104026020016040519081016040528092919081815260200182805461220b90613a6a565b80156122585780601f1061222d57610100808354040283529160200191612258565b820191906000526020600020905b81548152906001019060200180831161223b57829003601f168201915b50505050509080600501805461226d90613a6a565b80601f016020809104026020016040519081016040528092919081815260200182805461229990613a6a565b80156122e65780601f106122bb576101008083540402835291602001916122e6565b820191906000526020600020905b8154815290600101906020018083116122c957829003601f168201915b50505050509080600601549080600701805461230190613a6a565b80601f016020809104026020016040519081016040528092919081815260200182805461232d90613a6a565b801561237a5780601f1061234f5761010080835404028352916020019161237a565b820191906000526020600020905b81548152906001019060200180831161235d57829003601f168201915b5050505050908060080160009054906101000a900473ffffffffffffffffffffffffffffffffffffffff16905089565b60606000805b60035481101561241957831515600182815481106123d1576123d0613961565b5b906000526020600020906006020160020160009054906101000a900460ff16151503612406578180612402906139f3565b9250505b8080612411906139f3565b9150506123b0565b5060008167ffffffffffffffff81111561243657612435613454565b5b60405190808252806020026020018201604052801561246f57816020015b61245c612db1565b8152602001906001900390816124545790505b5090506000805b6003548110156126d3578515156001828154811061249757612496613961565b5b906000526020600020906006020160020160009054906101000a900460ff161515036126c057600181815481106124d1576124d0613961565b5b90600052602060002090600602016040518060c00160405290816000820160009054906101000a900473ffffffffffffffffffffffffffffffffffffffff1673ffffffffffffffffffffffffffffffffffffffff1673ffffffffffffffffffffffffffffffffffffffff168152602001600182015481526020016002820160009054906101000a900460ff1615151515815260200160038201805461257590613a6a565b80601f01602080910402602001604051908101604052809291908181526020018280546125a190613a6a565b80156125ee5780601f106125c3576101008083540402835291602001916125ee565b820191906000526020600020905b8154815290600101906020018083116125d157829003601f168201915b505050505081526020016004820154815260200160058201805461261190613a6a565b80601f016020809104026020016040519081016040528092919081815260200182805461263d90613a6a565b801561268a5780601f1061265f5761010080835404028352916020019161268a565b820191906000526020600020905b81548152906001019060200180831161266d57829003601f168201915b5050505050815250508383815181106126a6576126a5613961565b5b602002602001018190525081806126bc906139f3565b9250505b80806126cb906139f3565b915050612476565b50819350505050919050565b6126e7612d0f565b6000805b600280549050811015612cce5760005b6000806002848154811061271257612711613961565b5b9060005260206000200160009054906101000a900473ffffffffffffffffffffffffffffffffffffffff1673ffffffffffffffffffffffffffffffffffffffff1673ffffffffffffffffffffffffffffffffffffffff16815260200190815260200160002080549050811015612cba57848303612c9957600080600284815481106127a05761279f613961565b5b9060005260206000200160009054906101000a900473ffffffffffffffffffffffffffffffffffffffff1673ffffffffffffffffffffffffffffffffffffffff1673ffffffffffffffffffffffffffffffffffffffff168152602001908152602001600020818154811061281757612816613961565b5b90600052602060002090600902016040518061012001604052908160008201805461284190613a6a565b80601f016020809104026020016040519081016040528092919081815260200182805461286d90613a6a565b80156128ba5780601f1061288f576101008083540402835291602001916128ba565b820191906000526020600020905b81548152906001019060200180831161289d57829003601f168201915b505050505081526020016001820180546128d390613a6a565b80601f01602080910402602001604051908101604052809291908181526020018280546128ff90613a6a565b801561294c5780601f106129215761010080835404028352916020019161294c565b820191906000526020600020905b81548152906001019060200180831161292f57829003601f168201915b5050505050815260200160028201805461296590613a6a565b80601f016020809104026020016040519081016040528092919081815260200182805461299190613a6a565b80156129de5780601f106129b3576101008083540402835291602001916129de565b820191906000526020600020905b8154815290600101906020018083116129c157829003601f168201915b505050505081526020016003820180546129f790613a6a565b80601f0160208091040260200160405190810160405280929190818152602001828054612a2390613a6a565b8015612a705780601f10612a4557610100808354040283529160200191612a70565b820191906000526020600020905b815481529060010190602001808311612a5357829003601f168201915b50505050508152602001600482018054612a8990613a6a565b80601f0160208091040260200160405190810160405280929190818152602001828054612ab590613a6a565b8015612b025780601f10612ad757610100808354040283529160200191612b02565b820191906000526020600020905b815481529060010190602001808311612ae557829003601f168201915b50505050508152602001600582018054612b1b90613a6a565b80601f0160208091040260200160405190810160405280929190818152602001828054612b4790613a6a565b8015612b945780601f10612b6957610100808354040283529160200191612b94565b820191906000526020600020905b815481529060010190602001808311612b7757829003601f168201915b5050505050815260200160068201548152602001600782018054612bb790613a6a565b80601f0160208091040260200160405190810160405280929190818152602001828054612be390613a6a565b8015612c305780601f10612c0557610100808354040283529160200191612c30565b820191906000526020600020905b815481529060010190602001808311612c1357829003601f168201915b505050505081526020016008820160009054906101000a900473ffffffffffffffffffffffffffffffffffffffff1673ffffffffffffffffffffffffffffffffffffffff1673ffffffffffffffffffffffffffffffffffffffff16815250509350505050612d0a565b8280612ca4906139f3565b9350508080612cb2906139f3565b9150506126fb565b508080612cc6906139f3565b9150506126eb565b506040517f08c379a0000000000000000000000000000000000000000000000000000000008152600401612d0190614303565b60405180910390fd5b919050565b6040518061012001604052806060815260200160608152602001606081526020016060815260200160608152602001606081526020016000815260200160608152602001600073ffffffffffffffffffffffffffffffffffffffff1681525090565b508054612d7d90613a6a565b6000825580601f10612d8f5750612dae565b601f016020900490600052602060002090810190612dad9190612dff565b5b50565b6040518060c00160405280600073ffffffffffffffffffffffffffffffffffffffff168152602001600081526020016000151581526020016060815260200160008152602001606081525090565b5b80821115612e18576000816000905550600101612e00565b5090565b6000604051905090565b600080fd5b600080fd5b6000819050919050565b612e4381612e30565b8114612e4e57600080fd5b50565b600081359050612e6081612e3a565b92915050565b600060208284031215612e7c57612e7b612e26565b5b6000612e8a84828501612e51565b91505092915050565b600073ffffffffffffffffffffffffffffffffffffffff82169050919050565b6000612ebe82612e93565b9050919050565b612ece81612eb3565b82525050565b6000602082019050612ee96000830184612ec5565b92915050565b600081519050919050565b600082825260208201905092915050565b6000819050602082019050919050565b600081519050919050565b600082825260208201905092915050565b60005b83811015612f55578082015181840152602081019050612f3a565b60008484015250505050565b6000601f19601f8301169050919050565b6000612f7d82612f1b565b612f878185612f26565b9350612f97818560208601612f37565b612fa081612f61565b840191505092915050565b612fb481612e30565b82525050565b612fc381612eb3565b82525050565b6000610120830160008301518482036000860152612fe78282612f72565b915050602083015184820360208601526130018282612f72565b9150506040830151848203604086015261301b8282612f72565b915050606083015184820360608601526130358282612f72565b9150506080830151848203608086015261304f8282612f72565b91505060a083015184820360a08601526130698282612f72565b91505060c083015161307e60c0860182612fab565b5060e083015184820360e08601526130968282612f72565b9150506101008301516130ad610100860182612fba565b508091505092915050565b60006130c48383612fc9565b905092915050565b6000602082019050919050565b60006130e482612eef565b6130ee8185612efa565b93508360208202850161310085612f0b565b8060005b8581101561313c578484038952815161311d85826130b8565b9450613128836130cc565b925060208a01995050600181019050613104565b50829750879550505050505092915050565b6000602082019050818103600083015261316881846130d9565b905092915050565b61317981612e30565b82525050565b60006020820190506131946000830184613170565b92915050565b600081519050919050565b600082825260208201905092915050565b6000819050602082019050919050565b60008115159050919050565b6131db816131c6565b82525050565b600060c0830160008301516131f96000860182612fba565b50602083015161320c6020860182612fab565b50604083015161321f60408601826131d2565b50606083015184820360608601526132378282612f72565b915050608083015161324c6080860182612fab565b5060a083015184820360a08601526132648282612f72565b9150508091505092915050565b600061327d83836131e1565b905092915050565b6000602082019050919050565b600061329d8261319a565b6132a781856131a5565b9350836020820285016132b9856131b6565b8060005b858110156132f557848403895281516132d68582613271565b94506132e183613285565b925060208a019950506001810190506132bd565b50829750879550505050505092915050565b600060208201905081810360008301526133218184613292565b905092915050565b613332816131c6565b82525050565b600082825260208201905092915050565b600061335482612f1b565b61335e8185613338565b935061336e818560208601612f37565b61337781612f61565b840191505092915050565b600060c0820190506133976000830189612ec5565b6133a46020830188613170565b6133b16040830187613329565b81810360608301526133c38186613349565b90506133d26080830185613170565b81810360a08301526133e48184613349565b9050979650505050505050565b6133fa81612eb3565b811461340557600080fd5b50565b600081359050613417816133f1565b92915050565b60006020828403121561343357613432612e26565b5b600061344184828501613408565b91505092915050565b600080fd5b600080fd5b7f4e487b7100000000000000000000000000000000000000000000000000000000600052604160045260246000fd5b61348c82612f61565b810181811067ffffffffffffffff821117156134ab576134aa613454565b5b80604052505050565b60006134be612e1c565b90506134ca8282613483565b919050565b600067ffffffffffffffff8211156134ea576134e9613454565b5b6134f382612f61565b9050602081019050919050565b82818337600083830152505050565b600061352261351d846134cf565b6134b4565b90508281526020810184848401111561353e5761353d61344f565b5b613549848285613500565b509392505050565b600082601f8301126135665761356561344a565b5b813561357684826020860161350f565b91505092915050565b600080600080600080600080610100898b0312156135a05761359f612e26565b5b600089013567ffffffffffffffff8111156135be576135bd612e2b565b5b6135ca8b828c01613551565b985050602089013567ffffffffffffffff8111156135eb576135ea612e2b565b5b6135f78b828c01613551565b975050604089013567ffffffffffffffff81111561361857613617612e2b565b5b6136248b828c01613551565b965050606089013567ffffffffffffffff81111561364557613644612e2b565b5b6136518b828c01613551565b955050608089013567ffffffffffffffff81111561367257613671612e2b565b5b61367e8b828c01613551565b94505060a089013567ffffffffffffffff81111561369f5761369e612e2b565b5b6136ab8b828c01613551565b93505060c06136bc8b828c01612e51565b92505060e089013567ffffffffffffffff8111156136dd576136dc612e2b565b5b6136e98b828c01613551565b9150509295985092959890939650565b600080604083850312156137105761370f612e26565b5b600061371e85828601613408565b925050602061372f85828601612e51565b9150509250929050565b6000610120820190508181036000830152613754818c613349565b90508181036020830152613768818b613349565b9050818103604083015261377c818a613349565b905081810360608301526137908189613349565b905081810360808301526137a48188613349565b905081810360a08301526137b88187613349565b90506137c760c0830186613170565b81810360e08301526137d98185613349565b90506137e9610100830184612ec5565b9a9950505050505050505050565b613800816131c6565b811461380b57600080fd5b50565b60008135905061381d816137f7565b92915050565b60006020828403121561383957613838612e26565b5b60006138478482850161380e565b91505092915050565b600061012083016000830151848203600086015261386e8282612f72565b915050602083015184820360208601526138888282612f72565b915050604083015184820360408601526138a28282612f72565b915050606083015184820360608601526138bc8282612f72565b915050608083015184820360808601526138d68282612f72565b91505060a083015184820360a08601526138f08282612f72565b91505060c083015161390560c0860182612fab565b5060e083015184820360e086015261391d8282612f72565b915050610100830151613934610100860182612fba565b508091505092915050565b600060208201905081810360008301526139598184613850565b905092915050565b7f4e487b7100000000000000000000000000000000000000000000000000000000600052603260045260246000fd5b7f4e487b7100000000000000000000000000000000000000000000000000000000600052601160045260246000fd5b60006139ca82612e30565b91506139d583612e30565b92508282019050808211156139ed576139ec613990565b5b92915050565b60006139fe82612e30565b91507fffffffffffffffffffffffffffffffffffffffffffffffffffffffffffffffff8203613a3057613a2f613990565b5b600182019050919050565b7f4e487b7100000000000000000000000000000000000000000000000000000000600052602260045260246000fd5b60006002820490506001821680613a8257607f821691505b602082108103613a9557613a94613a3b565b5b50919050565b7f5365727669636520696e646578206f7574206f6620626f756e64730000000000600082015250565b6000613ad1601b83613338565b9150613adc82613a9b565b602082019050919050565b60006020820190508181036000830152613b0081613ac4565b9050919050565b6000613b1282612e30565b9150613b1d83612e30565b9250828203905081811115613b3557613b34613990565b5b92915050565b600081549050613b4a81613a6a565b9050919050565b60008190508160005260206000209050919050565b60006020601f8301049050919050565b600082821b905092915050565b600060088302613bb37fffffffffffffffffffffffffffffffffffffffffffffffffffffffffffffffff82613b76565b613bbd8683613b76565b95508019841693508086168417925050509392505050565b6000819050919050565b6000613bfa613bf5613bf084612e30565b613bd5565b612e30565b9050919050565b6000819050919050565b613c1483613bdf565b613c28613c2082613c01565b848454613b83565b825550505050565b600090565b613c3d613c30565b613c48818484613c0b565b505050565b5b81811015613c6c57613c61600082613c35565b600181019050613c4e565b5050565b601f821115613cb157613c8281613b51565b613c8b84613b66565b81016020851015613c9a578190505b613cae613ca685613b66565b830182613c4d565b50505b505050565b600082821c905092915050565b6000613cd460001984600802613cb6565b1980831691505092915050565b6000613ced8383613cc3565b9150826002028217905092915050565b818103613d0b575050613de3565b613d1482613b3b565b67ffffffffffffffff811115613d2d57613d2c613454565b5b613d378254613a6a565b613d42828285613c70565b6000601f831160018114613d715760008415613d5f578287015490505b613d698582613ce1565b865550613ddc565b601f198416613d7f87613b51565b9650613d8a86613b51565b60005b82811015613db257848901548255600182019150600185019450602081019050613d8d565b86831015613dcf5784890154613dcb601f891682613cc3565b8355505b6001600288020188555050505b5050505050505b565b7f4e487b7100000000000000000000000000000000000000000000000000000000600052603160045260246000fd5b60006020820190508181036000830152613e2e8184613349565b905092915050565b7f4f6e6c792074686520757365722077686f20706c6163656420746865206f726460008201527f65722063616e20636f6e6669726d206974000000000000000000000000000000602082015250565b6000613e92603183613338565b9150613e9d82613e36565b604082019050919050565b60006020820190508181036000830152613ec181613e85565b9050919050565b613ed182612f1b565b67ffffffffffffffff811115613eea57613ee9613454565b5b613ef48254613a6a565b613eff828285613c70565b600060209050601f831160018114613f325760008415613f20578287015190505b613f2a8582613ce1565b865550613f92565b601f198416613f4086613b51565b60005b82811015613f6857848901518255600182019150602085019450602081019050613f43565b86831015613f855784890151613f81601f891682613cc3565b8355505b6001600288020188555050505b505050505050565b6000604082019050613faf6000830185613170565b613fbc6020830184613170565b9392505050565b7f53657276696365206e616d652072657175697265640000000000000000000000600082015250565b6000613ff9601583613338565b915061400482613fc3565b602082019050919050565b6000602082019050818103600083015261402881613fec565b9050919050565b7f536572766963652063617465676f727920726571756972656400000000000000600082015250565b6000614065601983613338565b91506140708261402f565b602082019050919050565b6000602082019050818103600083015261409481614058565b9050919050565b7f4164647265737320726571756972656400000000000000000000000000000000600082015250565b60006140d1601083613338565b91506140dc8261409b565b602082019050919050565b60006020820190508181036000830152614100816140c4565b9050919050565b7f50686f6e65206e756d6265722072657175697265640000000000000000000000600082015250565b600061413d601583613338565b915061414882614107565b602082019050919050565b6000602082019050818103600083015261416c81614130565b9050919050565b7f456d61696c207265717569726564000000000000000000000000000000000000600082015250565b60006141a9600e83613338565b91506141b482614173565b602082019050919050565b600060208201905081810360008301526141d88161419c565b9050919050565b7f436f7374206d7573742062652067726561746572207468616e207a65726f0000600082015250565b6000614215601e83613338565b9150614220826141df565b602082019050919050565b6000602082019050818103600083015261424481614208565b9050919050565b7f43757272656e6379207265717569726564000000000000000000000000000000600082015250565b6000614281601183613338565b915061428c8261424b565b602082019050919050565b600060208201905081810360008301526142b081614274565b9050919050565b7f53657276696365206e6f7420666f756e64000000000000000000000000000000600082015250565b60006142ed601183613338565b91506142f8826142b7565b602082019050919050565b6000602082019050818103600083015261431c816142e0565b905091905056fea26469706673582212202d3cf21fedbeeea484b858ff0c5c7ffd7848c3eccacecbe37a3303af4668d54f64736f6c63430008130033",
  "immutableReferences": {},
  "source": "// SPDX-License-Identifier: MIT\r\npragma solidity >=0.8.19;\r\n\r\ncontract ServiceContract {\r\n    struct Service {\r\n        string logo;\r\n        string name;\r\n        string category;\r\n        string addressDetail;\r\n        string phoneNumber;\r\n        string email;\r\n        uint256 cost;\r\n        string currency;\r\n        address owner;\r\n    }\r\n\r\n    struct Order {\r\n        address user;\r\n        uint256 serviceId;\r\n        bool isCompleted;\r\n        string serviceName;\r\n        uint256 serviceCost;\r\n        string serviceCurrency;\r\n    }\r\n\r\n    mapping(address => Service[]) public services;\r\n    Order[] public orders;\r\n    address[] public serviceProviders;\r\n    uint256 public orderCount;\r\n\r\n    event ServiceAdded(address indexed user, string name);\r\n    event ServiceDeleted(address indexed user, string name);\r\n    event OrderPlaced(address indexed user, uint256 serviceId, uint256 orderId);\r\n    event OrderCompleted(uint256 orderId);\r\n\r\n    function addService(\r\n        string memory _logo,\r\n        string memory _name,\r\n        string memory _category,\r\n        string memory _addressDetail,\r\n        string memory _phoneNumber,\r\n        string memory _email,\r\n        uint256 _cost,\r\n        string memory _currency\r\n    ) public {\r\n        require(bytes(_name).length > 0, \"Service name required\");\r\n        require(bytes(_category).length > 0, \"Service category required\");\r\n        require(bytes(_addressDetail).length > 0, \"Address required\");\r\n        require(bytes(_phoneNumber).length > 0, \"Phone number required\");\r\n        require(bytes(_email).length > 0, \"Email required\");\r\n        require(_cost > 0, \"Cost must be greater than zero\");\r\n        require(bytes(_currency).length > 0, \"Currency required\");\r\n\r\n        Service memory newService = Service({\r\n            logo: _logo,\r\n            name: _name,\r\n            category: _category,\r\n            addressDetail: _addressDetail,\r\n            phoneNumber: _phoneNumber,\r\n            email: _email,\r\n            cost: _cost,\r\n            currency: _currency,\r\n            owner: msg.sender\r\n        });\r\n\r\n        services[msg.sender].push(newService);\r\n        if (services[msg.sender].length == 1) {\r\n            serviceProviders.push(msg.sender);\r\n        }\r\n        emit ServiceAdded(msg.sender, _name);\r\n    }\r\n\r\n    function getServices(address _user) public view returns (Service[] memory) {\r\n        return services[_user];\r\n    }\r\n\r\n    function deleteService(uint256 index) public {\r\n        require(index < services[msg.sender].length, \"Service index out of bounds\");\r\n        Service[] storage userServices = services[msg.sender];\r\n\r\n        string memory serviceName = userServices[index].name;\r\n\r\n        for (uint256 i = index; i < userServices.length - 1; i++) {\r\n            userServices[i] = userServices[i + 1];\r\n        }\r\n        userServices.pop();\r\n        emit ServiceDeleted(msg.sender, serviceName);\r\n    }\r\n\r\n    function getAllServices() public view returns (Service[] memory) {\r\n        uint totalServices;\r\n        for (uint i = 0; i < serviceProviders.length; i++) {\r\n            totalServices += services[serviceProviders[i]].length;\r\n        }\r\n\r\n        Service[] memory allServices = new Service[](totalServices);\r\n        uint counter = 0;\r\n        for (uint i = 0; i < serviceProviders.length; i++) {\r\n            for (uint j = 0; j < services[serviceProviders[i]].length; j++) {\r\n                allServices[counter] = services[serviceProviders[i]][j];\r\n                counter++;\r\n            }\r\n        }\r\n\r\n        return allServices;\r\n    }\r\n\r\n    function placeOrder(uint256 serviceId) public payable {\r\n        Service memory service = getServiceById(serviceId);\r\n\r\n        orders.push(Order({\r\n            user: msg.sender,\r\n            serviceId: serviceId,\r\n            isCompleted: false,\r\n            serviceName: service.name,\r\n            serviceCost: service.cost,\r\n            serviceCurrency: service.currency \r\n        }));\r\n\r\n        emit OrderPlaced(msg.sender, serviceId, orderCount);\r\n        orderCount++;\r\n    }\r\n\r\n    function confirmOrder(uint256 orderId) public {\r\n        Order storage order = orders[orderId];\r\n        require(order.user == msg.sender, \"Only the user who placed the order can confirm it\");\r\n\r\n        order.isCompleted = true;\r\n        Service memory service = getServiceById(order.serviceId);\r\n        payable(service.owner).transfer(service.cost);\r\n\r\n        emit OrderCompleted(orderId);\r\n    }\r\n\r\n    function getServiceById(uint256 serviceId) public view returns (Service memory) {\r\n        uint counter = 0;\r\n        for (uint i = 0; i < serviceProviders.length; i++) {\r\n            for (uint j = 0; j < services[serviceProviders[i]].length; j++) {\r\n                if (counter == serviceId) {\r\n                    return services[serviceProviders[i]][j];\r\n                }\r\n                counter++;\r\n            }\r\n        }\r\n        revert(\"Service not found\");\r\n    }\r\n\r\n    function getAllOrders() public view returns (Order[] memory) {\r\n    Order[] memory allOrders = new Order[](orderCount);\r\n    for (uint i = 0; i < orderCount; i++) {\r\n        allOrders[i] = orders[i];\r\n    }\r\n        return allOrders;\r\n    }\r\n\r\n    function getOrdersByStatus(bool isCompleted) public view returns (Order[] memory) {\r\n        uint count = 0;\r\n        for (uint i = 0; i < orderCount; i++) {\r\n            if (orders[i].isCompleted == isCompleted) {\r\n                count++;\r\n            }\r\n        }\r\n\r\n        Order[] memory filteredOrders = new Order[](count);\r\n        uint index = 0;\r\n        for (uint i = 0; i < orderCount; i++) {\r\n            if (orders[i].isCompleted == isCompleted) {\r\n                filteredOrders[index] = orders[i];\r\n                index++;\r\n            }\r\n        }\r\n        return filteredOrders;\r\n    }\r\n}\r\n",
  "sourcePath": "C:\\Users\\Kevin Sorensen\\GitHub\\Aclean\\aclean-dapps\\blockchain\\contracts\\ServiceContract.sol",
  "compiler": {
    "name": "solc",
    "version": "0.8.19+commit.7dd6d404.Emscripten.clang"
  },
  "schemaVersion": "3.4.16",
  "updatedAt": "2024-05-19T11:47:24.642Z",
  "networkType": "ethereum",
  "devdoc": {
    "kind": "dev",
    "methods": {},
    "version": 1
  },
  "userdoc": {
    "kind": "user",
    "methods": {},
    "version": 1
  }
}