{
  "contractName": "ServiceContract",
  "abi": [
    {
      "anonymous": false,
      "inputs": [
        {
          "indexed": true,
          "internalType": "address",
          "name": "user",
          "type": "address"
        },
        {
          "indexed": false,
          "internalType": "string",
          "name": "name",
          "type": "string"
        }
      ],
      "name": "ServiceAdded",
      "type": "event"
    },
    {
      "anonymous": false,
      "inputs": [
        {
          "indexed": true,
          "internalType": "address",
          "name": "user",
          "type": "address"
        },
        {
          "indexed": false,
          "internalType": "string",
          "name": "name",
          "type": "string"
        }
      ],
      "name": "ServiceDeleted",
      "type": "event"
    },
    {
      "inputs": [
        {
          "internalType": "uint256",
          "name": "",
          "type": "uint256"
        }
      ],
      "name": "serviceProviders",
      "outputs": [
        {
          "internalType": "address",
          "name": "",
          "type": "address"
        }
      ],
      "stateMutability": "view",
      "type": "function",
      "constant": true
    },
    {
      "inputs": [
        {
          "internalType": "address",
          "name": "",
          "type": "address"
        },
        {
          "internalType": "uint256",
          "name": "",
          "type": "uint256"
        }
      ],
      "name": "services",
      "outputs": [
        {
          "internalType": "string",
          "name": "logo",
          "type": "string"
        },
        {
          "internalType": "string",
          "name": "name",
          "type": "string"
        },
        {
          "internalType": "string",
          "name": "category",
          "type": "string"
        },
        {
          "internalType": "string",
          "name": "addressDetail",
          "type": "string"
        },
        {
          "internalType": "string",
          "name": "phoneNumber",
          "type": "string"
        },
        {
          "internalType": "string",
          "name": "email",
          "type": "string"
        },
        {
          "internalType": "uint256",
          "name": "cost",
          "type": "uint256"
        },
        {
          "internalType": "string",
          "name": "currency",
          "type": "string"
        }
      ],
      "stateMutability": "view",
      "type": "function",
      "constant": true
    },
    {
      "inputs": [
        {
          "internalType": "string",
          "name": "_logo",
          "type": "string"
        },
        {
          "internalType": "string",
          "name": "_name",
          "type": "string"
        },
        {
          "internalType": "string",
          "name": "_category",
          "type": "string"
        },
        {
          "internalType": "string",
          "name": "_addressDetail",
          "type": "string"
        },
        {
          "internalType": "string",
          "name": "_phoneNumber",
          "type": "string"
        },
        {
          "internalType": "string",
          "name": "_email",
          "type": "string"
        },
        {
          "internalType": "uint256",
          "name": "_cost",
          "type": "uint256"
        },
        {
          "internalType": "string",
          "name": "_currency",
          "type": "string"
        }
      ],
      "name": "addService",
      "outputs": [],
      "stateMutability": "nonpayable",
      "type": "function"
    },
    {
      "inputs": [
        {
          "internalType": "address",
          "name": "_user",
          "type": "address"
        }
      ],
      "name": "getServices",
      "outputs": [
        {
          "components": [
            {
              "internalType": "string",
              "name": "logo",
              "type": "string"
            },
            {
              "internalType": "string",
              "name": "name",
              "type": "string"
            },
            {
              "internalType": "string",
              "name": "category",
              "type": "string"
            },
            {
              "internalType": "string",
              "name": "addressDetail",
              "type": "string"
            },
            {
              "internalType": "string",
              "name": "phoneNumber",
              "type": "string"
            },
            {
              "internalType": "string",
              "name": "email",
              "type": "string"
            },
            {
              "internalType": "uint256",
              "name": "cost",
              "type": "uint256"
            },
            {
              "internalType": "string",
              "name": "currency",
              "type": "string"
            }
          ],
          "internalType": "struct ServiceContract.Service[]",
          "name": "",
          "type": "tuple[]"
        }
      ],
      "stateMutability": "view",
      "type": "function",
      "constant": true
    },
    {
      "inputs": [
        {
          "internalType": "uint256",
          "name": "index",
          "type": "uint256"
        }
      ],
      "name": "deleteService",
      "outputs": [],
      "stateMutability": "nonpayable",
      "type": "function"
    },
    {
      "inputs": [],
      "name": "getAllServices",
      "outputs": [
        {
          "components": [
            {
              "internalType": "string",
              "name": "logo",
              "type": "string"
            },
            {
              "internalType": "string",
              "name": "name",
              "type": "string"
            },
            {
              "internalType": "string",
              "name": "category",
              "type": "string"
            },
            {
              "internalType": "string",
              "name": "addressDetail",
              "type": "string"
            },
            {
              "internalType": "string",
              "name": "phoneNumber",
              "type": "string"
            },
            {
              "internalType": "string",
              "name": "email",
              "type": "string"
            },
            {
              "internalType": "uint256",
              "name": "cost",
              "type": "uint256"
            },
            {
              "internalType": "string",
              "name": "currency",
              "type": "string"
            }
          ],
          "internalType": "struct ServiceContract.Service[]",
          "name": "",
          "type": "tuple[]"
        }
      ],
      "stateMutability": "view",
      "type": "function",
      "constant": true
    }
  ],
  "bytecode": "0x608060405234801561001057600080fd5b506129d0806100206000396000f3fe608060405234801561001057600080fd5b50600436106100625760003560e01c80630a02dcc71461006757806321fe0f301461009757806374e29ee6146100b5578063b2532a45146100d1578063bbd882f014610101578063c134f17e1461011d575b600080fd5b610081600480360381019061007c9190611923565b610154565b60405161008e9190611991565b60405180910390f35b61009f610193565b6040516100ac9190611be7565b60405180910390f35b6100cf60048036038101906100ca9190611923565b61084b565b005b6100eb60048036038101906100e69190611c35565b610b47565b6040516100f89190611be7565b60405180910390f35b61011b60048036038101906101169190611d97565b610fed565b005b61013760048036038101906101329190611f11565b61141a565b60405161014b989796959493929190611faa565b60405180910390f35b6001818154811061016457600080fd5b906000526020600020016000915054906101000a900473ffffffffffffffffffffffffffffffffffffffff1681565b6060600080600090505b60018054905081101561024a57600080600183815481106101c1576101c0612059565b5b9060005260206000200160009054906101000a900473ffffffffffffffffffffffffffffffffffffffff1673ffffffffffffffffffffffffffffffffffffffff1673ffffffffffffffffffffffffffffffffffffffff168152602001908152602001600020805490508261023591906120b7565b91508080610242906120eb565b91505061019d565b5060008167ffffffffffffffff81111561026757610266611c6c565b5b6040519080825280602002602001820160405280156102a057816020015b61028d611837565b8152602001906001900390816102855790505b5090506000805b6001805490508110156108415760005b600080600184815481106102ce576102cd612059565b5b9060005260206000200160009054906101000a900473ffffffffffffffffffffffffffffffffffffffff1673ffffffffffffffffffffffffffffffffffffffff1673ffffffffffffffffffffffffffffffffffffffff1681526020019081526020016000208054905081101561082d576000806001848154811061035557610354612059565b5b9060005260206000200160009054906101000a900473ffffffffffffffffffffffffffffffffffffffff1673ffffffffffffffffffffffffffffffffffffffff1673ffffffffffffffffffffffffffffffffffffffff16815260200190815260200160002081815481106103cc576103cb612059565b5b9060005260206000209060080201604051806101000160405290816000820180546103f690612162565b80601f016020809104026020016040519081016040528092919081815260200182805461042290612162565b801561046f5780601f106104445761010080835404028352916020019161046f565b820191906000526020600020905b81548152906001019060200180831161045257829003601f168201915b5050505050815260200160018201805461048890612162565b80601f01602080910402602001604051908101604052809291908181526020018280546104b490612162565b80156105015780601f106104d657610100808354040283529160200191610501565b820191906000526020600020905b8154815290600101906020018083116104e457829003601f168201915b5050505050815260200160028201805461051a90612162565b80601f016020809104026020016040519081016040528092919081815260200182805461054690612162565b80156105935780601f1061056857610100808354040283529160200191610593565b820191906000526020600020905b81548152906001019060200180831161057657829003601f168201915b505050505081526020016003820180546105ac90612162565b80601f01602080910402602001604051908101604052809291908181526020018280546105d890612162565b80156106255780601f106105fa57610100808354040283529160200191610625565b820191906000526020600020905b81548152906001019060200180831161060857829003601f168201915b5050505050815260200160048201805461063e90612162565b80601f016020809104026020016040519081016040528092919081815260200182805461066a90612162565b80156106b75780601f1061068c576101008083540402835291602001916106b7565b820191906000526020600020905b81548152906001019060200180831161069a57829003601f168201915b505050505081526020016005820180546106d090612162565b80601f01602080910402602001604051908101604052809291908181526020018280546106fc90612162565b80156107495780601f1061071e57610100808354040283529160200191610749565b820191906000526020600020905b81548152906001019060200180831161072c57829003601f168201915b505050505081526020016006820154815260200160078201805461076c90612162565b80601f016020809104026020016040519081016040528092919081815260200182805461079890612162565b80156107e55780601f106107ba576101008083540402835291602001916107e5565b820191906000526020600020905b8154815290600101906020018083116107c857829003601f168201915b50505050508152505084848151811061080157610800612059565b5b60200260200101819052508280610817906120eb565b9350508080610825906120eb565b9150506102b7565b508080610839906120eb565b9150506102a7565b5081935050505090565b6000803373ffffffffffffffffffffffffffffffffffffffff1673ffffffffffffffffffffffffffffffffffffffff1681526020019081526020016000208054905081106108ce576040517f08c379a00000000000000000000000000000000000000000000000000000000081526004016108c5906121df565b60405180910390fd5b60008060003373ffffffffffffffffffffffffffffffffffffffff1673ffffffffffffffffffffffffffffffffffffffff168152602001908152602001600020905060008290505b6001828054905061092791906121ff565b811015610a2f578160018261093c91906120b7565b8154811061094d5761094c612059565b5b906000526020600020906008020182828154811061096e5761096d612059565b5b90600052602060002090600802016000820181600001908161099091906123f5565b50600182018160010190816109a591906123f5565b50600282018160020190816109ba91906123f5565b50600382018160030190816109cf91906123f5565b50600482018160040190816109e491906123f5565b50600582018160050190816109f991906123f5565b506006820154816006015560078201816007019081610a1891906123f5565b509050508080610a27906120eb565b915050610916565b5080805480610a4157610a406124dd565b5b600190038181906000526020600020906008020160008082016000610a66919061187c565b600182016000610a76919061187c565b600282016000610a86919061187c565b600382016000610a96919061187c565b600482016000610aa6919061187c565b600582016000610ab6919061187c565b6006820160009055600782016000610ace919061187c565b505090553373ffffffffffffffffffffffffffffffffffffffff167f970480f79372727bc0f144df151fd4335131d28955ae2cbabd6c79326917a6d6828481548110610b1d57610b1c612059565b5b9060005260206000209060080201600101604051610b3b9190612590565b60405180910390a25050565b60606000808373ffffffffffffffffffffffffffffffffffffffff1673ffffffffffffffffffffffffffffffffffffffff168152602001908152602001600020805480602002602001604051908101604052809291908181526020016000905b82821015610fe2578382906000526020600020906008020160405180610100016040529081600082018054610bdb90612162565b80601f0160208091040260200160405190810160405280929190818152602001828054610c0790612162565b8015610c545780601f10610c2957610100808354040283529160200191610c54565b820191906000526020600020905b815481529060010190602001808311610c3757829003601f168201915b50505050508152602001600182018054610c6d90612162565b80601f0160208091040260200160405190810160405280929190818152602001828054610c9990612162565b8015610ce65780601f10610cbb57610100808354040283529160200191610ce6565b820191906000526020600020905b815481529060010190602001808311610cc957829003601f168201915b50505050508152602001600282018054610cff90612162565b80601f0160208091040260200160405190810160405280929190818152602001828054610d2b90612162565b8015610d785780601f10610d4d57610100808354040283529160200191610d78565b820191906000526020600020905b815481529060010190602001808311610d5b57829003601f168201915b50505050508152602001600382018054610d9190612162565b80601f0160208091040260200160405190810160405280929190818152602001828054610dbd90612162565b8015610e0a5780601f10610ddf57610100808354040283529160200191610e0a565b820191906000526020600020905b815481529060010190602001808311610ded57829003601f168201915b50505050508152602001600482018054610e2390612162565b80601f0160208091040260200160405190810160405280929190818152602001828054610e4f90612162565b8015610e9c5780601f10610e7157610100808354040283529160200191610e9c565b820191906000526020600020905b815481529060010190602001808311610e7f57829003601f168201915b50505050508152602001600582018054610eb590612162565b80601f0160208091040260200160405190810160405280929190818152602001828054610ee190612162565b8015610f2e5780601f10610f0357610100808354040283529160200191610f2e565b820191906000526020600020905b815481529060010190602001808311610f1157829003601f168201915b5050505050815260200160068201548152602001600782018054610f5190612162565b80601f0160208091040260200160405190810160405280929190818152602001828054610f7d90612162565b8015610fca5780601f10610f9f57610100808354040283529160200191610fca565b820191906000526020600020905b815481529060010190602001808311610fad57829003601f168201915b50505050508152505081526020019060010190610ba7565b505050509050919050565b6000875111611031576040517f08c379a0000000000000000000000000000000000000000000000000000000008152600401611028906125fe565b60405180910390fd5b6000865111611075576040517f08c379a000000000000000000000000000000000000000000000000000000000815260040161106c9061266a565b60405180910390fd5b60008551116110b9576040517f08c379a00000000000000000000000000000000000000000000000000000000081526004016110b0906126d6565b60405180910390fd5b60008451116110fd576040517f08c379a00000000000000000000000000000000000000000000000000000000081526004016110f490612742565b60405180910390fd5b6000835111611141576040517f08c379a0000000000000000000000000000000000000000000000000000000008152600401611138906127ae565b60405180910390fd5b60008211611184576040517f08c379a000000000000000000000000000000000000000000000000000000000815260040161117b9061281a565b60405180910390fd5b60008151116111c8576040517f08c379a00000000000000000000000000000000000000000000000000000000081526004016111bf90612886565b60405180910390fd5b60006040518061010001604052808a81526020018981526020018881526020018781526020018681526020018581526020018481526020018381525090506000803373ffffffffffffffffffffffffffffffffffffffff1673ffffffffffffffffffffffffffffffffffffffff168152602001908152602001600020819080600181540180825580915050600190039060005260206000209060080201600090919091909150600082015181600001908161128391906128a6565b50602082015181600101908161129991906128a6565b5060408201518160020190816112af91906128a6565b5060608201518160030190816112c591906128a6565b5060808201518160040190816112db91906128a6565b5060a08201518160050190816112f191906128a6565b5060c0820151816006015560e082015181600701908161131191906128a6565b50505060016000803373ffffffffffffffffffffffffffffffffffffffff1673ffffffffffffffffffffffffffffffffffffffff16815260200190815260200160002080549050036113c1576001339080600181540180825580915050600190039060005260206000200160009091909190916101000a81548173ffffffffffffffffffffffffffffffffffffffff021916908373ffffffffffffffffffffffffffffffffffffffff1602179055505b3373ffffffffffffffffffffffffffffffffffffffff167fb33be4898b3eae72be50da48dea4d99c1e830cd6f31f9d534998c4fcaa91b62e896040516114079190612978565b60405180910390a2505050505050505050565b6000602052816000526040600020818154811061143657600080fd5b90600052602060002090600802016000915091505080600001805461145a90612162565b80601f016020809104026020016040519081016040528092919081815260200182805461148690612162565b80156114d35780601f106114a8576101008083540402835291602001916114d3565b820191906000526020600020905b8154815290600101906020018083116114b657829003601f168201915b5050505050908060010180546114e890612162565b80601f016020809104026020016040519081016040528092919081815260200182805461151490612162565b80156115615780601f1061153657610100808354040283529160200191611561565b820191906000526020600020905b81548152906001019060200180831161154457829003601f168201915b50505050509080600201805461157690612162565b80601f01602080910402602001604051908101604052809291908181526020018280546115a290612162565b80156115ef5780601f106115c4576101008083540402835291602001916115ef565b820191906000526020600020905b8154815290600101906020018083116115d257829003601f168201915b50505050509080600301805461160490612162565b80601f016020809104026020016040519081016040528092919081815260200182805461163090612162565b801561167d5780601f106116525761010080835404028352916020019161167d565b820191906000526020600020905b81548152906001019060200180831161166057829003601f168201915b50505050509080600401805461169290612162565b80601f01602080910402602001604051908101604052809291908181526020018280546116be90612162565b801561170b5780601f106116e05761010080835404028352916020019161170b565b820191906000526020600020905b8154815290600101906020018083116116ee57829003601f168201915b50505050509080600501805461172090612162565b80601f016020809104026020016040519081016040528092919081815260200182805461174c90612162565b80156117995780601f1061176e57610100808354040283529160200191611799565b820191906000526020600020905b81548152906001019060200180831161177c57829003601f168201915b5050505050908060060154908060070180546117b490612162565b80601f01602080910402602001604051908101604052809291908181526020018280546117e090612162565b801561182d5780601f106118025761010080835404028352916020019161182d565b820191906000526020600020905b81548152906001019060200180831161181057829003601f168201915b5050505050905088565b60405180610100016040528060608152602001606081526020016060815260200160608152602001606081526020016060815260200160008152602001606081525090565b50805461188890612162565b6000825580601f1061189a57506118b9565b601f0160209004906000526020600020908101906118b891906118bc565b5b50565b5b808211156118d55760008160009055506001016118bd565b5090565b6000604051905090565b600080fd5b600080fd5b6000819050919050565b611900816118ed565b811461190b57600080fd5b50565b60008135905061191d816118f7565b92915050565b600060208284031215611939576119386118e3565b5b60006119478482850161190e565b91505092915050565b600073ffffffffffffffffffffffffffffffffffffffff82169050919050565b600061197b82611950565b9050919050565b61198b81611970565b82525050565b60006020820190506119a66000830184611982565b92915050565b600081519050919050565b600082825260208201905092915050565b6000819050602082019050919050565b600081519050919050565b600082825260208201905092915050565b60005b83811015611a125780820151818401526020810190506119f7565b60008484015250505050565b6000601f19601f8301169050919050565b6000611a3a826119d8565b611a4481856119e3565b9350611a548185602086016119f4565b611a5d81611a1e565b840191505092915050565b611a71816118ed565b82525050565b6000610100830160008301518482036000860152611a958282611a2f565b91505060208301518482036020860152611aaf8282611a2f565b91505060408301518482036040860152611ac98282611a2f565b91505060608301518482036060860152611ae38282611a2f565b91505060808301518482036080860152611afd8282611a2f565b91505060a083015184820360a0860152611b178282611a2f565b91505060c0830151611b2c60c0860182611a68565b5060e083015184820360e0860152611b448282611a2f565b9150508091505092915050565b6000611b5d8383611a77565b905092915050565b6000602082019050919050565b6000611b7d826119ac565b611b8781856119b7565b935083602082028501611b99856119c8565b8060005b85811015611bd55784840389528151611bb68582611b51565b9450611bc183611b65565b925060208a01995050600181019050611b9d565b50829750879550505050505092915050565b60006020820190508181036000830152611c018184611b72565b905092915050565b611c1281611970565b8114611c1d57600080fd5b50565b600081359050611c2f81611c09565b92915050565b600060208284031215611c4b57611c4a6118e3565b5b6000611c5984828501611c20565b91505092915050565b600080fd5b600080fd5b7f4e487b7100000000000000000000000000000000000000000000000000000000600052604160045260246000fd5b611ca482611a1e565b810181811067ffffffffffffffff82111715611cc357611cc2611c6c565b5b80604052505050565b6000611cd66118d9565b9050611ce28282611c9b565b919050565b600067ffffffffffffffff821115611d0257611d01611c6c565b5b611d0b82611a1e565b9050602081019050919050565b82818337600083830152505050565b6000611d3a611d3584611ce7565b611ccc565b905082815260208101848484011115611d5657611d55611c67565b5b611d61848285611d18565b509392505050565b600082601f830112611d7e57611d7d611c62565b5b8135611d8e848260208601611d27565b91505092915050565b600080600080600080600080610100898b031215611db857611db76118e3565b5b600089013567ffffffffffffffff811115611dd657611dd56118e8565b5b611de28b828c01611d69565b985050602089013567ffffffffffffffff811115611e0357611e026118e8565b5b611e0f8b828c01611d69565b975050604089013567ffffffffffffffff811115611e3057611e2f6118e8565b5b611e3c8b828c01611d69565b965050606089013567ffffffffffffffff811115611e5d57611e5c6118e8565b5b611e698b828c01611d69565b955050608089013567ffffffffffffffff811115611e8a57611e896118e8565b5b611e968b828c01611d69565b94505060a089013567ffffffffffffffff811115611eb757611eb66118e8565b5b611ec38b828c01611d69565b93505060c0611ed48b828c0161190e565b92505060e089013567ffffffffffffffff811115611ef557611ef46118e8565b5b611f018b828c01611d69565b9150509295985092959890939650565b60008060408385031215611f2857611f276118e3565b5b6000611f3685828601611c20565b9250506020611f478582860161190e565b9150509250929050565b600082825260208201905092915050565b6000611f6d826119d8565b611f778185611f51565b9350611f878185602086016119f4565b611f9081611a1e565b840191505092915050565b611fa4816118ed565b82525050565b6000610100820190508181036000830152611fc5818b611f62565b90508181036020830152611fd9818a611f62565b90508181036040830152611fed8189611f62565b905081810360608301526120018188611f62565b905081810360808301526120158187611f62565b905081810360a08301526120298186611f62565b905061203860c0830185611f9b565b81810360e083015261204a8184611f62565b90509998505050505050505050565b7f4e487b7100000000000000000000000000000000000000000000000000000000600052603260045260246000fd5b7f4e487b7100000000000000000000000000000000000000000000000000000000600052601160045260246000fd5b60006120c2826118ed565b91506120cd836118ed565b92508282019050808211156120e5576120e4612088565b5b92915050565b60006120f6826118ed565b91507fffffffffffffffffffffffffffffffffffffffffffffffffffffffffffffffff820361212857612127612088565b5b600182019050919050565b7f4e487b7100000000000000000000000000000000000000000000000000000000600052602260045260246000fd5b6000600282049050600182168061217a57607f821691505b60208210810361218d5761218c612133565b5b50919050565b7f5365727669636520696e646578206f7574206f6620626f756e64730000000000600082015250565b60006121c9601b83611f51565b91506121d482612193565b602082019050919050565b600060208201905081810360008301526121f8816121bc565b9050919050565b600061220a826118ed565b9150612215836118ed565b925082820390508181111561222d5761222c612088565b5b92915050565b60008154905061224281612162565b9050919050565b60008190508160005260206000209050919050565b60006020601f8301049050919050565b600082821b905092915050565b6000600883026122ab7fffffffffffffffffffffffffffffffffffffffffffffffffffffffffffffffff8261226e565b6122b5868361226e565b95508019841693508086168417925050509392505050565b6000819050919050565b60006122f26122ed6122e8846118ed565b6122cd565b6118ed565b9050919050565b6000819050919050565b61230c836122d7565b612320612318826122f9565b84845461227b565b825550505050565b600090565b612335612328565b612340818484612303565b505050565b5b818110156123645761235960008261232d565b600181019050612346565b5050565b601f8211156123a95761237a81612249565b6123838461225e565b81016020851015612392578190505b6123a661239e8561225e565b830182612345565b50505b505050565b600082821c905092915050565b60006123cc600019846008026123ae565b1980831691505092915050565b60006123e583836123bb565b9150826002028217905092915050565b8181036124035750506124db565b61240c82612233565b67ffffffffffffffff81111561242557612424611c6c565b5b61242f8254612162565b61243a828285612368565b6000601f8311600181146124695760008415612457578287015490505b61246185826123d9565b8655506124d4565b601f19841661247787612249565b965061248286612249565b60005b828110156124aa57848901548255600182019150600185019450602081019050612485565b868310156124c757848901546124c3601f8916826123bb565b8355505b6001600288020188555050505b5050505050505b565b7f4e487b7100000000000000000000000000000000000000000000000000000000600052603160045260246000fd5b6000815461251981612162565b6125238186611f51565b9450600182166000811461253e576001811461255457612587565b60ff198316865281151560200286019350612587565b61255d85612249565b60005b8381101561257f57815481890152600182019150602081019050612560565b808801955050505b50505092915050565b600060208201905081810360008301526125aa818461250c565b905092915050565b7f53657276696365206e616d652072657175697265640000000000000000000000600082015250565b60006125e8601583611f51565b91506125f3826125b2565b602082019050919050565b60006020820190508181036000830152612617816125db565b9050919050565b7f536572766963652063617465676f727920726571756972656400000000000000600082015250565b6000612654601983611f51565b915061265f8261261e565b602082019050919050565b6000602082019050818103600083015261268381612647565b9050919050565b7f4164647265737320726571756972656400000000000000000000000000000000600082015250565b60006126c0601083611f51565b91506126cb8261268a565b602082019050919050565b600060208201905081810360008301526126ef816126b3565b9050919050565b7f50686f6e65206e756d6265722072657175697265640000000000000000000000600082015250565b600061272c601583611f51565b9150612737826126f6565b602082019050919050565b6000602082019050818103600083015261275b8161271f565b9050919050565b7f456d61696c207265717569726564000000000000000000000000000000000000600082015250565b6000612798600e83611f51565b91506127a382612762565b602082019050919050565b600060208201905081810360008301526127c78161278b565b9050919050565b7f436f7374206d7573742062652067726561746572207468616e207a65726f0000600082015250565b6000612804601e83611f51565b915061280f826127ce565b602082019050919050565b60006020820190508181036000830152612833816127f7565b9050919050565b7f43757272656e6379207265717569726564000000000000000000000000000000600082015250565b6000612870601183611f51565b915061287b8261283a565b602082019050919050565b6000602082019050818103600083015261289f81612863565b9050919050565b6128af826119d8565b67ffffffffffffffff8111156128c8576128c7611c6c565b5b6128d28254612162565b6128dd828285612368565b600060209050601f83116001811461291057600084156128fe578287015190505b61290885826123d9565b865550612970565b601f19841661291e86612249565b60005b8281101561294657848901518255600182019150602085019450602081019050612921565b86831015612963578489015161295f601f8916826123bb565b8355505b6001600288020188555050505b505050505050565b600060208201905081810360008301526129928184611f62565b90509291505056fea2646970667358221220237df43698a925c7f51c7797065fd7defdb55cbf509e683e3580d181847fff5864736f6c63430008130033",
  "immutableReferences": {},
  "source": "// SPDX-License-Identifier: MIT\r\npragma solidity >=0.8.19;\r\n\r\ncontract ServiceContract {\r\n    struct Service {\r\n        string logo;\r\n        string name;\r\n        string category;\r\n        string addressDetail;\r\n        string phoneNumber;\r\n        string email;\r\n        uint256 cost;\r\n        string currency;\r\n    }\r\n\r\n    mapping(address => Service[]) public services;\r\n    address[] public serviceProviders;\r\n\r\n    event ServiceAdded(address indexed user, string name);\r\n    event ServiceDeleted(address indexed user, string name);\r\n\r\n    function addService(\r\n        string memory _logo,\r\n        string memory _name,\r\n        string memory _category,\r\n        string memory _addressDetail,\r\n        string memory _phoneNumber,\r\n        string memory _email,\r\n        uint256 _cost,\r\n        string memory _currency\r\n    ) public {\r\n        require(bytes(_name).length > 0, \"Service name required\");\r\n        require(bytes(_category).length > 0, \"Service category required\");\r\n        require(bytes(_addressDetail).length > 0, \"Address required\");\r\n        require(bytes(_phoneNumber).length > 0, \"Phone number required\");\r\n        require(bytes(_email).length > 0, \"Email required\");\r\n        require(_cost > 0, \"Cost must be greater than zero\");\r\n        require(bytes(_currency).length > 0, \"Currency required\");\r\n\r\n        Service memory newService = Service({\r\n            logo: _logo,\r\n            name: _name,\r\n            category: _category,\r\n            addressDetail: _addressDetail,\r\n            phoneNumber: _phoneNumber,\r\n            email: _email,\r\n            cost: _cost,\r\n            currency: _currency\r\n        });\r\n\r\n        services[msg.sender].push(newService);\r\n        if (services[msg.sender].length == 1) {\r\n            serviceProviders.push(msg.sender);\r\n        }\r\n        emit ServiceAdded(msg.sender, _name);\r\n    }\r\n\r\n    function getServices(address _user) public view returns (Service[] memory) {\r\n        return services[_user];\r\n    }\r\n\r\n    function deleteService(uint256 index) public {\r\n        require(index < services[msg.sender].length, \"Service index out of bounds\");\r\n        Service[] storage userServices = services[msg.sender];\r\n\r\n        for (uint256 i = index; i < userServices.length - 1; i++) {\r\n            userServices[i] = userServices[i + 1];\r\n        }\r\n\r\n        userServices.pop();\r\n        emit ServiceDeleted(msg.sender, userServices[index].name);\r\n    }\r\n\r\n    function getAllServices() public view returns (Service[] memory) {\r\n        uint totalServices;\r\n        for (uint i = 0; i < serviceProviders.length; i++) {\r\n            totalServices += services[serviceProviders[i]].length;\r\n        }\r\n\r\n        Service[] memory allServices = new Service[](totalServices);\r\n        uint counter = 0;\r\n        for (uint i = 0; i < serviceProviders.length; i++) {\r\n            for (uint j = 0; j < services[serviceProviders[i]].length; j++) {\r\n                allServices[counter] = services[serviceProviders[i]][j];\r\n                counter++;\r\n            }\r\n        }\r\n\r\n        return allServices;\r\n    }\r\n}\r\n",
  "sourcePath": "C:\\Users\\Kevin Sorensen\\GitHub\\Aclean\\aclean-dapps\\blockchain\\contracts\\ServiceContract.sol",
  "compiler": {
    "name": "solc",
    "version": "0.8.19+commit.7dd6d404.Emscripten.clang"
  },
  "schemaVersion": "3.4.16",
  "updatedAt": "2024-05-18T15:08:38.652Z",
  "networkType": "ethereum",
  "devdoc": {
    "kind": "dev",
    "methods": {},
    "version": 1
  },
  "userdoc": {
    "kind": "user",
    "methods": {},
    "version": 1
  }
}